{
  "address": "0x833bE1AA840eD2D0d31d278bb35C29d103EC1BdF",
  "abi": [
    {
      "inputs": [
        {
          "internalType": "address payable",
          "name": "_treasury",
          "type": "address"
        }
      ],
      "stateMutability": "nonpayable",
      "type": "constructor"
    },
    {
      "anonymous": false,
      "inputs": [
        {
          "indexed": true,
          "internalType": "address",
          "name": "from",
          "type": "address"
        },
        {
          "indexed": true,
          "internalType": "uint256",
          "name": "amount",
          "type": "uint256"
        }
      ],
      "name": "ClaimBet",
      "type": "event"
    },
    {
      "anonymous": false,
      "inputs": [
        {
          "indexed": true,
          "internalType": "uint256",
          "name": "id",
          "type": "uint256"
        },
        {
          "indexed": true,
          "internalType": "enum IMoneylineBets.Result",
          "name": "result",
          "type": "uint8"
        },
        {
          "indexed": true,
          "internalType": "uint256",
          "name": "totalPrize",
          "type": "uint256"
        }
      ],
      "name": "CloseBet",
      "type": "event"
    },
    {
      "anonymous": false,
      "inputs": [
        {
          "indexed": true,
          "internalType": "address",
          "name": "from",
          "type": "address"
        },
        {
          "indexed": true,
          "internalType": "uint256",
          "name": "commissionAmount",
          "type": "uint256"
        }
      ],
      "name": "CommissionPayment",
      "type": "event"
    },
    {
      "anonymous": false,
      "inputs": [
        {
          "indexed": true,
          "internalType": "uint256",
          "name": "id",
          "type": "uint256"
        },
        {
          "indexed": true,
          "internalType": "uint256",
          "name": "fromIdx",
          "type": "uint256"
        },
        {
          "indexed": true,
          "internalType": "uint256",
          "name": "toIdx",
          "type": "uint256"
        }
      ],
      "name": "FinalizeBet",
      "type": "event"
    },
    {
      "anonymous": false,
      "inputs": [
        {
          "indexed": true,
          "internalType": "uint256",
          "name": "id",
          "type": "uint256"
        },
        {
          "indexed": true,
          "internalType": "uint256",
          "name": "amount",
          "type": "uint256"
        }
      ],
      "name": "InjectBet",
      "type": "event"
    },
    {
      "anonymous": false,
      "inputs": [
        {
          "indexed": true,
          "internalType": "address",
          "name": "from",
          "type": "address"
        },
        {
          "indexed": true,
          "internalType": "enum IMoneylineBets.Result",
          "name": "choice",
          "type": "uint8"
        },
        {
          "indexed": true,
          "internalType": "uint256",
          "name": "ticketCount",
          "type": "uint256"
        }
      ],
      "name": "MakeBet",
      "type": "event"
    },
    {
      "anonymous": false,
      "inputs": [
        {
          "indexed": true,
          "internalType": "uint256",
          "name": "id",
          "type": "uint256"
        },
        {
          "indexed": true,
          "internalType": "uint256",
          "name": "startsAt",
          "type": "uint256"
        },
        {
          "indexed": true,
          "internalType": "uint256",
          "name": "endsAt",
          "type": "uint256"
        },
        {
          "indexed": false,
          "internalType": "uint256",
          "name": "pricePerTicket",
          "type": "uint256"
        }
      ],
      "name": "OpenBet",
      "type": "event"
    },
    {
      "anonymous": false,
      "inputs": [
        {
          "indexed": true,
          "internalType": "bytes32",
          "name": "role",
          "type": "bytes32"
        },
        {
          "indexed": true,
          "internalType": "bytes32",
          "name": "previousAdminRole",
          "type": "bytes32"
        },
        {
          "indexed": true,
          "internalType": "bytes32",
          "name": "newAdminRole",
          "type": "bytes32"
        }
      ],
      "name": "RoleAdminChanged",
      "type": "event"
    },
    {
      "anonymous": false,
      "inputs": [
        {
          "indexed": true,
          "internalType": "bytes32",
          "name": "role",
          "type": "bytes32"
        },
        {
          "indexed": true,
          "internalType": "address",
          "name": "account",
          "type": "address"
        },
        {
          "indexed": true,
          "internalType": "address",
          "name": "sender",
          "type": "address"
        }
      ],
      "name": "RoleGranted",
      "type": "event"
    },
    {
      "anonymous": false,
      "inputs": [
        {
          "indexed": true,
          "internalType": "bytes32",
          "name": "role",
          "type": "bytes32"
        },
        {
          "indexed": true,
          "internalType": "address",
          "name": "account",
          "type": "address"
        },
        {
          "indexed": true,
          "internalType": "address",
          "name": "sender",
          "type": "address"
        }
      ],
      "name": "RoleRevoked",
      "type": "event"
    },
    {
      "inputs": [],
      "name": "DEFAULT_ADMIN_ROLE",
      "outputs": [
        {
          "internalType": "bytes32",
          "name": "",
          "type": "bytes32"
        }
      ],
      "stateMutability": "view",
      "type": "function"
    },
    {
      "inputs": [],
      "name": "INJECTOR_ROLE",
      "outputs": [
        {
          "internalType": "bytes32",
          "name": "",
          "type": "bytes32"
        }
      ],
      "stateMutability": "view",
      "type": "function"
    },
    {
      "inputs": [],
      "name": "OPERATOR_ROLE",
      "outputs": [
        {
          "internalType": "bytes32",
          "name": "",
          "type": "bytes32"
        }
      ],
      "stateMutability": "view",
      "type": "function"
    },
    {
      "inputs": [
        {
          "internalType": "uint256",
          "name": "",
          "type": "uint256"
        }
      ],
      "name": "bets",
      "outputs": [
        {
          "internalType": "bytes32",
          "name": "code",
          "type": "bytes32"
        },
        {
          "internalType": "uint256",
          "name": "id",
          "type": "uint256"
        },
        {
          "internalType": "string",
          "name": "teamA",
          "type": "string"
        },
        {
          "internalType": "string",
          "name": "teamB",
          "type": "string"
        },
        {
          "internalType": "uint256",
          "name": "startsAt",
          "type": "uint256"
        },
        {
          "internalType": "uint256",
          "name": "endsAt",
          "type": "uint256"
        },
        {
          "internalType": "uint256",
          "name": "pricePerTicket",
          "type": "uint256"
        },
        {
          "internalType": "uint256",
          "name": "prizePerTicket",
          "type": "uint256"
        },
        {
          "internalType": "uint256",
          "name": "commissionPerTicket",
          "type": "uint256"
        },
        {
          "internalType": "uint256",
          "name": "injectedAmount",
          "type": "uint256"
        },
        {
          "internalType": "enum IMoneylineBets.Result",
          "name": "result",
          "type": "uint8"
        },
        {
          "internalType": "enum IMoneylineBets.Status",
          "name": "status",
          "type": "uint8"
        }
      ],
      "stateMutability": "view",
      "type": "function"
    },
    {
      "inputs": [
        {
          "internalType": "uint256",
          "name": "id",
          "type": "uint256"
        }
      ],
      "name": "claimBet",
      "outputs": [],
      "stateMutability": "nonpayable",
      "type": "function"
    },
    {
      "inputs": [
        {
          "internalType": "uint256[]",
          "name": "ids",
          "type": "uint256[]"
        },
        {
          "internalType": "enum IMoneylineBets.Result[]",
          "name": "results",
          "type": "uint8[]"
        }
      ],
      "name": "closeBets",
      "outputs": [],
      "stateMutability": "nonpayable",
      "type": "function"
    },
    {
      "inputs": [
        {
          "internalType": "uint256",
          "name": "id",
          "type": "uint256"
        },
        {
          "internalType": "uint256",
          "name": "fromIdx",
          "type": "uint256"
        },
        {
          "internalType": "uint256",
          "name": "limit",
          "type": "uint256"
        }
      ],
      "name": "finalizeBet",
      "outputs": [],
      "stateMutability": "nonpayable",
      "type": "function"
    },
    {
      "inputs": [
        {
          "internalType": "bytes32",
          "name": "role",
          "type": "bytes32"
        }
      ],
      "name": "getRoleAdmin",
      "outputs": [
        {
          "internalType": "bytes32",
          "name": "",
          "type": "bytes32"
        }
      ],
      "stateMutability": "view",
      "type": "function"
    },
    {
      "inputs": [
        {
          "internalType": "bytes32",
          "name": "role",
          "type": "bytes32"
        },
        {
          "internalType": "address",
          "name": "account",
          "type": "address"
        }
      ],
      "name": "grantRole",
      "outputs": [],
      "stateMutability": "nonpayable",
      "type": "function"
    },
    {
      "inputs": [
        {
          "internalType": "bytes32",
          "name": "role",
          "type": "bytes32"
        },
        {
          "internalType": "address",
          "name": "account",
          "type": "address"
        }
      ],
      "name": "hasRole",
      "outputs": [
        {
          "internalType": "bool",
          "name": "",
          "type": "bool"
        }
      ],
      "stateMutability": "view",
      "type": "function"
    },
    {
      "inputs": [
        {
          "internalType": "uint256",
          "name": "id",
          "type": "uint256"
        }
      ],
      "name": "injectBet",
      "outputs": [],
      "stateMutability": "payable",
      "type": "function"
    },
    {
      "inputs": [],
      "name": "latestBetId",
      "outputs": [
        {
          "internalType": "uint256",
          "name": "",
          "type": "uint256"
        }
      ],
      "stateMutability": "view",
      "type": "function"
    },
    {
      "inputs": [
        {
          "internalType": "uint256",
          "name": "id",
          "type": "uint256"
        },
        {
          "internalType": "enum IMoneylineBets.Result",
          "name": "choice",
          "type": "uint8"
        },
        {
          "internalType": "uint256",
          "name": "ticketCount",
          "type": "uint256"
        }
      ],
      "name": "makeBet",
      "outputs": [],
      "stateMutability": "payable",
      "type": "function"
    },
    {
      "inputs": [
        {
          "components": [
            {
              "internalType": "string",
              "name": "code",
              "type": "string"
            },
            {
              "internalType": "string",
              "name": "teamA",
              "type": "string"
            },
            {
              "internalType": "string",
              "name": "teamB",
              "type": "string"
            },
            {
              "internalType": "uint256",
              "name": "startsAt",
              "type": "uint256"
            },
            {
              "internalType": "uint256",
              "name": "endsAt",
              "type": "uint256"
            },
            {
              "internalType": "uint256",
              "name": "pricePerTicket",
              "type": "uint256"
            },
            {
              "internalType": "uint256",
              "name": "commissionPerTicket",
              "type": "uint256"
            }
          ],
          "internalType": "struct IMoneylineBets.OpenBetRequest[]",
          "name": "requests",
          "type": "tuple[]"
        }
      ],
      "name": "openBets",
      "outputs": [],
      "stateMutability": "nonpayable",
      "type": "function"
    },
    {
      "inputs": [
        {
          "internalType": "bytes32",
          "name": "role",
          "type": "bytes32"
        },
        {
          "internalType": "address",
          "name": "account",
          "type": "address"
        }
      ],
      "name": "renounceRole",
      "outputs": [],
      "stateMutability": "nonpayable",
      "type": "function"
    },
    {
      "inputs": [
        {
          "internalType": "bytes32",
          "name": "role",
          "type": "bytes32"
        },
        {
          "internalType": "address",
          "name": "account",
          "type": "address"
        }
      ],
      "name": "revokeRole",
      "outputs": [],
      "stateMutability": "nonpayable",
      "type": "function"
    },
    {
      "inputs": [
        {
          "internalType": "bytes4",
          "name": "interfaceId",
          "type": "bytes4"
        }
      ],
      "name": "supportsInterface",
      "outputs": [
        {
          "internalType": "bool",
          "name": "",
          "type": "bool"
        }
      ],
      "stateMutability": "view",
      "type": "function"
    },
    {
      "inputs": [],
      "name": "treasury",
      "outputs": [
        {
          "internalType": "address payable",
          "name": "",
          "type": "address"
        }
      ],
      "stateMutability": "view",
      "type": "function"
    },
    {
      "inputs": [
        {
          "internalType": "uint256",
          "name": "fromId",
          "type": "uint256"
        }
      ],
      "name": "viewBets",
      "outputs": [
        {
          "components": [
            {
              "internalType": "bytes32",
              "name": "code",
              "type": "bytes32"
            },
            {
              "internalType": "uint256",
              "name": "id",
              "type": "uint256"
            },
            {
              "internalType": "string",
              "name": "teamA",
              "type": "string"
            },
            {
              "internalType": "string",
              "name": "teamB",
              "type": "string"
            },
            {
              "internalType": "uint256",
              "name": "startsAt",
              "type": "uint256"
            },
            {
              "internalType": "uint256",
              "name": "endsAt",
              "type": "uint256"
            },
            {
              "internalType": "uint256",
              "name": "pricePerTicket",
              "type": "uint256"
            },
            {
              "internalType": "uint256",
              "name": "prizePerTicket",
              "type": "uint256"
            },
            {
              "internalType": "uint256",
              "name": "commissionPerTicket",
              "type": "uint256"
            },
            {
              "internalType": "uint256",
              "name": "injectedAmount",
              "type": "uint256"
            },
            {
              "internalType": "enum IMoneylineBets.Result",
              "name": "result",
              "type": "uint8"
            },
            {
              "internalType": "enum IMoneylineBets.Status",
              "name": "status",
              "type": "uint8"
            },
            {
              "internalType": "address[]",
              "name": "winChoices",
              "type": "address[]"
            },
            {
              "internalType": "uint256[]",
              "name": "winCounts",
              "type": "uint256[]"
            },
            {
              "internalType": "address[]",
              "name": "loseChoices",
              "type": "address[]"
            },
            {
              "internalType": "uint256[]",
              "name": "loseCounts",
              "type": "uint256[]"
            },
            {
              "internalType": "address[]",
              "name": "drawChoices",
              "type": "address[]"
            },
            {
              "internalType": "uint256[]",
              "name": "drawCounts",
              "type": "uint256[]"
            },
            {
              "internalType": "uint256",
              "name": "winAccumulated",
              "type": "uint256"
            },
            {
              "internalType": "uint256",
              "name": "loseAccumulated",
              "type": "uint256"
            },
            {
              "internalType": "uint256",
              "name": "drawAccumulated",
              "type": "uint256"
            }
          ],
          "internalType": "struct IMoneylineBets.BetView[100]",
          "name": "",
          "type": "tuple[100]"
        }
      ],
      "stateMutability": "view",
      "type": "function"
    }
  ],
  "transactionHash": "0x0ed0494275f243f594442bbe8b66412b16c3d90241e15363511959b21cde744b",
  "args": [
    "0x48277469a140826B50E9B35983e7d6D70076D729"
  ],
  "numDeployments": 9,
  "solcInputHash": "18dc00d00a0226aa31d014cac5bca4cf",
  "bytecode": "0x60a06040523480156200001157600080fd5b5060405162002900380380620029008339810160408190526200003491620000f4565b6200004160003362000053565b6001600160a01b031660805262000126565b6000828152602081815260408083206001600160a01b038516845290915290205460ff16620000f0576000828152602081815260408083206001600160a01b03851684529091529020805460ff19166001179055620000af3390565b6001600160a01b0316816001600160a01b0316837f2f8788117e7eff1d82e926ec794901d17c78024a50270940304540a733656f0d60405160405180910390a45b5050565b6000602082840312156200010757600080fd5b81516001600160a01b03811681146200011f57600080fd5b9392505050565b6080516127be6200014260003960006102ae01526127be6000f3fe6080604052600436106101145760003560e01c80634df86c43116100a0578063b5fcb46111610064578063b5fcb4611461033d578063d547741f14610371578063d75808a414610391578063dbfb6f1c146103a4578063f5b541a6146103c457600080fd5b80634df86c431461027c57806361d027b31461029c57806391d14854146102e8578063a217fddf14610308578063aac0e6a21461031d57600080fd5b80632bf840fc116100e75780632bf840fc146101e65780632f2ff15d146101f957806336568abe1461021957806338327d83146102395780633dc296ca1461026657600080fd5b806301ffc9a71461011957806319ea86081461014e57806322af00fa14610170578063248a9ca3146101a8575b600080fd5b34801561012557600080fd5b50610139610134366004611dcf565b6103e6565b60405190151581526020015b60405180910390f35b34801561015a57600080fd5b5061016e610169366004611df9565b61041d565b005b34801561017c57600080fd5b5061019061018b366004611e25565b6106a5565b6040516101459c9b9a99989796959493929190611ecf565b3480156101b457600080fd5b506101d86101c3366004611e25565b60009081526020819052604090206001015490565b604051908152602001610145565b61016e6101f4366004611f71565b610818565b34801561020557600080fd5b5061016e610214366004611fa6565b610b28565b34801561022557600080fd5b5061016e610234366004611fa6565b610b52565b34801561024557600080fd5b50610259610254366004611e25565b610bd0565b6040516101459190612056565b34801561027257600080fd5b506101d860015481565b34801561028857600080fd5b5061016e610297366004611e25565b6110dc565b3480156102a857600080fd5b506102d07f000000000000000000000000000000000000000000000000000000000000000081565b6040516001600160a01b039091168152602001610145565b3480156102f457600080fd5b50610139610303366004611fa6565b61127a565b34801561031457600080fd5b506101d8600081565b34801561032957600080fd5b5061016e610338366004612261565b6112a3565b34801561034957600080fd5b506101d87fa0b8bef85fcf39fcf38553f1845a1aff0453bf1e225f80cc00ec3e5cff9e656481565b34801561037d57600080fd5b5061016e61038c366004611fa6565b61152b565b61016e61039f366004611e25565b611550565b3480156103b057600080fd5b5061016e6103bf3660046122a3565b61164a565b3480156103d057600080fd5b506101d860008051602061276983398151915281565b60006001600160e01b03198216637965db0b60e01b148061041757506301ffc9a760e01b6001600160e01b03198316145b92915050565b600080516020612769833981519152610435816119e9565b600084815260026020819052604090912090600a820154610100900460ff16600381111561046557610465611e8e565b146104a45760405162461bcd60e51b815260206004820152600a602482015269139bdd0818db1bdcd95960b21b60448201526064015b60405180910390fd5b60006104b08486612325565b600a830154909150600b83019060009060ff1660038111156104d4576104d4611e8e565b60038111156104e5576104e5611e8e565b815260208101919091526040016000205481111561054357600a820154600b83019060009060ff16600381111561051e5761051e611e8e565b600381111561052f5761052f611e8e565b815260208101919091526040016000205490505b845b8181101561065c576007830154600a840154600c85019060009060ff16600381111561057357610573611e8e565b600381111561058457610584611e8e565b815260200190815260200160002082815481106105a3576105a3612338565b90600052602060002001546105b8919061234e565b600a840154600e850190600090600b870190829060ff1660038111156105e0576105e0611e8e565b60038111156105f1576105f1611e8e565b8152602001908152602001600020848154811061061057610610612338565b60009182526020808320909101546001600160a01b0316835282019290925260400181208054909190610644908490612325565b9091555081905061065481612365565b915050610545565b50600a8201805461ff0019166103001790556040518190869088907fb3d45df0e9b4fba98cf142be6fa7f8c6506e1c4909d59ead4a95357503b7d83090600090a4505050505050565b6002602081905260009182526040909120805460018201549282018054919392916106cf9061237e565b80601f01602080910402602001604051908101604052809291908181526020018280546106fb9061237e565b80156107485780601f1061071d57610100808354040283529160200191610748565b820191906000526020600020905b81548152906001019060200180831161072b57829003601f168201915b50505050509080600301805461075d9061237e565b80601f01602080910402602001604051908101604052809291908181526020018280546107899061237e565b80156107d65780601f106107ab576101008083540402835291602001916107d6565b820191906000526020600020905b8154815290600101906020018083116107b957829003601f168201915b50505050600483015460058401546006850154600786015460088701546009880154600a90980154969794969395509193909260ff808216916101009004168c565b60008381526002602052604081209083600381111561083957610839611e8e565b036108795760405162461bcd60e51b815260206004820152601060248201526f43616e6e6f74207069636b204e6f6e6560801b604482015260640161049b565b6001600a820154610100900460ff16600381111561089957610899611e8e565b146108d15760405162461bcd60e51b81526020600482015260086024820152672737ba1037b832b760c11b604482015260640161049b565b428160040154111580156108e9575080600501544211155b61092e5760405162461bcd60e51b81526020600482015260166024820152752132ba3a34b733903832b934b7b21034b99037bb32b960511b604482015260640161049b565b3481600601548361093f919061234e565b1461098c5760405162461bcd60e51b815260206004820152601a60248201527f57726f6e6720616d6f756e74206f662065746865722070616964000000000000604482015260640161049b565b80600b0160008460038111156109a4576109a4611e8e565b60038111156109b5576109b5611e8e565b81526020808201929092526040016000908120805460018101825590825291812090910180546001600160a01b03191633179055600c820190846003811115610a0057610a00611e8e565b6003811115610a1157610a11611e8e565b8152602080820192909252604001600090812080546001810182559082529190200182905560088101546006820154610a4a91906123b8565b610a54908361234e565b81600d016000856003811115610a6c57610a6c611e8e565b6003811115610a7d57610a7d611e8e565b81526020019081526020016000206000828254610a9a9190612325565b9091555050600881015415610ae4576008810154610ab8908361234e565b60405133907f0c649579a042e5e10229ef122ece381c2b3ba1f0cb4337ca394673262d6edbe890600090a35b81836003811115610af757610af7611e8e565b60405133907f3d68d79a9de4cecfaa0379aaf807aaf2499d630a0eb3b78d9258ab4b3322d1b490600090a450505050565b600082815260208190526040902060010154610b43816119e9565b610b4d83836119f6565b505050565b6001600160a01b0381163314610bc25760405162461bcd60e51b815260206004820152602f60248201527f416363657373436f6e74726f6c3a2063616e206f6e6c792072656e6f756e636560448201526e103937b632b9903337b91039b2b63360891b606482015260840161049b565b610bcc8282611a7a565b5050565b610bd8611ced565b610be0611ced565b60005b60648110156110d5576000600281610bfb8488612325565b81526020019081526020016000209050604051806102a001604052808260000154815260200182600101548152602001826002018054610c3a9061237e565b80601f0160208091040260200160405190810160405280929190818152602001828054610c669061237e565b8015610cb35780601f10610c8857610100808354040283529160200191610cb3565b820191906000526020600020905b815481529060010190602001808311610c9657829003601f168201915b50505050508152602001826003018054610ccc9061237e565b80601f0160208091040260200160405190810160405280929190818152602001828054610cf89061237e565b8015610d455780601f10610d1a57610100808354040283529160200191610d45565b820191906000526020600020905b815481529060010190602001808311610d2857829003601f168201915b505050918352505060048301546020820152600583015460408201526006830154606082015260078301546080820152600883015460a0820152600983015460c0820152600a83015460e09091019060ff166003811115610da857610da8611e8e565b815260200182600a0160019054906101000a900460ff166003811115610dd057610dd0611e8e565b8152602001600b8301600060018152602001908152602001600020805480602002602001604051908101604052809291908181526020018280548015610e3f57602002820191906000526020600020905b81546001600160a01b03168152600190910190602001808311610e21575b5050509183525050602001600c8301600060018152602001908152602001600020805480602002602001604051908101604052809291908181526020018280548015610eaa57602002820191906000526020600020905b815481526020019060010190808311610e96575b5050509183525050602001600b8301600060038152602001908152602001600020805480602002602001604051908101604052809291908181526020018280548015610f1f57602002820191906000526020600020905b81546001600160a01b03168152600190910190602001808311610f01575b5050509183525050602001600c8301600060038152602001908152602001600020805480602002602001604051908101604052809291908181526020018280548015610f8a57602002820191906000526020600020905b815481526020019060010190808311610f76575b5050509183525050602001600b8301600060028152602001908152602001600020805480602002602001604051908101604052809291908181526020018280548015610fff57602002820191906000526020600020905b81546001600160a01b03168152600190910190602001808311610fe1575b5050509183525050602001600c830160006002815260200190815260200160002080548060200260200160405190810160405280929190818152602001828054801561106a57602002820191906000526020600020905b815481526020019060010190808311611056575b505050918352505060016000908152600d8401602081815260408084205482860152600384528282528084205481860152600284529190529020546060909101528383606481106110bd576110bd612338565b602002015250806110cd81612365565b915050610be3565b5092915050565b60008181526002602052604090206003600a820154610100900460ff16600381111561110a5761110a611e8e565b146111475760405162461bcd60e51b815260206004820152600d60248201526c139bdd08199a5b985b1a5e9959609a1b604482015260640161049b565b336000908152600e820160205260409020546111985760405162461bcd60e51b815260206004820152601060248201526f4e6f7468696e6720746f20636c61696d60801b604482015260640161049b565b336000818152600e8301602052604080822054905190929083908381818185875af1925050503d80600081146111ea576040519150601f19603f3d011682016040523d82523d6000602084013e6111ef565b606091505b50509050806112385760405162461bcd60e51b81526020600482015260156024820152742330b4b632b21032ba3432b9103a3930b739b332b960591b604482015260640161049b565b336000818152600e85016020526040808220829055518492917f4382903e20a147c136bb058450a4653f3a6e2ea25a487ef9b8b6da41e573781a91a350505050565b6000918252602082815260408084206001600160a01b0393909316845291905290205460ff1690565b6000805160206127698339815191526112bb816119e9565b60005b828110156115255760008484838181106112da576112da612338565b90506020028101906112ec91906123cb565b6112f5906124b7565b9050600060016000815461130890612365565b918290555060008181526002602090815260409182902085820151925193945092611334929101612574565b604051602081830303815290604052805190602001206000141580156113855750826040015160405160200161136a9190612574565b60405160208183030381529060405280519060200120600014155b80156113e5575082604001516040516020016113a19190612574565b6040516020818303038152906040528051906020012083602001516040516020016113cc9190612574565b6040516020818303038152906040528051906020012014155b80156113f8575082608001518360600151105b6114365760405162461bcd60e51b815260206004820152600f60248201526e125b9d985b1a59081c995c5d595cdd608a1b604482015260640161049b565b82516040516114489190602001612574565b60408051601f198184030181529190528051602091820120825560018201839055830151600282019061147b90826125cc565b506040830151600382019061149090826125cc565b5060608301516004820181905560808401516005830181905560a08501516006840181905560c0860151600885015560006007850155600a8401805461ffff191661010017905560405190815290919084907f6c8f11fa05ad85e50b002f9796eebbfdab3221dc1fa0b08409a923c0bfe829e69060200160405180910390a4505050808061151d90612365565b9150506112be565b50505050565b600082815260208190526040902060010154611546816119e9565b610b4d8383611a7a565b7fa0b8bef85fcf39fcf38553f1845a1aff0453bf1e225f80cc00ec3e5cff9e656461157a816119e9565b60008281526002602052604090206001600a820154610100900460ff1660038111156115a8576115a8611e8e565b14806115d157506002600a820154610100900460ff1660038111156115cf576115cf611e8e565b145b6116125760405162461bcd60e51b8152602060048201526012602482015271139bdd081bdc195b881bdc8818db1bdcd95960721b604482015260640161049b565b346009820181905560405184907f773ea414ad54cdf17b53ae7dd297e25c5eb23ff5d114c5333dd344ac0763cbab90600090a3505050565b600080516020612769833981519152611662816119e9565b8382146116a85760405162461bcd60e51b8152602060048201526014602482015273092dcecc2d8d2c840d2dce0eae840d8cadccee8d60631b604482015260640161049b565b60005b848110156119e15760008686838181106116c7576116c7612338565b90506020020135905060008585848181106116e4576116e4612338565b90506020020160208101906116f9919061268c565b60008381526002602052604090209091506001600a820154610100900460ff16600381111561172a5761172a611e8e565b146117625760405162461bcd60e51b81526020600482015260086024820152672737ba1037b832b760c11b604482015260640161049b565b6000600a82015460ff16600381111561177d5761177d611e8e565b146117bd5760405162461bcd60e51b815260206004820152601060248201526f43616e6e6f74207069636b204e6f6e6560801b604482015260640161049b565b600a8101805483919060ff191660018360038111156117de576117de611e8e565b0217905550600981015460018360038111156117fc576117fc611e8e565b0361185b5760026000908152600d8301602052604090205461181e9082612325565b9050600d8201600060035b600381111561183a5761183a611e8e565b815260200190815260200160002054816118549190612325565b90506118e0565b600383600381111561186f5761186f611e8e565b036118a05760016000908152600d830160205260409020546118919082612325565b9050600d820160006002611829565b60016000908152600d830160205260409020546118bd9082612325565b60036000908152600d840160205260409020549091506118dd9082612325565b90505b600a820154600b83019060009060ff16600381111561190157611901611e8e565b600381111561191257611912611e8e565b81526020810191909152604001600020541561197b57600a820154600b83019060009060ff16600381111561194957611949611e8e565b600381111561195a5761195a611e8e565b815260208101919091526040016000205461197590826126a7565b60078301555b600a8201805461ff0019166102001790558083600381111561199f5761199f611e8e565b60405186907fcf39dd076fd883ccbcfb18f509f1ec4c1e88685a02cfda542eb16949fa3dd36190600090a45050505080806119d990612365565b9150506116ab565b505050505050565b6119f38133611adf565b50565b611a00828261127a565b610bcc576000828152602081815260408083206001600160a01b03851684529091529020805460ff19166001179055611a363390565b6001600160a01b0316816001600160a01b0316837f2f8788117e7eff1d82e926ec794901d17c78024a50270940304540a733656f0d60405160405180910390a45050565b611a84828261127a565b15610bcc576000828152602081815260408083206001600160a01b0385168085529252808320805460ff1916905551339285917ff6391f5c32d9c69d2a47ea670b442974b53935d1edc7fd64eb21e047a839171b9190a45050565b611ae9828261127a565b610bcc57611af681611b38565b611b01836020611b4a565b604051602001611b129291906126c9565b60408051601f198184030181529082905262461bcd60e51b825261049b9160040161273e565b60606104176001600160a01b03831660145b60606000611b5983600261234e565b611b64906002612325565b67ffffffffffffffff811115611b7c57611b7c6123eb565b6040519080825280601f01601f191660200182016040528015611ba6576020820181803683370190505b509050600360fc1b81600081518110611bc157611bc1612338565b60200101906001600160f81b031916908160001a905350600f60fb1b81600181518110611bf057611bf0612338565b60200101906001600160f81b031916908160001a9053506000611c1484600261234e565b611c1f906001612325565b90505b6001811115611c97576f181899199a1a9b1b9c1cb0b131b232b360811b85600f1660108110611c5357611c53612338565b1a60f81b828281518110611c6957611c69612338565b60200101906001600160f81b031916908160001a90535060049490941c93611c9081612751565b9050611c22565b508315611ce65760405162461bcd60e51b815260206004820181905260248201527f537472696e67733a20686578206c656e67746820696e73756666696369656e74604482015260640161049b565b9392505050565b60405180610c8001604052806064905b611d05611d1b565b815260200190600190039081611cfd5790505090565b604051806102a001604052806000801916815260200160008152602001606081526020016060815260200160008152602001600081526020016000815260200160008152602001600081526020016000815260200160006003811115611d8357611d83611e8e565b8152602001600081526020016060815260200160608152602001606081526020016060815260200160608152602001606081526020016000815260200160008152602001600081525090565b600060208284031215611de157600080fd5b81356001600160e01b031981168114611ce657600080fd5b600080600060608486031215611e0e57600080fd5b505081359360208301359350604090920135919050565b600060208284031215611e3757600080fd5b5035919050565b60005b83811015611e59578181015183820152602001611e41565b50506000910152565b60008151808452611e7a816020860160208601611e3e565b601f01601f19169290920160200192915050565b634e487b7160e01b600052602160045260246000fd5b600481106119f357634e487b7160e01b600052602160045260246000fd5b611ecb81611ea4565b9052565b60006101808e83528d6020840152806040840152611eef8184018e611e62565b90508281036060840152611f03818d611e62565b9150508960808301528860a08301528760c08301528660e08301528561010083015284610120830152611f3584611ea4565b83610140830152611f4583611ea4565b826101608301529d9c50505050505050505050505050565b803560048110611f6c57600080fd5b919050565b600080600060608486031215611f8657600080fd5b83359250611f9660208501611f5d565b9150604084013590509250925092565b60008060408385031215611fb957600080fd5b8235915060208301356001600160a01b0381168114611fd757600080fd5b809150509250929050565b600081518084526020808501945080840160005b8381101561201b5781516001600160a01b031687529582019590820190600101611ff6565b509495945050505050565b600081518084526020808501945080840160005b8381101561201b5781518752958201959082019060010161203a565b6020808252600090610ca0830183820185845b606481101561220957601f1987850301835281516102a081518652868201518787015260408083015182828901526120a383890182611e62565b92505050606080830151878303828901526120be8382611e62565b608085810151908a015260a080860151908a015260c080860151908a015260e080860151908a015261010080860151908a015261012080860151908a0152610140808601519194509250905061211682890182611ec2565b50506101608083015161212b82890182611ec2565b505061018080830151878303828901526121458382611fe2565b925050506101a080830151878303828901526121618382612026565b925050506101c0808301518783038289015261217d8382611fe2565b925050506101e080830151878303828901526121998382612026565b9250505061020080830151878303828901526121b58382611fe2565b9250505061022080830151878303828901526121d18382612026565b61024085810151908a015261026080860151908a01526102809485015194909801939093525050509184019190840190600101612069565b50919695505050505050565b60008083601f84011261222757600080fd5b50813567ffffffffffffffff81111561223f57600080fd5b6020830191508360208260051b850101111561225a57600080fd5b9250929050565b6000806020838503121561227457600080fd5b823567ffffffffffffffff81111561228b57600080fd5b61229785828601612215565b90969095509350505050565b600080600080604085870312156122b957600080fd5b843567ffffffffffffffff808211156122d157600080fd5b6122dd88838901612215565b909650945060208701359150808211156122f657600080fd5b5061230387828801612215565b95989497509550505050565b634e487b7160e01b600052601160045260246000fd5b808201808211156104175761041761230f565b634e487b7160e01b600052603260045260246000fd5b80820281158282048414176104175761041761230f565b6000600182016123775761237761230f565b5060010190565b600181811c9082168061239257607f821691505b6020821081036123b257634e487b7160e01b600052602260045260246000fd5b50919050565b818103818111156104175761041761230f565b6000823560de198336030181126123e157600080fd5b9190910192915050565b634e487b7160e01b600052604160045260246000fd5b60405160e0810167ffffffffffffffff81118282101715612424576124246123eb565b60405290565b600082601f83011261243b57600080fd5b813567ffffffffffffffff80821115612456576124566123eb565b604051601f8301601f19908116603f0116810190828211818310171561247e5761247e6123eb565b8160405283815286602085880101111561249757600080fd5b836020870160208301376000602085830101528094505050505092915050565b600060e082360312156124c957600080fd5b6124d1612401565b823567ffffffffffffffff808211156124e957600080fd5b6124f53683870161242a565b8352602085013591508082111561250b57600080fd5b6125173683870161242a565b6020840152604085013591508082111561253057600080fd5b5061253d3682860161242a565b604083015250606083013560608201526080830135608082015260a083013560a082015260c083013560c082015280915050919050565b600082516123e1818460208701611e3e565b601f821115610b4d57600081815260208120601f850160051c810160208610156125ad5750805b601f850160051c820191505b818110156119e1578281556001016125b9565b815167ffffffffffffffff8111156125e6576125e66123eb565b6125fa816125f4845461237e565b84612586565b602080601f83116001811461262f57600084156126175750858301515b600019600386901b1c1916600185901b1785556119e1565b600085815260208120601f198616915b8281101561265e5788860151825594840194600190910190840161263f565b508582101561267c5787850151600019600388901b60f8161c191681555b5050505050600190811b01905550565b60006020828403121561269e57600080fd5b611ce682611f5d565b6000826126c457634e487b7160e01b600052601260045260246000fd5b500490565b7f416363657373436f6e74726f6c3a206163636f756e7420000000000000000000815260008351612701816017850160208801611e3e565b7001034b99036b4b9b9b4b733903937b6329607d1b6017918401918201528351612732816028840160208801611e3e565b01602801949350505050565b602081526000611ce66020830184611e62565b6000816127605761276061230f565b50600019019056fe97667070c54ef182b0f5858b034beac1b6f3089aa2d3188bb1e8929f4fa9b929a2646970667358221220e1180a91ba0655294ce0ee2bad01e7f3a86a2537496040bd2f4641ada4b3338164736f6c63430008110033",
  "devdoc": {
    "kind": "dev",
    "methods": {
      "getRoleAdmin(bytes32)": {
        "details": "Returns the admin role that controls `role`. See {grantRole} and {revokeRole}. To change a role's admin, use {_setRoleAdmin}."
      },
      "grantRole(bytes32,address)": {
        "details": "Grants `role` to `account`. If `account` had not been already granted `role`, emits a {RoleGranted} event. Requirements: - the caller must have ``role``'s admin role. May emit a {RoleGranted} event."
      },
      "hasRole(bytes32,address)": {
        "details": "Returns `true` if `account` has been granted `role`."
      },
      "renounceRole(bytes32,address)": {
        "details": "Revokes `role` from the calling account. Roles are often managed via {grantRole} and {revokeRole}: this function's purpose is to provide a mechanism for accounts to lose their privileges if they are compromised (such as when a trusted device is misplaced). If the calling account had been revoked `role`, emits a {RoleRevoked} event. Requirements: - the caller must be `account`. May emit a {RoleRevoked} event."
      },
      "revokeRole(bytes32,address)": {
        "details": "Revokes `role` from `account`. If `account` had been granted `role`, emits a {RoleRevoked} event. Requirements: - the caller must have ``role``'s admin role. May emit a {RoleRevoked} event."
      },
      "supportsInterface(bytes4)": {
        "details": "See {IERC165-supportsInterface}."
      }
    },
    "version": 1
  },
  "userdoc": {
    "kind": "user",
    "methods": {},
    "version": 1
  },
  "storageLayout": {
    "storage": [
      {
        "astId": 24,
        "contract": "contracts/MoneylineBets/MoneylineBets.sol:MoneylineBets",
        "label": "_roles",
        "offset": 0,
        "slot": "0",
        "type": "t_mapping(t_bytes32,t_struct(RoleData)19_storage)"
      },
      {
        "astId": 1691,
        "contract": "contracts/MoneylineBets/MoneylineBets.sol:MoneylineBets",
        "label": "latestBetId",
        "offset": 0,
        "slot": "1",
        "type": "t_uint256"
      },
      {
        "astId": 1696,
        "contract": "contracts/MoneylineBets/MoneylineBets.sol:MoneylineBets",
        "label": "bets",
        "offset": 0,
        "slot": "2",
        "type": "t_mapping(t_uint256,t_struct(Bet)1546_storage)"
      }
    ],
    "types": {
      "t_address": {
        "encoding": "inplace",
        "label": "address",
        "numberOfBytes": "20"
      },
      "t_array(t_address)dyn_storage": {
        "base": "t_address",
        "encoding": "dynamic_array",
        "label": "address[]",
        "numberOfBytes": "32"
      },
      "t_array(t_uint256)dyn_storage": {
        "base": "t_uint256",
        "encoding": "dynamic_array",
        "label": "uint256[]",
        "numberOfBytes": "32"
      },
      "t_bool": {
        "encoding": "inplace",
        "label": "bool",
        "numberOfBytes": "1"
      },
      "t_bytes32": {
        "encoding": "inplace",
        "label": "bytes32",
        "numberOfBytes": "32"
      },
      "t_enum(Result)1493": {
        "encoding": "inplace",
        "label": "enum IMoneylineBets.Result",
        "numberOfBytes": "1"
      },
      "t_enum(Status)1498": {
        "encoding": "inplace",
        "label": "enum IMoneylineBets.Status",
        "numberOfBytes": "1"
      },
      "t_mapping(t_address,t_bool)": {
        "encoding": "mapping",
        "key": "t_address",
        "label": "mapping(address => bool)",
        "numberOfBytes": "32",
        "value": "t_bool"
      },
      "t_mapping(t_address,t_uint256)": {
        "encoding": "mapping",
        "key": "t_address",
        "label": "mapping(address => uint256)",
        "numberOfBytes": "32",
        "value": "t_uint256"
      },
      "t_mapping(t_bytes32,t_struct(RoleData)19_storage)": {
        "encoding": "mapping",
        "key": "t_bytes32",
        "label": "mapping(bytes32 => struct AccessControl.RoleData)",
        "numberOfBytes": "32",
        "value": "t_struct(RoleData)19_storage"
      },
      "t_mapping(t_enum(Result)1493,t_array(t_address)dyn_storage)": {
        "encoding": "mapping",
        "key": "t_enum(Result)1493",
        "label": "mapping(enum IMoneylineBets.Result => address[])",
        "numberOfBytes": "32",
        "value": "t_array(t_address)dyn_storage"
      },
      "t_mapping(t_enum(Result)1493,t_array(t_uint256)dyn_storage)": {
        "encoding": "mapping",
        "key": "t_enum(Result)1493",
        "label": "mapping(enum IMoneylineBets.Result => uint256[])",
        "numberOfBytes": "32",
        "value": "t_array(t_uint256)dyn_storage"
      },
      "t_mapping(t_enum(Result)1493,t_uint256)": {
        "encoding": "mapping",
        "key": "t_enum(Result)1493",
        "label": "mapping(enum IMoneylineBets.Result => uint256)",
        "numberOfBytes": "32",
        "value": "t_uint256"
      },
      "t_mapping(t_uint256,t_struct(Bet)1546_storage)": {
        "encoding": "mapping",
        "key": "t_uint256",
        "label": "mapping(uint256 => struct IMoneylineBets.Bet)",
        "numberOfBytes": "32",
        "value": "t_struct(Bet)1546_storage"
      },
      "t_string_storage": {
        "encoding": "bytes",
        "label": "string",
        "numberOfBytes": "32"
      },
      "t_struct(Bet)1546_storage": {
        "encoding": "inplace",
        "label": "struct IMoneylineBets.Bet",
        "members": [
          {
            "astId": 1500,
            "contract": "contracts/MoneylineBets/MoneylineBets.sol:MoneylineBets",
            "label": "code",
            "offset": 0,
            "slot": "0",
            "type": "t_bytes32"
          },
          {
            "astId": 1502,
            "contract": "contracts/MoneylineBets/MoneylineBets.sol:MoneylineBets",
            "label": "id",
            "offset": 0,
            "slot": "1",
            "type": "t_uint256"
          },
          {
            "astId": 1504,
            "contract": "contracts/MoneylineBets/MoneylineBets.sol:MoneylineBets",
            "label": "teamA",
            "offset": 0,
            "slot": "2",
            "type": "t_string_storage"
          },
          {
            "astId": 1506,
            "contract": "contracts/MoneylineBets/MoneylineBets.sol:MoneylineBets",
            "label": "teamB",
            "offset": 0,
            "slot": "3",
            "type": "t_string_storage"
          },
          {
            "astId": 1508,
            "contract": "contracts/MoneylineBets/MoneylineBets.sol:MoneylineBets",
            "label": "startsAt",
            "offset": 0,
            "slot": "4",
            "type": "t_uint256"
          },
          {
            "astId": 1510,
            "contract": "contracts/MoneylineBets/MoneylineBets.sol:MoneylineBets",
            "label": "endsAt",
            "offset": 0,
            "slot": "5",
            "type": "t_uint256"
          },
          {
            "astId": 1512,
            "contract": "contracts/MoneylineBets/MoneylineBets.sol:MoneylineBets",
            "label": "pricePerTicket",
            "offset": 0,
            "slot": "6",
            "type": "t_uint256"
          },
          {
            "astId": 1514,
            "contract": "contracts/MoneylineBets/MoneylineBets.sol:MoneylineBets",
            "label": "prizePerTicket",
            "offset": 0,
            "slot": "7",
            "type": "t_uint256"
          },
          {
            "astId": 1516,
            "contract": "contracts/MoneylineBets/MoneylineBets.sol:MoneylineBets",
            "label": "commissionPerTicket",
            "offset": 0,
            "slot": "8",
            "type": "t_uint256"
          },
          {
            "astId": 1518,
            "contract": "contracts/MoneylineBets/MoneylineBets.sol:MoneylineBets",
            "label": "injectedAmount",
            "offset": 0,
            "slot": "9",
            "type": "t_uint256"
          },
          {
            "astId": 1521,
            "contract": "contracts/MoneylineBets/MoneylineBets.sol:MoneylineBets",
            "label": "result",
            "offset": 0,
            "slot": "10",
            "type": "t_enum(Result)1493"
          },
          {
            "astId": 1524,
            "contract": "contracts/MoneylineBets/MoneylineBets.sol:MoneylineBets",
            "label": "status",
            "offset": 1,
            "slot": "10",
            "type": "t_enum(Status)1498"
          },
          {
            "astId": 1530,
            "contract": "contracts/MoneylineBets/MoneylineBets.sol:MoneylineBets",
            "label": "choices",
            "offset": 0,
            "slot": "11",
            "type": "t_mapping(t_enum(Result)1493,t_array(t_address)dyn_storage)"
          },
          {
            "astId": 1536,
            "contract": "contracts/MoneylineBets/MoneylineBets.sol:MoneylineBets",
            "label": "counts",
            "offset": 0,
            "slot": "12",
            "type": "t_mapping(t_enum(Result)1493,t_array(t_uint256)dyn_storage)"
          },
          {
            "astId": 1541,
            "contract": "contracts/MoneylineBets/MoneylineBets.sol:MoneylineBets",
            "label": "accumulated",
            "offset": 0,
            "slot": "13",
            "type": "t_mapping(t_enum(Result)1493,t_uint256)"
          },
          {
            "astId": 1545,
            "contract": "contracts/MoneylineBets/MoneylineBets.sol:MoneylineBets",
            "label": "claimable",
            "offset": 0,
            "slot": "14",
            "type": "t_mapping(t_address,t_uint256)"
          }
        ],
        "numberOfBytes": "480"
      },
      "t_struct(RoleData)19_storage": {
        "encoding": "inplace",
        "label": "struct AccessControl.RoleData",
        "members": [
          {
            "astId": 16,
            "contract": "contracts/MoneylineBets/MoneylineBets.sol:MoneylineBets",
            "label": "members",
            "offset": 0,
            "slot": "0",
            "type": "t_mapping(t_address,t_bool)"
          },
          {
            "astId": 18,
            "contract": "contracts/MoneylineBets/MoneylineBets.sol:MoneylineBets",
            "label": "adminRole",
            "offset": 0,
            "slot": "1",
            "type": "t_bytes32"
          }
        ],
        "numberOfBytes": "64"
      },
      "t_uint256": {
        "encoding": "inplace",
        "label": "uint256",
        "numberOfBytes": "32"
      }
    }
  }
}