{
  "address": "0xF6986F368fD2295cD982fD10A0ea3638468c9E1d",
  "abi": [
    {
      "inputs": [
        {
          "internalType": "address payable",
          "name": "_treasury",
          "type": "address"
        }
      ],
      "stateMutability": "nonpayable",
      "type": "constructor"
    },
    {
      "anonymous": false,
      "inputs": [
        {
          "indexed": true,
          "internalType": "address",
          "name": "from",
          "type": "address"
        },
        {
          "indexed": true,
          "internalType": "uint256",
          "name": "amount",
          "type": "uint256"
        }
      ],
      "name": "ClaimBet",
      "type": "event"
    },
    {
      "anonymous": false,
      "inputs": [
        {
          "indexed": true,
          "internalType": "uint256",
          "name": "id",
          "type": "uint256"
        },
        {
          "indexed": true,
          "internalType": "enum IMoneylineBets.Result",
          "name": "result",
          "type": "uint8"
        },
        {
          "indexed": true,
          "internalType": "uint256",
          "name": "prizePerTicket",
          "type": "uint256"
        }
      ],
      "name": "CloseBet",
      "type": "event"
    },
    {
      "anonymous": false,
      "inputs": [
        {
          "indexed": true,
          "internalType": "uint256",
          "name": "id",
          "type": "uint256"
        },
        {
          "indexed": true,
          "internalType": "uint256",
          "name": "commissionAmount",
          "type": "uint256"
        }
      ],
      "name": "CommissionPayment",
      "type": "event"
    },
    {
      "anonymous": false,
      "inputs": [
        {
          "indexed": true,
          "internalType": "uint256",
          "name": "id",
          "type": "uint256"
        },
        {
          "indexed": true,
          "internalType": "uint256",
          "name": "fromIdx",
          "type": "uint256"
        },
        {
          "indexed": true,
          "internalType": "uint256",
          "name": "toIdx",
          "type": "uint256"
        }
      ],
      "name": "FinalizeBet",
      "type": "event"
    },
    {
      "anonymous": false,
      "inputs": [
        {
          "indexed": true,
          "internalType": "uint256",
          "name": "id",
          "type": "uint256"
        },
        {
          "indexed": true,
          "internalType": "uint256",
          "name": "amount",
          "type": "uint256"
        }
      ],
      "name": "InjectBet",
      "type": "event"
    },
    {
      "anonymous": false,
      "inputs": [
        {
          "indexed": true,
          "internalType": "uint256",
          "name": "id",
          "type": "uint256"
        },
        {
          "indexed": false,
          "internalType": "enum IMoneylineBets.Result",
          "name": "choice",
          "type": "uint8"
        },
        {
          "indexed": true,
          "internalType": "uint256",
          "name": "fromIdx",
          "type": "uint256"
        },
        {
          "indexed": true,
          "internalType": "uint256",
          "name": "toIdx",
          "type": "uint256"
        }
      ],
      "name": "InvalidateBet",
      "type": "event"
    },
    {
      "anonymous": false,
      "inputs": [
        {
          "indexed": true,
          "internalType": "address",
          "name": "from",
          "type": "address"
        },
        {
          "indexed": true,
          "internalType": "enum IMoneylineBets.Result",
          "name": "choice",
          "type": "uint8"
        },
        {
          "indexed": true,
          "internalType": "uint256",
          "name": "ticketCount",
          "type": "uint256"
        }
      ],
      "name": "MakeBet",
      "type": "event"
    },
    {
      "anonymous": false,
      "inputs": [
        {
          "indexed": true,
          "internalType": "uint256",
          "name": "id",
          "type": "uint256"
        },
        {
          "indexed": true,
          "internalType": "uint256",
          "name": "startsAt",
          "type": "uint256"
        },
        {
          "indexed": true,
          "internalType": "uint256",
          "name": "endsAt",
          "type": "uint256"
        },
        {
          "indexed": false,
          "internalType": "uint256",
          "name": "pricePerTicket",
          "type": "uint256"
        }
      ],
      "name": "OpenBet",
      "type": "event"
    },
    {
      "anonymous": false,
      "inputs": [
        {
          "indexed": true,
          "internalType": "bytes32",
          "name": "role",
          "type": "bytes32"
        },
        {
          "indexed": true,
          "internalType": "bytes32",
          "name": "previousAdminRole",
          "type": "bytes32"
        },
        {
          "indexed": true,
          "internalType": "bytes32",
          "name": "newAdminRole",
          "type": "bytes32"
        }
      ],
      "name": "RoleAdminChanged",
      "type": "event"
    },
    {
      "anonymous": false,
      "inputs": [
        {
          "indexed": true,
          "internalType": "bytes32",
          "name": "role",
          "type": "bytes32"
        },
        {
          "indexed": true,
          "internalType": "address",
          "name": "account",
          "type": "address"
        },
        {
          "indexed": true,
          "internalType": "address",
          "name": "sender",
          "type": "address"
        }
      ],
      "name": "RoleGranted",
      "type": "event"
    },
    {
      "anonymous": false,
      "inputs": [
        {
          "indexed": true,
          "internalType": "bytes32",
          "name": "role",
          "type": "bytes32"
        },
        {
          "indexed": true,
          "internalType": "address",
          "name": "account",
          "type": "address"
        },
        {
          "indexed": true,
          "internalType": "address",
          "name": "sender",
          "type": "address"
        }
      ],
      "name": "RoleRevoked",
      "type": "event"
    },
    {
      "inputs": [],
      "name": "DEFAULT_ADMIN_ROLE",
      "outputs": [
        {
          "internalType": "bytes32",
          "name": "",
          "type": "bytes32"
        }
      ],
      "stateMutability": "view",
      "type": "function"
    },
    {
      "inputs": [],
      "name": "INJECTOR_ROLE",
      "outputs": [
        {
          "internalType": "bytes32",
          "name": "",
          "type": "bytes32"
        }
      ],
      "stateMutability": "view",
      "type": "function"
    },
    {
      "inputs": [],
      "name": "OPERATOR_ROLE",
      "outputs": [
        {
          "internalType": "bytes32",
          "name": "",
          "type": "bytes32"
        }
      ],
      "stateMutability": "view",
      "type": "function"
    },
    {
      "inputs": [
        {
          "internalType": "uint256",
          "name": "",
          "type": "uint256"
        }
      ],
      "name": "bets",
      "outputs": [
        {
          "internalType": "bytes32",
          "name": "code",
          "type": "bytes32"
        },
        {
          "internalType": "uint256",
          "name": "id",
          "type": "uint256"
        },
        {
          "internalType": "string",
          "name": "teamA",
          "type": "string"
        },
        {
          "internalType": "string",
          "name": "teamB",
          "type": "string"
        },
        {
          "internalType": "uint256",
          "name": "startsAt",
          "type": "uint256"
        },
        {
          "internalType": "uint256",
          "name": "endsAt",
          "type": "uint256"
        },
        {
          "internalType": "uint256",
          "name": "pricePerTicket",
          "type": "uint256"
        },
        {
          "internalType": "uint256",
          "name": "prizePerTicket",
          "type": "uint256"
        },
        {
          "internalType": "uint256",
          "name": "commissionPerTicket",
          "type": "uint256"
        },
        {
          "internalType": "uint256",
          "name": "injectedAmount",
          "type": "uint256"
        },
        {
          "internalType": "uint256",
          "name": "treasuryAmount",
          "type": "uint256"
        },
        {
          "internalType": "enum IMoneylineBets.Result",
          "name": "result",
          "type": "uint8"
        },
        {
          "internalType": "enum IMoneylineBets.Status",
          "name": "status",
          "type": "uint8"
        }
      ],
      "stateMutability": "view",
      "type": "function"
    },
    {
      "inputs": [
        {
          "internalType": "uint256",
          "name": "id",
          "type": "uint256"
        }
      ],
      "name": "claimBet",
      "outputs": [],
      "stateMutability": "nonpayable",
      "type": "function"
    },
    {
      "inputs": [
        {
          "internalType": "uint256[]",
          "name": "ids",
          "type": "uint256[]"
        },
        {
          "internalType": "enum IMoneylineBets.Result[]",
          "name": "results",
          "type": "uint8[]"
        }
      ],
      "name": "closeBets",
      "outputs": [],
      "stateMutability": "nonpayable",
      "type": "function"
    },
    {
      "inputs": [
        {
          "internalType": "uint256",
          "name": "id",
          "type": "uint256"
        },
        {
          "internalType": "uint256",
          "name": "fromIdx",
          "type": "uint256"
        },
        {
          "internalType": "uint256",
          "name": "limit",
          "type": "uint256"
        },
        {
          "internalType": "bool",
          "name": "isLast",
          "type": "bool"
        }
      ],
      "name": "finalizeBet",
      "outputs": [],
      "stateMutability": "nonpayable",
      "type": "function"
    },
    {
      "inputs": [
        {
          "internalType": "bytes32",
          "name": "role",
          "type": "bytes32"
        }
      ],
      "name": "getRoleAdmin",
      "outputs": [
        {
          "internalType": "bytes32",
          "name": "",
          "type": "bytes32"
        }
      ],
      "stateMutability": "view",
      "type": "function"
    },
    {
      "inputs": [
        {
          "internalType": "bytes32",
          "name": "role",
          "type": "bytes32"
        },
        {
          "internalType": "address",
          "name": "account",
          "type": "address"
        }
      ],
      "name": "grantRole",
      "outputs": [],
      "stateMutability": "nonpayable",
      "type": "function"
    },
    {
      "inputs": [
        {
          "internalType": "bytes32",
          "name": "role",
          "type": "bytes32"
        },
        {
          "internalType": "address",
          "name": "account",
          "type": "address"
        }
      ],
      "name": "hasRole",
      "outputs": [
        {
          "internalType": "bool",
          "name": "",
          "type": "bool"
        }
      ],
      "stateMutability": "view",
      "type": "function"
    },
    {
      "inputs": [
        {
          "internalType": "uint256",
          "name": "id",
          "type": "uint256"
        }
      ],
      "name": "injectBet",
      "outputs": [],
      "stateMutability": "payable",
      "type": "function"
    },
    {
      "inputs": [
        {
          "internalType": "uint256",
          "name": "id",
          "type": "uint256"
        },
        {
          "internalType": "enum IMoneylineBets.Result",
          "name": "choice",
          "type": "uint8"
        },
        {
          "internalType": "uint256",
          "name": "fromIdx",
          "type": "uint256"
        },
        {
          "internalType": "uint256",
          "name": "limit",
          "type": "uint256"
        },
        {
          "internalType": "bool",
          "name": "isLast",
          "type": "bool"
        }
      ],
      "name": "invalidateBet",
      "outputs": [],
      "stateMutability": "nonpayable",
      "type": "function"
    },
    {
      "inputs": [],
      "name": "latestBetId",
      "outputs": [
        {
          "internalType": "uint256",
          "name": "",
          "type": "uint256"
        }
      ],
      "stateMutability": "view",
      "type": "function"
    },
    {
      "inputs": [
        {
          "internalType": "uint256",
          "name": "id",
          "type": "uint256"
        },
        {
          "internalType": "enum IMoneylineBets.Result",
          "name": "choice",
          "type": "uint8"
        },
        {
          "internalType": "uint256",
          "name": "ticketCount",
          "type": "uint256"
        }
      ],
      "name": "makeBet",
      "outputs": [],
      "stateMutability": "payable",
      "type": "function"
    },
    {
      "inputs": [
        {
          "components": [
            {
              "internalType": "string",
              "name": "code",
              "type": "string"
            },
            {
              "internalType": "string",
              "name": "teamA",
              "type": "string"
            },
            {
              "internalType": "string",
              "name": "teamB",
              "type": "string"
            },
            {
              "internalType": "uint256",
              "name": "startsAt",
              "type": "uint256"
            },
            {
              "internalType": "uint256",
              "name": "endsAt",
              "type": "uint256"
            },
            {
              "internalType": "uint256",
              "name": "pricePerTicket",
              "type": "uint256"
            },
            {
              "internalType": "uint256",
              "name": "commissionPerTicket",
              "type": "uint256"
            }
          ],
          "internalType": "struct IMoneylineBets.OpenBetRequest[]",
          "name": "requests",
          "type": "tuple[]"
        }
      ],
      "name": "openBets",
      "outputs": [
        {
          "internalType": "uint256",
          "name": "",
          "type": "uint256"
        }
      ],
      "stateMutability": "nonpayable",
      "type": "function"
    },
    {
      "inputs": [
        {
          "internalType": "bytes32",
          "name": "role",
          "type": "bytes32"
        },
        {
          "internalType": "address",
          "name": "account",
          "type": "address"
        }
      ],
      "name": "renounceRole",
      "outputs": [],
      "stateMutability": "nonpayable",
      "type": "function"
    },
    {
      "inputs": [
        {
          "internalType": "bytes32",
          "name": "role",
          "type": "bytes32"
        },
        {
          "internalType": "address",
          "name": "account",
          "type": "address"
        }
      ],
      "name": "revokeRole",
      "outputs": [],
      "stateMutability": "nonpayable",
      "type": "function"
    },
    {
      "inputs": [
        {
          "internalType": "uint256",
          "name": "id",
          "type": "uint256"
        }
      ],
      "name": "settleTreasury",
      "outputs": [],
      "stateMutability": "nonpayable",
      "type": "function"
    },
    {
      "inputs": [
        {
          "internalType": "bytes4",
          "name": "interfaceId",
          "type": "bytes4"
        }
      ],
      "name": "supportsInterface",
      "outputs": [
        {
          "internalType": "bool",
          "name": "",
          "type": "bool"
        }
      ],
      "stateMutability": "view",
      "type": "function"
    },
    {
      "inputs": [],
      "name": "treasury",
      "outputs": [
        {
          "internalType": "address payable",
          "name": "",
          "type": "address"
        }
      ],
      "stateMutability": "view",
      "type": "function"
    },
    {
      "inputs": [
        {
          "internalType": "uint256",
          "name": "id",
          "type": "uint256"
        },
        {
          "internalType": "address",
          "name": "viewer",
          "type": "address"
        }
      ],
      "name": "viewBet",
      "outputs": [
        {
          "components": [
            {
              "internalType": "bytes32",
              "name": "code",
              "type": "bytes32"
            },
            {
              "internalType": "uint256",
              "name": "id",
              "type": "uint256"
            },
            {
              "internalType": "string",
              "name": "teamA",
              "type": "string"
            },
            {
              "internalType": "string",
              "name": "teamB",
              "type": "string"
            },
            {
              "internalType": "uint256",
              "name": "startsAt",
              "type": "uint256"
            },
            {
              "internalType": "uint256",
              "name": "endsAt",
              "type": "uint256"
            },
            {
              "internalType": "uint256",
              "name": "pricePerTicket",
              "type": "uint256"
            },
            {
              "internalType": "uint256",
              "name": "prizePerTicket",
              "type": "uint256"
            },
            {
              "internalType": "uint256",
              "name": "commissionPerTicket",
              "type": "uint256"
            },
            {
              "internalType": "uint256",
              "name": "injectedAmount",
              "type": "uint256"
            },
            {
              "internalType": "uint256",
              "name": "treasuryAmount",
              "type": "uint256"
            },
            {
              "internalType": "enum IMoneylineBets.Result",
              "name": "result",
              "type": "uint8"
            },
            {
              "internalType": "enum IMoneylineBets.Status",
              "name": "status",
              "type": "uint8"
            },
            {
              "internalType": "address[]",
              "name": "winChoices",
              "type": "address[]"
            },
            {
              "internalType": "uint256[]",
              "name": "winTicketCounts",
              "type": "uint256[]"
            },
            {
              "internalType": "address[]",
              "name": "loseChoices",
              "type": "address[]"
            },
            {
              "internalType": "uint256[]",
              "name": "loseTicketCounts",
              "type": "uint256[]"
            },
            {
              "internalType": "address[]",
              "name": "drawChoices",
              "type": "address[]"
            },
            {
              "internalType": "uint256[]",
              "name": "drawTicketCounts",
              "type": "uint256[]"
            },
            {
              "internalType": "uint256",
              "name": "winTotalTicketCount",
              "type": "uint256"
            },
            {
              "internalType": "uint256",
              "name": "drawTotalTicketCount",
              "type": "uint256"
            },
            {
              "internalType": "uint256",
              "name": "loseTotalTicketCount",
              "type": "uint256"
            },
            {
              "internalType": "uint256",
              "name": "winTotalSize",
              "type": "uint256"
            },
            {
              "internalType": "uint256",
              "name": "loseTotalSize",
              "type": "uint256"
            },
            {
              "internalType": "uint256",
              "name": "drawTotalSize",
              "type": "uint256"
            },
            {
              "internalType": "uint256",
              "name": "claimable",
              "type": "uint256"
            }
          ],
          "internalType": "struct IMoneylineBets.BetView",
          "name": "",
          "type": "tuple"
        }
      ],
      "stateMutability": "view",
      "type": "function"
    },
    {
      "inputs": [
        {
          "internalType": "uint256",
          "name": "fromId",
          "type": "uint256"
        },
        {
          "internalType": "address",
          "name": "viewer",
          "type": "address"
        }
      ],
      "name": "viewBets",
      "outputs": [
        {
          "components": [
            {
              "internalType": "bytes32",
              "name": "code",
              "type": "bytes32"
            },
            {
              "internalType": "uint256",
              "name": "id",
              "type": "uint256"
            },
            {
              "internalType": "string",
              "name": "teamA",
              "type": "string"
            },
            {
              "internalType": "string",
              "name": "teamB",
              "type": "string"
            },
            {
              "internalType": "uint256",
              "name": "startsAt",
              "type": "uint256"
            },
            {
              "internalType": "uint256",
              "name": "endsAt",
              "type": "uint256"
            },
            {
              "internalType": "uint256",
              "name": "pricePerTicket",
              "type": "uint256"
            },
            {
              "internalType": "uint256",
              "name": "prizePerTicket",
              "type": "uint256"
            },
            {
              "internalType": "uint256",
              "name": "commissionPerTicket",
              "type": "uint256"
            },
            {
              "internalType": "uint256",
              "name": "injectedAmount",
              "type": "uint256"
            },
            {
              "internalType": "uint256",
              "name": "treasuryAmount",
              "type": "uint256"
            },
            {
              "internalType": "enum IMoneylineBets.Result",
              "name": "result",
              "type": "uint8"
            },
            {
              "internalType": "enum IMoneylineBets.Status",
              "name": "status",
              "type": "uint8"
            },
            {
              "internalType": "address[]",
              "name": "winChoices",
              "type": "address[]"
            },
            {
              "internalType": "uint256[]",
              "name": "winTicketCounts",
              "type": "uint256[]"
            },
            {
              "internalType": "address[]",
              "name": "loseChoices",
              "type": "address[]"
            },
            {
              "internalType": "uint256[]",
              "name": "loseTicketCounts",
              "type": "uint256[]"
            },
            {
              "internalType": "address[]",
              "name": "drawChoices",
              "type": "address[]"
            },
            {
              "internalType": "uint256[]",
              "name": "drawTicketCounts",
              "type": "uint256[]"
            },
            {
              "internalType": "uint256",
              "name": "winTotalTicketCount",
              "type": "uint256"
            },
            {
              "internalType": "uint256",
              "name": "drawTotalTicketCount",
              "type": "uint256"
            },
            {
              "internalType": "uint256",
              "name": "loseTotalTicketCount",
              "type": "uint256"
            },
            {
              "internalType": "uint256",
              "name": "winTotalSize",
              "type": "uint256"
            },
            {
              "internalType": "uint256",
              "name": "loseTotalSize",
              "type": "uint256"
            },
            {
              "internalType": "uint256",
              "name": "drawTotalSize",
              "type": "uint256"
            },
            {
              "internalType": "uint256",
              "name": "claimable",
              "type": "uint256"
            }
          ],
          "internalType": "struct IMoneylineBets.BetView[100]",
          "name": "",
          "type": "tuple[100]"
        }
      ],
      "stateMutability": "view",
      "type": "function"
    }
  ],
  "transactionHash": "0x9910f91a92d0bab0b5e304483a2b084409792051f4b33081b538cbb4c37cc1cf",
  "args": [
    "0x48277469a140826B50E9B35983e7d6D70076D729"
  ],
  "numDeployments": 16,
  "solcInputHash": "9e7cfe4cb12951faffaea339a384ea90",
  "bytecode": "0x60a06040523480156200001157600080fd5b50604051620030cf380380620030cf8339810160408190526200003491620000f4565b6200004160003362000053565b6001600160a01b031660805262000126565b6000828152602081815260408083206001600160a01b038516845290915290205460ff16620000f0576000828152602081815260408083206001600160a01b03851684529091529020805460ff19166001179055620000af3390565b6001600160a01b0316816001600160a01b0316837f2f8788117e7eff1d82e926ec794901d17c78024a50270940304540a733656f0d60405160405180910390a45b5050565b6000602082840312156200010757600080fd5b81516001600160a01b03811681146200011f57600080fd5b9392505050565b608051612f8662000149600039600081816102a30152611aa00152612f866000f3fe6080604052600436106101355760003560e01c8063a217fddf116100ab578063b5fcb4611161006f578063b5fcb461146103ac578063bab741c5146103e0578063d547741f14610400578063d75808a414610420578063dbfb6f1c14610433578063f5b541a61461045357600080fd5b8063a217fddf146102fd578063a596a62614610312578063a65b07251461033f578063aac0e6a21461036c578063b0c11c8c1461038c57600080fd5b80633362a409116100fd5780633362a4091461021b57806336568abe1461023b5780633dc296ca1461025b5780634df86c431461027157806361d027b31461029157806391d14854146102dd57600080fd5b806301ffc9a71461013a57806322af00fa1461016f578063248a9ca3146101a85780632bf840fc146101e65780632f2ff15d146101fb575b600080fd5b34801561014657600080fd5b5061015a6101553660046124a5565b610475565b60405190151581526020015b60405180910390f35b34801561017b57600080fd5b5061018f61018a3660046124cf565b6104ac565b6040516101669d9c9b9a99989796959493929190612579565b3480156101b457600080fd5b506101d86101c33660046124cf565b60009081526020819052604090206001015490565b604051908152602001610166565b6101f96101f4366004612623565b610626565b005b34801561020757600080fd5b506101f961021636600461266f565b61090d565b34801561022757600080fd5b506101f96102363660046126ab565b610937565b34801561024757600080fd5b506101f961025636600461266f565b610bf3565b34801561026757600080fd5b506101d860015481565b34801561027d57600080fd5b506101f961028c3660046124cf565b610c71565b34801561029d57600080fd5b506102c57f000000000000000000000000000000000000000000000000000000000000000081565b6040516001600160a01b039091168152602001610166565b3480156102e957600080fd5b5061015a6102f836600461266f565b610d8b565b34801561030957600080fd5b506101d8600081565b34801561031e57600080fd5b5061033261032d36600461266f565b610db4565b604051610166919061292a565b34801561034b57600080fd5b5061035f61035a36600461266f565b61134f565b604051610166919061293d565b34801561037857600080fd5b506101d86103873660046129d7565b6113af565b34801561039857600080fd5b506101f96103a7366004612a19565b611652565b3480156103b857600080fd5b506101d87fa0b8bef85fcf39fcf38553f1845a1aff0453bf1e225f80cc00ec3e5cff9e656481565b3480156103ec57600080fd5b506101f96103fb3660046124cf565b6119c8565b34801561040c57600080fd5b506101f961041b36600461266f565b611aff565b6101f961042e3660046124cf565b611b24565b34801561043f57600080fd5b506101f961044e366004612a58565b611c1e565b34801561045f57600080fd5b506101d8600080516020612f3183398151915281565b60006001600160e01b03198216637965db0b60e01b14806104a657506301ffc9a760e01b6001600160e01b03198316145b92915050565b6002602081905260009182526040909120805460018201549282018054919392916104d690612ac4565b80601f016020809104026020016040519081016040528092919081815260200182805461050290612ac4565b801561054f5780601f106105245761010080835404028352916020019161054f565b820191906000526020600020905b81548152906001019060200180831161053257829003601f168201915b50505050509080600301805461056490612ac4565b80601f016020809104026020016040519081016040528092919081815260200182805461059090612ac4565b80156105dd5780601f106105b2576101008083540402835291602001916105dd565b820191906000526020600020905b8154815290600101906020018083116105c057829003601f168201915b505050600484015460058501546006860154600787015460088801546009890154600a8a0154600b909a0154989995989497509295509093909260ff808216916101009004168d565b60008381526002602052604081209083600481111561064757610647612538565b0361068c5760405162461bcd60e51b815260206004820152601060248201526f43616e6e6f74207069636b204e6f6e6560801b60448201526064015b60405180910390fd5b6001600b820154610100900460ff1660048111156106ac576106ac612538565b146106e45760405162461bcd60e51b81526020600482015260086024820152672737ba1037b832b760c11b6044820152606401610683565b428160040154111580156106fc575080600501544211155b6107415760405162461bcd60e51b81526020600482015260166024820152752132ba3a34b733903832b934b7b21034b99037bb32b960511b6044820152606401610683565b348160060154836107529190612b14565b1461079f5760405162461bcd60e51b815260206004820152601a60248201527f57726f6e6720616d6f756e74206f6620657468657220706169640000000000006044820152606401610683565b80600c0160008460048111156107b7576107b7612538565b60048111156107c8576107c8612538565b81526020808201929092526040016000908120805460018101825590825291812090910180546001600160a01b03191633179055600d82019084600481111561081357610813612538565b600481111561082457610824612538565b8152602080820192909252604001600090812080546001810182559082529181209091018390558290600e83019085600481111561086457610864612538565b600481111561087557610875612538565b815260200190815260200160002060008282546108929190612b2b565b90915550506008810154156108c95760088101546108b09083612b14565b81600a0160008282546108c39190612b2b565b90915550505b818360048111156108dc576108dc612538565b60405133907f3d68d79a9de4cecfaa0379aaf807aaf2499d630a0eb3b78d9258ab4b3322d1b490600090a450505050565b60008281526020819052604090206001015461092881611f35565b6109328383611f42565b505050565b600080516020612f3183398151915261094f81611f35565b600086815260026020819052604090912090600b820154610100900460ff16600481111561097f5761097f612538565b1480156109a457506004600b82015460ff1660048111156109a2576109a2612538565b145b6109fa5760405162461bcd60e51b815260206004820152602160248201527f416c72656164792066696e616c697a6564206f72206e6f742063616e63656c656044820152601960fa1b6064820152608401610683565b6000610a068587612b2b565b905081600c016000886004811115610a2057610a20612538565b6004811115610a3157610a31612538565b8152602081019190915260400160002054811115610a865781600c016000886004811115610a6157610a61612538565b6004811115610a7257610a72612538565b815260208101919091526040016000205490505b855b81811015610b8c5782600d016000896004811115610aa857610aa8612538565b6004811115610ab957610ab9612538565b81526020019081526020016000208181548110610ad857610ad8612b3e565b90600052602060002001548360060154610af29190612b14565b83600f01600085600c0160008c6004811115610b1057610b10612538565b6004811115610b2157610b21612538565b81526020019081526020016000208481548110610b4057610b40612b3e565b60009182526020808320909101546001600160a01b0316835282019290925260400181208054909190610b74908490612b2b565b90915550819050610b8481612b54565b915050610a88565b508315610baf576009820154600a830155600b8201805461ff0019166103001790555b8086897f652626a3e83227c5562d477f5a4a4215bec3873912585fb2f2641b7c69dd079a8a604051610be19190612b6d565b60405180910390a45050505050505050565b6001600160a01b0381163314610c635760405162461bcd60e51b815260206004820152602f60248201527f416363657373436f6e74726f6c3a2063616e206f6e6c792072656e6f756e636560448201526e103937b632b9903337b91039b2b63360891b6064820152608401610683565b610c6d8282611fc6565b5050565b60008181526002602052604090206003600b820154610100900460ff166004811115610c9f57610c9f612538565b14610cdc5760405162461bcd60e51b815260206004820152600d60248201526c139bdd08199a5b985b1a5e9959609a1b6044820152606401610683565b336000908152600f82016020526040902054610d2d5760405162461bcd60e51b815260206004820152601060248201526f4e6f7468696e6720746f20636c61696d60801b6044820152606401610683565b336000818152600f8301602052604090205490610d4a908261202b565b336000818152600f84016020526040808220829055518392917f4382903e20a147c136bb058450a4653f3a6e2ea25a487ef9b8b6da41e573781a91a3505050565b6000918252602082815260408084206001600160a01b0393909316845291905290205460ff1690565b610dbc6123a0565b60006002600085815260200190815260200160002090506040518061034001604052808260000154815260200182600101548152602001826002018054610e0290612ac4565b80601f0160208091040260200160405190810160405280929190818152602001828054610e2e90612ac4565b8015610e7b5780601f10610e5057610100808354040283529160200191610e7b565b820191906000526020600020905b815481529060010190602001808311610e5e57829003601f168201915b50505050508152602001826003018054610e9490612ac4565b80601f0160208091040260200160405190810160405280929190818152602001828054610ec090612ac4565b8015610f0d5780601f10610ee257610100808354040283529160200191610f0d565b820191906000526020600020905b815481529060010190602001808311610ef057829003601f168201915b50505091835250506004808401546020830152600584015460408301526006840154606083015260078401546080830152600884015460a0830152600984015460c0830152600a84015460e0830152600b8401546101009092019160ff1690811115610f7b57610f7b612538565b815260200182600b0160019054906101000a900460ff166004811115610fa357610fa3612538565b8152602001600c830160006001815260200190815260200160002080548060200260200160405190810160405280929190818152602001828054801561101257602002820191906000526020600020905b81546001600160a01b03168152600190910190602001808311610ff4575b5050509183525050602001600d830160006001815260200190815260200160002080548060200260200160405190810160405280929190818152602001828054801561107d57602002820191906000526020600020905b815481526020019060010190808311611069575b5050509183525050602001600c83016000600381526020019081526020016000208054806020026020016040519081016040528092919081815260200182805480156110f257602002820191906000526020600020905b81546001600160a01b031681526001909101906020018083116110d4575b5050509183525050602001600d830160006003815260200190815260200160002080548060200260200160405190810160405280929190818152602001828054801561115d57602002820191906000526020600020905b815481526020019060010190808311611149575b5050509183525050602001600c83016000600281526020019081526020016000208054806020026020016040519081016040528092919081815260200182805480156111d257602002820191906000526020600020905b81546001600160a01b031681526001909101906020018083116111b4575b5050509183525050602001600d830160006002815260200190815260200160002080548060200260200160405190810160405280929190818152602001828054801561123d57602002820191906000526020600020905b815481526020019060010190808311611229575b505050918352505060016000908152600e8401602081815260408084205482860152600384528282528084205481860152600284529190529020546060820152600883015460068401546080909201916112979190612b80565b60016000908152600e850160205260409020546112b49190612b14565b8152602001826008015483600601546112cd9190612b80565b60036000908152600e850160205260409020546112ea9190612b14565b8152602001826008015483600601546113039190612b80565b60026000908152600e850160205260409020546113209190612b14565b81526001600160a01b0385166000908152600f9093016020908152604090932054920191909152905092915050565b611357612477565b61135f612477565b60005b60648110156113a75761137e6113788287612b2b565b85610db4565b82826064811061139057611390612b3e565b60200201528061139f81612b54565b915050611362565b509392505050565b6000600080516020612f318339815191526113c981611f35565b60005b838110156116465760008585838181106113e8576113e8612b3e565b90506020028101906113fa9190612b93565b61140390612c7f565b9050600060016000815461141690612b54565b918290555060008181526002602090815260409182902085820151925193945092611442929101612d3c565b60405160208183030381529060405280519060200120600014158015611493575082604001516040516020016114789190612d3c565b60405160208183030381529060405280519060200120600014155b80156114f3575082604001516040516020016114af9190612d3c565b6040516020818303038152906040528051906020012083602001516040516020016114da9190612d3c565b6040516020818303038152906040528051906020012014155b8015611506575082608001518360600151105b801561151957508260c001518360a00151115b6115575760405162461bcd60e51b815260206004820152600f60248201526e125b9d985b1a59081c995c5d595cdd608a1b6044820152606401610683565b82516040516115699190602001612d3c565b60408051601f198184030181529190528051602091820120825560018201839055830151600282019061159c9082612d94565b50604083015160038201906115b19082612d94565b5060608301516004820181905560808401516005830181905560a08501516006840181905560c0860151600885015560006007850155600b8401805461ffff191661010017905560405190815290919084907f6c8f11fa05ad85e50b002f9796eebbfdab3221dc1fa0b08409a923c0bfe829e69060200160405180910390a4505050808061163e90612b54565b9150506113cc565b50506001549392505050565b600080516020612f3183398151915261166a81611f35565b600085815260026020819052604090912090600b820154610100900460ff16600481111561169a5761169a612538565b1480156116c057506004600b82015460ff1660048111156116bd576116bd612538565b14155b61170c5760405162461bcd60e51b815260206004820152601d60248201527f4e6f7420636c6f736564206f72206265742069732063616e63656c65640000006044820152606401610683565b600b810154600c82019060009060ff16600481111561172d5761172d612538565b600481111561173e5761173e612538565b8152602001908152602001600020805490506000036117be57611760866120ce565b81600a0160008282546117739190612b2b565b9091555050600b8101805461ff001916610300179055604051600090819088907fb3d45df0e9b4fba98cf142be6fa7f8c6506e1c4909d59ead4a95357503b7d830908390a4506119c1565b60006117ca8587612b2b565b600b830154909150600c83019060009060ff1660048111156117ee576117ee612538565b60048111156117ff576117ff612538565b815260208101919091526040016000205481111561185d57600b820154600c83019060009060ff16600481111561183857611838612538565b600481111561184957611849612538565b815260208101919091526040016000205490505b855b81811015611976576007830154600b840154600d85019060009060ff16600481111561188d5761188d612538565b600481111561189e5761189e612538565b815260200190815260200160002082815481106118bd576118bd612b3e565b90600052602060002001546118d29190612b14565b600b840154600f850190600090600c870190829060ff1660048111156118fa576118fa612538565b600481111561190b5761190b612538565b8152602001908152602001600020848154811061192a5761192a612b3e565b60009182526020808320909101546001600160a01b031683528201929092526040018120805490919061195e908490612b2b565b9091555081905061196e81612b54565b91505061185f565b50831561198f57600b8201805461ff0019166103001790555b8086887fb3d45df0e9b4fba98cf142be6fa7f8c6506e1c4909d59ead4a95357503b7d83060405160405180910390a450505b5050505050565b600080516020612f318339815191526119e081611f35565b60008281526002602052604090206003600b820154610100900460ff166004811115611a0e57611a0e612538565b14611a505760405162461bcd60e51b8152602060048201526012602482015271139bdd081bdc195b881bdc8818db1bdcd95960721b6044820152606401610683565b600081600a015411611a965760405162461bcd60e51b815260206004820152600f60248201526e105b1c9958591e481cd95d1d1b1959608a1b6044820152606401610683565b600a810154611ac57f00000000000000000000000000000000000000000000000000000000000000008261202b565b6000600a8301819055604051829186917f59001c0be10329274f7da6ec0fed041356c55dbe163615b91bce9259027661f69190a350505050565b600082815260208190526040902060010154611b1a81611f35565b6109328383611fc6565b7fa0b8bef85fcf39fcf38553f1845a1aff0453bf1e225f80cc00ec3e5cff9e6564611b4e81611f35565b60008281526002602052604090206001600b820154610100900460ff166004811115611b7c57611b7c612538565b1480611ba557506002600b820154610100900460ff166004811115611ba357611ba3612538565b145b611be65760405162461bcd60e51b8152602060048201526012602482015271139bdd081bdc195b881bdc8818db1bdcd95960721b6044820152606401610683565b346009820181905560405184907f773ea414ad54cdf17b53ae7dd297e25c5eb23ff5d114c5333dd344ac0763cbab90600090a3505050565b600080516020612f31833981519152611c3681611f35565b838214611c7c5760405162461bcd60e51b8152602060048201526014602482015273092dcecc2d8d2c840d2dce0eae840d8cadccee8d60631b6044820152606401610683565b60005b84811015611f2d576000868683818110611c9b57611c9b612b3e565b9050602002013590506000858584818110611cb857611cb8612b3e565b9050602002016020810190611ccd9190612e54565b60008381526002602052604090209091506001600b820154610100900460ff166004811115611cfe57611cfe612538565b14611d365760405162461bcd60e51b81526020600482015260086024820152672737ba1037b832b760c11b6044820152606401610683565b6000600b82015460ff166004811115611d5157611d51612538565b14611d915760405162461bcd60e51b815260206004820152601060248201526f43616e6e6f74207069636b204e6f6e6560801b6044820152606401610683565b80600501544211611dd55760405162461bcd60e51b815260206004820152600e60248201526d125b9d985b1a59081c195c9a5bd960921b6044820152606401610683565b600b8101805483919060ff19166001836004811115611df657611df6612538565b02179055506000611e06846120ce565b600b830154909150600c83019060009060ff166004811115611e2a57611e2a612538565b6004811115611e3b57611e3b612538565b815260208101919091526040016000205415801590611e6c57506004836004811115611e6957611e69612538565b14155b15611ec357600b820154600e83019060009060ff166004811115611e9257611e92612538565b6004811115611ea357611ea3612538565b81526020019081526020016000205481611ebd9190612e6f565b60078301555b600b8201805461ff0019166102001790556007820154836004811115611eeb57611eeb612538565b60405186907fcf39dd076fd883ccbcfb18f509f1ec4c1e88685a02cfda542eb16949fa3dd36190600090a4505050508080611f2590612b54565b915050611c7f565b505050505050565b611f3f8133612199565b50565b611f4c8282610d8b565b610c6d576000828152602081815260408083206001600160a01b03851684529091529020805460ff19166001179055611f823390565b6001600160a01b0316816001600160a01b0316837f2f8788117e7eff1d82e926ec794901d17c78024a50270940304540a733656f0d60405160405180910390a45050565b611fd08282610d8b565b15610c6d576000828152602081815260408083206001600160a01b0385168085529252808320805460ff1916905551339285917ff6391f5c32d9c69d2a47ea670b442974b53935d1edc7fd64eb21e047a839171b9190a45050565b6000826001600160a01b03168260405160006040518083038185875af1925050503d8060008114612078576040519150601f19603f3d011682016040523d82523d6000602084013e61207d565b606091505b50509050806109325760405162461bcd60e51b815260206004820152601960248201527f4661696c6564207472616e7366657272696e67206574686572000000000000006044820152606401610683565b6000818152600260205260408120600881015460068201546120f09190612b80565b60026000908152600e8301602052604090205461210d9190612b14565b816008015482600601546121219190612b80565b60036000908152600e8401602052604090205461213e9190612b14565b826008015483600601546121529190612b80565b60016000908152600e8501602052604090205461216f9190612b14565b836009015461217e9190612b2b565b6121889190612b2b565b6121929190612b2b565b9392505050565b6121a38282610d8b565b610c6d576121b0816121f2565b6121bb836020612204565b6040516020016121cc929190612e91565b60408051601f198184030181529082905262461bcd60e51b825261068391600401612f06565b60606104a66001600160a01b03831660145b60606000612213836002612b14565b61221e906002612b2b565b67ffffffffffffffff81111561223657612236612bb3565b6040519080825280601f01601f191660200182016040528015612260576020820181803683370190505b509050600360fc1b8160008151811061227b5761227b612b3e565b60200101906001600160f81b031916908160001a905350600f60fb1b816001815181106122aa576122aa612b3e565b60200101906001600160f81b031916908160001a90535060006122ce846002612b14565b6122d9906001612b2b565b90505b6001811115612351576f181899199a1a9b1b9c1cb0b131b232b360811b85600f166010811061230d5761230d612b3e565b1a60f81b82828151811061232357612323612b3e565b60200101906001600160f81b031916908160001a90535060049490941c9361234a81612f19565b90506122dc565b5083156121925760405162461bcd60e51b815260206004820181905260248201527f537472696e67733a20686578206c656e67746820696e73756666696369656e746044820152606401610683565b60405180610340016040528060008019168152602001600081526020016060815260200160608152602001600081526020016000815260200160008152602001600081526020016000815260200160008152602001600081526020016000600481111561240f5761240f612538565b815260200160008152602001606081526020016060815260200160608152602001606081526020016060815260200160608152602001600081526020016000815260200160008152602001600081526020016000815260200160008152602001600081525090565b60405180610c8001604052806064905b61248f6123a0565b8152602001906001900390816124875790505090565b6000602082840312156124b757600080fd5b81356001600160e01b03198116811461219257600080fd5b6000602082840312156124e157600080fd5b5035919050565b60005b838110156125035781810151838201526020016124eb565b50506000910152565b600081518084526125248160208601602086016124e8565b601f01601f19169290920160200192915050565b634e487b7160e01b600052602160045260246000fd5b60058110611f3f57634e487b7160e01b600052602160045260246000fd5b6125758161254e565b9052565b60006101a08f83528e60208401528060408401526125998184018f61250c565b905082810360608401526125ad818e61250c565b9150508a60808301528960a08301528860c08301528760e08301528661010083015285610120830152846101408301526125e68461254e565b836101608301526125f68361254e565b826101808301529e9d5050505050505050505050505050565b80356005811061261e57600080fd5b919050565b60008060006060848603121561263857600080fd5b833592506126486020850161260f565b9150604084013590509250925092565b80356001600160a01b038116811461261e57600080fd5b6000806040838503121561268257600080fd5b8235915061269260208401612658565b90509250929050565b8035801515811461261e57600080fd5b600080600080600060a086880312156126c357600080fd5b853594506126d36020870161260f565b935060408601359250606086013591506126ef6080870161269b565b90509295509295909350565b600081518084526020808501945080840160005b838110156127345781516001600160a01b03168752958201959082019060010161270f565b509495945050505050565b600081518084526020808501945080840160005b8381101561273457815187529582019590820190600101612753565b6000610340825184526020830151602085015260408301518160408601526127998286018261250c565b915050606083015184820360608601526127b3828261250c565b9150506080830151608085015260a083015160a085015260c083015160c085015260e083015160e0850152610100808401518186015250610120808401518186015250610140808401518186015250610160808401516128158287018261256c565b50506101808084015161282a8287018261256c565b50506101a0808401518583038287015261284483826126fb565b925050506101c08084015185830382870152612860838261273f565b925050506101e0808401518583038287015261287c83826126fb565b925050506102008084015185830382870152612898838261273f565b9250505061022080840151858303828701526128b483826126fb565b9250505061024080840151858303828701526128d0838261273f565b610260868101519088015261028080870151908801526102a080870151908801526102c080870151908801526102e08087015190880152610300808701519088015261032095860151959096019490945250929392505050565b602081526000612192602083018461276f565b6020808252600090610ca0830183820185845b606481101561297f57601f1987850301835261296d84835161276f565b93509184019190840190600101612950565b50919695505050505050565b60008083601f84011261299d57600080fd5b50813567ffffffffffffffff8111156129b557600080fd5b6020830191508360208260051b85010111156129d057600080fd5b9250929050565b600080602083850312156129ea57600080fd5b823567ffffffffffffffff811115612a0157600080fd5b612a0d8582860161298b565b90969095509350505050565b60008060008060808587031215612a2f57600080fd5b843593506020850135925060408501359150612a4d6060860161269b565b905092959194509250565b60008060008060408587031215612a6e57600080fd5b843567ffffffffffffffff80821115612a8657600080fd5b612a928883890161298b565b90965094506020870135915080821115612aab57600080fd5b50612ab88782880161298b565b95989497509550505050565b600181811c90821680612ad857607f821691505b602082108103612af857634e487b7160e01b600052602260045260246000fd5b50919050565b634e487b7160e01b600052601160045260246000fd5b80820281158282048414176104a6576104a6612afe565b808201808211156104a6576104a6612afe565b634e487b7160e01b600052603260045260246000fd5b600060018201612b6657612b66612afe565b5060010190565b60208101612b7a8361254e565b91905290565b818103818111156104a6576104a6612afe565b6000823560de19833603018112612ba957600080fd5b9190910192915050565b634e487b7160e01b600052604160045260246000fd5b60405160e0810167ffffffffffffffff81118282101715612bec57612bec612bb3565b60405290565b600082601f830112612c0357600080fd5b813567ffffffffffffffff80821115612c1e57612c1e612bb3565b604051601f8301601f19908116603f01168101908282118183101715612c4657612c46612bb3565b81604052838152866020858801011115612c5f57600080fd5b836020870160208301376000602085830101528094505050505092915050565b600060e08236031215612c9157600080fd5b612c99612bc9565b823567ffffffffffffffff80821115612cb157600080fd5b612cbd36838701612bf2565b83526020850135915080821115612cd357600080fd5b612cdf36838701612bf2565b60208401526040850135915080821115612cf857600080fd5b50612d0536828601612bf2565b604083015250606083013560608201526080830135608082015260a083013560a082015260c083013560c082015280915050919050565b60008251612ba98184602087016124e8565b601f82111561093257600081815260208120601f850160051c81016020861015612d755750805b601f850160051c820191505b81811015611f2d57828155600101612d81565b815167ffffffffffffffff811115612dae57612dae612bb3565b612dc281612dbc8454612ac4565b84612d4e565b602080601f831160018114612df75760008415612ddf5750858301515b600019600386901b1c1916600185901b178555611f2d565b600085815260208120601f198616915b82811015612e2657888601518255948401946001909101908401612e07565b5085821015612e445787850151600019600388901b60f8161c191681555b5050505050600190811b01905550565b600060208284031215612e6657600080fd5b6121928261260f565b600082612e8c57634e487b7160e01b600052601260045260246000fd5b500490565b7f416363657373436f6e74726f6c3a206163636f756e7420000000000000000000815260008351612ec98160178501602088016124e8565b7001034b99036b4b9b9b4b733903937b6329607d1b6017918401918201528351612efa8160288401602088016124e8565b01602801949350505050565b602081526000612192602083018461250c565b600081612f2857612f28612afe565b50600019019056fe97667070c54ef182b0f5858b034beac1b6f3089aa2d3188bb1e8929f4fa9b929a264697066735822122088810a962bd139d92ed4f2ab9dec79a11d60d427766429565227489c9179ef9164736f6c63430008110033",
  "devdoc": {
    "kind": "dev",
    "methods": {
      "getRoleAdmin(bytes32)": {
        "details": "Returns the admin role that controls `role`. See {grantRole} and {revokeRole}. To change a role's admin, use {_setRoleAdmin}."
      },
      "grantRole(bytes32,address)": {
        "details": "Grants `role` to `account`. If `account` had not been already granted `role`, emits a {RoleGranted} event. Requirements: - the caller must have ``role``'s admin role. May emit a {RoleGranted} event."
      },
      "hasRole(bytes32,address)": {
        "details": "Returns `true` if `account` has been granted `role`."
      },
      "renounceRole(bytes32,address)": {
        "details": "Revokes `role` from the calling account. Roles are often managed via {grantRole} and {revokeRole}: this function's purpose is to provide a mechanism for accounts to lose their privileges if they are compromised (such as when a trusted device is misplaced). If the calling account had been revoked `role`, emits a {RoleRevoked} event. Requirements: - the caller must be `account`. May emit a {RoleRevoked} event."
      },
      "revokeRole(bytes32,address)": {
        "details": "Revokes `role` from `account`. If `account` had been granted `role`, emits a {RoleRevoked} event. Requirements: - the caller must have ``role``'s admin role. May emit a {RoleRevoked} event."
      },
      "supportsInterface(bytes4)": {
        "details": "See {IERC165-supportsInterface}."
      }
    },
    "version": 1
  },
  "userdoc": {
    "kind": "user",
    "methods": {},
    "version": 1
  },
  "storageLayout": {
    "storage": [
      {
        "astId": 24,
        "contract": "contracts/MoneylineBets/MoneylineBets.sol:MoneylineBets",
        "label": "_roles",
        "offset": 0,
        "slot": "0",
        "type": "t_mapping(t_bytes32,t_struct(RoleData)19_storage)"
      },
      {
        "astId": 1740,
        "contract": "contracts/MoneylineBets/MoneylineBets.sol:MoneylineBets",
        "label": "latestBetId",
        "offset": 0,
        "slot": "1",
        "type": "t_uint256"
      },
      {
        "astId": 1745,
        "contract": "contracts/MoneylineBets/MoneylineBets.sol:MoneylineBets",
        "label": "bets",
        "offset": 0,
        "slot": "2",
        "type": "t_mapping(t_uint256,t_struct(Bet)1550_storage)"
      }
    ],
    "types": {
      "t_address": {
        "encoding": "inplace",
        "label": "address",
        "numberOfBytes": "20"
      },
      "t_array(t_address)dyn_storage": {
        "base": "t_address",
        "encoding": "dynamic_array",
        "label": "address[]",
        "numberOfBytes": "32"
      },
      "t_array(t_uint256)dyn_storage": {
        "base": "t_uint256",
        "encoding": "dynamic_array",
        "label": "uint256[]",
        "numberOfBytes": "32"
      },
      "t_bool": {
        "encoding": "inplace",
        "label": "bool",
        "numberOfBytes": "1"
      },
      "t_bytes32": {
        "encoding": "inplace",
        "label": "bytes32",
        "numberOfBytes": "32"
      },
      "t_enum(Result)1494": {
        "encoding": "inplace",
        "label": "enum IMoneylineBets.Result",
        "numberOfBytes": "1"
      },
      "t_enum(Status)1500": {
        "encoding": "inplace",
        "label": "enum IMoneylineBets.Status",
        "numberOfBytes": "1"
      },
      "t_mapping(t_address,t_bool)": {
        "encoding": "mapping",
        "key": "t_address",
        "label": "mapping(address => bool)",
        "numberOfBytes": "32",
        "value": "t_bool"
      },
      "t_mapping(t_address,t_uint256)": {
        "encoding": "mapping",
        "key": "t_address",
        "label": "mapping(address => uint256)",
        "numberOfBytes": "32",
        "value": "t_uint256"
      },
      "t_mapping(t_bytes32,t_struct(RoleData)19_storage)": {
        "encoding": "mapping",
        "key": "t_bytes32",
        "label": "mapping(bytes32 => struct AccessControl.RoleData)",
        "numberOfBytes": "32",
        "value": "t_struct(RoleData)19_storage"
      },
      "t_mapping(t_enum(Result)1494,t_array(t_address)dyn_storage)": {
        "encoding": "mapping",
        "key": "t_enum(Result)1494",
        "label": "mapping(enum IMoneylineBets.Result => address[])",
        "numberOfBytes": "32",
        "value": "t_array(t_address)dyn_storage"
      },
      "t_mapping(t_enum(Result)1494,t_array(t_uint256)dyn_storage)": {
        "encoding": "mapping",
        "key": "t_enum(Result)1494",
        "label": "mapping(enum IMoneylineBets.Result => uint256[])",
        "numberOfBytes": "32",
        "value": "t_array(t_uint256)dyn_storage"
      },
      "t_mapping(t_enum(Result)1494,t_uint256)": {
        "encoding": "mapping",
        "key": "t_enum(Result)1494",
        "label": "mapping(enum IMoneylineBets.Result => uint256)",
        "numberOfBytes": "32",
        "value": "t_uint256"
      },
      "t_mapping(t_uint256,t_struct(Bet)1550_storage)": {
        "encoding": "mapping",
        "key": "t_uint256",
        "label": "mapping(uint256 => struct IMoneylineBets.Bet)",
        "numberOfBytes": "32",
        "value": "t_struct(Bet)1550_storage"
      },
      "t_string_storage": {
        "encoding": "bytes",
        "label": "string",
        "numberOfBytes": "32"
      },
      "t_struct(Bet)1550_storage": {
        "encoding": "inplace",
        "label": "struct IMoneylineBets.Bet",
        "members": [
          {
            "astId": 1502,
            "contract": "contracts/MoneylineBets/MoneylineBets.sol:MoneylineBets",
            "label": "code",
            "offset": 0,
            "slot": "0",
            "type": "t_bytes32"
          },
          {
            "astId": 1504,
            "contract": "contracts/MoneylineBets/MoneylineBets.sol:MoneylineBets",
            "label": "id",
            "offset": 0,
            "slot": "1",
            "type": "t_uint256"
          },
          {
            "astId": 1506,
            "contract": "contracts/MoneylineBets/MoneylineBets.sol:MoneylineBets",
            "label": "teamA",
            "offset": 0,
            "slot": "2",
            "type": "t_string_storage"
          },
          {
            "astId": 1508,
            "contract": "contracts/MoneylineBets/MoneylineBets.sol:MoneylineBets",
            "label": "teamB",
            "offset": 0,
            "slot": "3",
            "type": "t_string_storage"
          },
          {
            "astId": 1510,
            "contract": "contracts/MoneylineBets/MoneylineBets.sol:MoneylineBets",
            "label": "startsAt",
            "offset": 0,
            "slot": "4",
            "type": "t_uint256"
          },
          {
            "astId": 1512,
            "contract": "contracts/MoneylineBets/MoneylineBets.sol:MoneylineBets",
            "label": "endsAt",
            "offset": 0,
            "slot": "5",
            "type": "t_uint256"
          },
          {
            "astId": 1514,
            "contract": "contracts/MoneylineBets/MoneylineBets.sol:MoneylineBets",
            "label": "pricePerTicket",
            "offset": 0,
            "slot": "6",
            "type": "t_uint256"
          },
          {
            "astId": 1516,
            "contract": "contracts/MoneylineBets/MoneylineBets.sol:MoneylineBets",
            "label": "prizePerTicket",
            "offset": 0,
            "slot": "7",
            "type": "t_uint256"
          },
          {
            "astId": 1518,
            "contract": "contracts/MoneylineBets/MoneylineBets.sol:MoneylineBets",
            "label": "commissionPerTicket",
            "offset": 0,
            "slot": "8",
            "type": "t_uint256"
          },
          {
            "astId": 1520,
            "contract": "contracts/MoneylineBets/MoneylineBets.sol:MoneylineBets",
            "label": "injectedAmount",
            "offset": 0,
            "slot": "9",
            "type": "t_uint256"
          },
          {
            "astId": 1522,
            "contract": "contracts/MoneylineBets/MoneylineBets.sol:MoneylineBets",
            "label": "treasuryAmount",
            "offset": 0,
            "slot": "10",
            "type": "t_uint256"
          },
          {
            "astId": 1525,
            "contract": "contracts/MoneylineBets/MoneylineBets.sol:MoneylineBets",
            "label": "result",
            "offset": 0,
            "slot": "11",
            "type": "t_enum(Result)1494"
          },
          {
            "astId": 1528,
            "contract": "contracts/MoneylineBets/MoneylineBets.sol:MoneylineBets",
            "label": "status",
            "offset": 1,
            "slot": "11",
            "type": "t_enum(Status)1500"
          },
          {
            "astId": 1534,
            "contract": "contracts/MoneylineBets/MoneylineBets.sol:MoneylineBets",
            "label": "choices",
            "offset": 0,
            "slot": "12",
            "type": "t_mapping(t_enum(Result)1494,t_array(t_address)dyn_storage)"
          },
          {
            "astId": 1540,
            "contract": "contracts/MoneylineBets/MoneylineBets.sol:MoneylineBets",
            "label": "ticketCounts",
            "offset": 0,
            "slot": "13",
            "type": "t_mapping(t_enum(Result)1494,t_array(t_uint256)dyn_storage)"
          },
          {
            "astId": 1545,
            "contract": "contracts/MoneylineBets/MoneylineBets.sol:MoneylineBets",
            "label": "totalTicketCount",
            "offset": 0,
            "slot": "14",
            "type": "t_mapping(t_enum(Result)1494,t_uint256)"
          },
          {
            "astId": 1549,
            "contract": "contracts/MoneylineBets/MoneylineBets.sol:MoneylineBets",
            "label": "claimable",
            "offset": 0,
            "slot": "15",
            "type": "t_mapping(t_address,t_uint256)"
          }
        ],
        "numberOfBytes": "512"
      },
      "t_struct(RoleData)19_storage": {
        "encoding": "inplace",
        "label": "struct AccessControl.RoleData",
        "members": [
          {
            "astId": 16,
            "contract": "contracts/MoneylineBets/MoneylineBets.sol:MoneylineBets",
            "label": "members",
            "offset": 0,
            "slot": "0",
            "type": "t_mapping(t_address,t_bool)"
          },
          {
            "astId": 18,
            "contract": "contracts/MoneylineBets/MoneylineBets.sol:MoneylineBets",
            "label": "adminRole",
            "offset": 0,
            "slot": "1",
            "type": "t_bytes32"
          }
        ],
        "numberOfBytes": "64"
      },
      "t_uint256": {
        "encoding": "inplace",
        "label": "uint256",
        "numberOfBytes": "32"
      }
    }
  }
}