{
  "address": "0x974D2aC07C0eaf27b2178bCec4Ff8AC0385aA9D0",
  "abi": [
    {
      "inputs": [
        {
          "internalType": "address payable",
          "name": "_treasury",
          "type": "address"
        }
      ],
      "stateMutability": "nonpayable",
      "type": "constructor"
    },
    {
      "anonymous": false,
      "inputs": [
        {
          "indexed": true,
          "internalType": "address",
          "name": "from",
          "type": "address"
        },
        {
          "indexed": true,
          "internalType": "uint256",
          "name": "amount",
          "type": "uint256"
        }
      ],
      "name": "ClaimBet",
      "type": "event"
    },
    {
      "anonymous": false,
      "inputs": [
        {
          "indexed": true,
          "internalType": "uint256",
          "name": "id",
          "type": "uint256"
        },
        {
          "indexed": true,
          "internalType": "enum IMoneylineBets.Result",
          "name": "result",
          "type": "uint8"
        },
        {
          "indexed": true,
          "internalType": "uint256",
          "name": "prizePerTicket",
          "type": "uint256"
        }
      ],
      "name": "CloseBet",
      "type": "event"
    },
    {
      "anonymous": false,
      "inputs": [
        {
          "indexed": true,
          "internalType": "address",
          "name": "from",
          "type": "address"
        },
        {
          "indexed": true,
          "internalType": "uint256",
          "name": "commissionAmount",
          "type": "uint256"
        }
      ],
      "name": "CommissionPayment",
      "type": "event"
    },
    {
      "anonymous": false,
      "inputs": [
        {
          "indexed": true,
          "internalType": "uint256",
          "name": "id",
          "type": "uint256"
        },
        {
          "indexed": true,
          "internalType": "uint256",
          "name": "fromIdx",
          "type": "uint256"
        },
        {
          "indexed": true,
          "internalType": "uint256",
          "name": "toIdx",
          "type": "uint256"
        }
      ],
      "name": "FinalizeBet",
      "type": "event"
    },
    {
      "anonymous": false,
      "inputs": [
        {
          "indexed": true,
          "internalType": "uint256",
          "name": "id",
          "type": "uint256"
        },
        {
          "indexed": true,
          "internalType": "uint256",
          "name": "amount",
          "type": "uint256"
        }
      ],
      "name": "InjectBet",
      "type": "event"
    },
    {
      "anonymous": false,
      "inputs": [
        {
          "indexed": true,
          "internalType": "uint256",
          "name": "id",
          "type": "uint256"
        },
        {
          "indexed": false,
          "internalType": "enum IMoneylineBets.Result",
          "name": "choice",
          "type": "uint8"
        },
        {
          "indexed": true,
          "internalType": "uint256",
          "name": "fromIdx",
          "type": "uint256"
        },
        {
          "indexed": true,
          "internalType": "uint256",
          "name": "toIdx",
          "type": "uint256"
        }
      ],
      "name": "InvalidateBet",
      "type": "event"
    },
    {
      "anonymous": false,
      "inputs": [
        {
          "indexed": true,
          "internalType": "address",
          "name": "from",
          "type": "address"
        },
        {
          "indexed": true,
          "internalType": "enum IMoneylineBets.Result",
          "name": "choice",
          "type": "uint8"
        },
        {
          "indexed": true,
          "internalType": "uint256",
          "name": "ticketCount",
          "type": "uint256"
        }
      ],
      "name": "MakeBet",
      "type": "event"
    },
    {
      "anonymous": false,
      "inputs": [
        {
          "indexed": true,
          "internalType": "uint256",
          "name": "id",
          "type": "uint256"
        },
        {
          "indexed": true,
          "internalType": "uint256",
          "name": "startsAt",
          "type": "uint256"
        },
        {
          "indexed": true,
          "internalType": "uint256",
          "name": "endsAt",
          "type": "uint256"
        },
        {
          "indexed": false,
          "internalType": "uint256",
          "name": "pricePerTicket",
          "type": "uint256"
        }
      ],
      "name": "OpenBet",
      "type": "event"
    },
    {
      "anonymous": false,
      "inputs": [
        {
          "indexed": true,
          "internalType": "bytes32",
          "name": "role",
          "type": "bytes32"
        },
        {
          "indexed": true,
          "internalType": "bytes32",
          "name": "previousAdminRole",
          "type": "bytes32"
        },
        {
          "indexed": true,
          "internalType": "bytes32",
          "name": "newAdminRole",
          "type": "bytes32"
        }
      ],
      "name": "RoleAdminChanged",
      "type": "event"
    },
    {
      "anonymous": false,
      "inputs": [
        {
          "indexed": true,
          "internalType": "bytes32",
          "name": "role",
          "type": "bytes32"
        },
        {
          "indexed": true,
          "internalType": "address",
          "name": "account",
          "type": "address"
        },
        {
          "indexed": true,
          "internalType": "address",
          "name": "sender",
          "type": "address"
        }
      ],
      "name": "RoleGranted",
      "type": "event"
    },
    {
      "anonymous": false,
      "inputs": [
        {
          "indexed": true,
          "internalType": "bytes32",
          "name": "role",
          "type": "bytes32"
        },
        {
          "indexed": true,
          "internalType": "address",
          "name": "account",
          "type": "address"
        },
        {
          "indexed": true,
          "internalType": "address",
          "name": "sender",
          "type": "address"
        }
      ],
      "name": "RoleRevoked",
      "type": "event"
    },
    {
      "inputs": [],
      "name": "DEFAULT_ADMIN_ROLE",
      "outputs": [
        {
          "internalType": "bytes32",
          "name": "",
          "type": "bytes32"
        }
      ],
      "stateMutability": "view",
      "type": "function"
    },
    {
      "inputs": [],
      "name": "INJECTOR_ROLE",
      "outputs": [
        {
          "internalType": "bytes32",
          "name": "",
          "type": "bytes32"
        }
      ],
      "stateMutability": "view",
      "type": "function"
    },
    {
      "inputs": [],
      "name": "OPERATOR_ROLE",
      "outputs": [
        {
          "internalType": "bytes32",
          "name": "",
          "type": "bytes32"
        }
      ],
      "stateMutability": "view",
      "type": "function"
    },
    {
      "inputs": [
        {
          "internalType": "uint256",
          "name": "",
          "type": "uint256"
        }
      ],
      "name": "bets",
      "outputs": [
        {
          "internalType": "bytes32",
          "name": "code",
          "type": "bytes32"
        },
        {
          "internalType": "uint256",
          "name": "id",
          "type": "uint256"
        },
        {
          "internalType": "string",
          "name": "teamA",
          "type": "string"
        },
        {
          "internalType": "string",
          "name": "teamB",
          "type": "string"
        },
        {
          "internalType": "uint256",
          "name": "startsAt",
          "type": "uint256"
        },
        {
          "internalType": "uint256",
          "name": "endsAt",
          "type": "uint256"
        },
        {
          "internalType": "uint256",
          "name": "pricePerTicket",
          "type": "uint256"
        },
        {
          "internalType": "uint256",
          "name": "prizePerTicket",
          "type": "uint256"
        },
        {
          "internalType": "uint256",
          "name": "commissionPerTicket",
          "type": "uint256"
        },
        {
          "internalType": "uint256",
          "name": "injectedAmount",
          "type": "uint256"
        },
        {
          "internalType": "enum IMoneylineBets.Result",
          "name": "result",
          "type": "uint8"
        },
        {
          "internalType": "enum IMoneylineBets.Status",
          "name": "status",
          "type": "uint8"
        }
      ],
      "stateMutability": "view",
      "type": "function"
    },
    {
      "inputs": [
        {
          "internalType": "uint256",
          "name": "id",
          "type": "uint256"
        }
      ],
      "name": "claimBet",
      "outputs": [],
      "stateMutability": "nonpayable",
      "type": "function"
    },
    {
      "inputs": [
        {
          "internalType": "uint256[]",
          "name": "ids",
          "type": "uint256[]"
        },
        {
          "internalType": "enum IMoneylineBets.Result[]",
          "name": "results",
          "type": "uint8[]"
        }
      ],
      "name": "closeBets",
      "outputs": [],
      "stateMutability": "nonpayable",
      "type": "function"
    },
    {
      "inputs": [
        {
          "internalType": "uint256",
          "name": "id",
          "type": "uint256"
        },
        {
          "internalType": "uint256",
          "name": "fromIdx",
          "type": "uint256"
        },
        {
          "internalType": "uint256",
          "name": "limit",
          "type": "uint256"
        },
        {
          "internalType": "bool",
          "name": "isLast",
          "type": "bool"
        }
      ],
      "name": "finalizeBet",
      "outputs": [],
      "stateMutability": "nonpayable",
      "type": "function"
    },
    {
      "inputs": [
        {
          "internalType": "bytes32",
          "name": "role",
          "type": "bytes32"
        }
      ],
      "name": "getRoleAdmin",
      "outputs": [
        {
          "internalType": "bytes32",
          "name": "",
          "type": "bytes32"
        }
      ],
      "stateMutability": "view",
      "type": "function"
    },
    {
      "inputs": [
        {
          "internalType": "bytes32",
          "name": "role",
          "type": "bytes32"
        },
        {
          "internalType": "address",
          "name": "account",
          "type": "address"
        }
      ],
      "name": "grantRole",
      "outputs": [],
      "stateMutability": "nonpayable",
      "type": "function"
    },
    {
      "inputs": [
        {
          "internalType": "bytes32",
          "name": "role",
          "type": "bytes32"
        },
        {
          "internalType": "address",
          "name": "account",
          "type": "address"
        }
      ],
      "name": "hasRole",
      "outputs": [
        {
          "internalType": "bool",
          "name": "",
          "type": "bool"
        }
      ],
      "stateMutability": "view",
      "type": "function"
    },
    {
      "inputs": [
        {
          "internalType": "uint256",
          "name": "id",
          "type": "uint256"
        }
      ],
      "name": "injectBet",
      "outputs": [],
      "stateMutability": "payable",
      "type": "function"
    },
    {
      "inputs": [
        {
          "internalType": "uint256",
          "name": "id",
          "type": "uint256"
        },
        {
          "internalType": "enum IMoneylineBets.Result",
          "name": "choice",
          "type": "uint8"
        },
        {
          "internalType": "uint256",
          "name": "fromIdx",
          "type": "uint256"
        },
        {
          "internalType": "uint256",
          "name": "limit",
          "type": "uint256"
        },
        {
          "internalType": "bool",
          "name": "isLast",
          "type": "bool"
        }
      ],
      "name": "invalidateBet",
      "outputs": [],
      "stateMutability": "nonpayable",
      "type": "function"
    },
    {
      "inputs": [],
      "name": "latestBetId",
      "outputs": [
        {
          "internalType": "uint256",
          "name": "",
          "type": "uint256"
        }
      ],
      "stateMutability": "view",
      "type": "function"
    },
    {
      "inputs": [
        {
          "internalType": "uint256",
          "name": "id",
          "type": "uint256"
        },
        {
          "internalType": "enum IMoneylineBets.Result",
          "name": "choice",
          "type": "uint8"
        },
        {
          "internalType": "uint256",
          "name": "ticketCount",
          "type": "uint256"
        }
      ],
      "name": "makeBet",
      "outputs": [],
      "stateMutability": "payable",
      "type": "function"
    },
    {
      "inputs": [
        {
          "components": [
            {
              "internalType": "string",
              "name": "code",
              "type": "string"
            },
            {
              "internalType": "string",
              "name": "teamA",
              "type": "string"
            },
            {
              "internalType": "string",
              "name": "teamB",
              "type": "string"
            },
            {
              "internalType": "uint256",
              "name": "startsAt",
              "type": "uint256"
            },
            {
              "internalType": "uint256",
              "name": "endsAt",
              "type": "uint256"
            },
            {
              "internalType": "uint256",
              "name": "pricePerTicket",
              "type": "uint256"
            },
            {
              "internalType": "uint256",
              "name": "commissionPerTicket",
              "type": "uint256"
            }
          ],
          "internalType": "struct IMoneylineBets.OpenBetRequest[]",
          "name": "requests",
          "type": "tuple[]"
        }
      ],
      "name": "openBets",
      "outputs": [],
      "stateMutability": "nonpayable",
      "type": "function"
    },
    {
      "inputs": [
        {
          "internalType": "bytes32",
          "name": "role",
          "type": "bytes32"
        },
        {
          "internalType": "address",
          "name": "account",
          "type": "address"
        }
      ],
      "name": "renounceRole",
      "outputs": [],
      "stateMutability": "nonpayable",
      "type": "function"
    },
    {
      "inputs": [
        {
          "internalType": "bytes32",
          "name": "role",
          "type": "bytes32"
        },
        {
          "internalType": "address",
          "name": "account",
          "type": "address"
        }
      ],
      "name": "revokeRole",
      "outputs": [],
      "stateMutability": "nonpayable",
      "type": "function"
    },
    {
      "inputs": [
        {
          "internalType": "bytes4",
          "name": "interfaceId",
          "type": "bytes4"
        }
      ],
      "name": "supportsInterface",
      "outputs": [
        {
          "internalType": "bool",
          "name": "",
          "type": "bool"
        }
      ],
      "stateMutability": "view",
      "type": "function"
    },
    {
      "inputs": [],
      "name": "treasury",
      "outputs": [
        {
          "internalType": "address payable",
          "name": "",
          "type": "address"
        }
      ],
      "stateMutability": "view",
      "type": "function"
    },
    {
      "inputs": [
        {
          "internalType": "uint256",
          "name": "id",
          "type": "uint256"
        },
        {
          "internalType": "address",
          "name": "viewer",
          "type": "address"
        }
      ],
      "name": "viewBet",
      "outputs": [
        {
          "components": [
            {
              "internalType": "bytes32",
              "name": "code",
              "type": "bytes32"
            },
            {
              "internalType": "uint256",
              "name": "id",
              "type": "uint256"
            },
            {
              "internalType": "string",
              "name": "teamA",
              "type": "string"
            },
            {
              "internalType": "string",
              "name": "teamB",
              "type": "string"
            },
            {
              "internalType": "uint256",
              "name": "startsAt",
              "type": "uint256"
            },
            {
              "internalType": "uint256",
              "name": "endsAt",
              "type": "uint256"
            },
            {
              "internalType": "uint256",
              "name": "pricePerTicket",
              "type": "uint256"
            },
            {
              "internalType": "uint256",
              "name": "prizePerTicket",
              "type": "uint256"
            },
            {
              "internalType": "uint256",
              "name": "commissionPerTicket",
              "type": "uint256"
            },
            {
              "internalType": "uint256",
              "name": "injectedAmount",
              "type": "uint256"
            },
            {
              "internalType": "enum IMoneylineBets.Result",
              "name": "result",
              "type": "uint8"
            },
            {
              "internalType": "enum IMoneylineBets.Status",
              "name": "status",
              "type": "uint8"
            },
            {
              "internalType": "address[]",
              "name": "winChoices",
              "type": "address[]"
            },
            {
              "internalType": "uint256[]",
              "name": "winTicketCounts",
              "type": "uint256[]"
            },
            {
              "internalType": "address[]",
              "name": "loseChoices",
              "type": "address[]"
            },
            {
              "internalType": "uint256[]",
              "name": "loseTicketCounts",
              "type": "uint256[]"
            },
            {
              "internalType": "address[]",
              "name": "drawChoices",
              "type": "address[]"
            },
            {
              "internalType": "uint256[]",
              "name": "drawTicketCounts",
              "type": "uint256[]"
            },
            {
              "internalType": "uint256",
              "name": "winTotalTicketCount",
              "type": "uint256"
            },
            {
              "internalType": "uint256",
              "name": "drawTotalTicketCount",
              "type": "uint256"
            },
            {
              "internalType": "uint256",
              "name": "loseTotalTicketCount",
              "type": "uint256"
            },
            {
              "internalType": "uint256",
              "name": "winTotalSize",
              "type": "uint256"
            },
            {
              "internalType": "uint256",
              "name": "loseTotalSize",
              "type": "uint256"
            },
            {
              "internalType": "uint256",
              "name": "drawTotalSize",
              "type": "uint256"
            },
            {
              "internalType": "uint256",
              "name": "claimable",
              "type": "uint256"
            }
          ],
          "internalType": "struct IMoneylineBets.BetView",
          "name": "",
          "type": "tuple"
        }
      ],
      "stateMutability": "view",
      "type": "function"
    },
    {
      "inputs": [
        {
          "internalType": "uint256",
          "name": "fromId",
          "type": "uint256"
        },
        {
          "internalType": "address",
          "name": "viewer",
          "type": "address"
        }
      ],
      "name": "viewBets",
      "outputs": [
        {
          "components": [
            {
              "internalType": "bytes32",
              "name": "code",
              "type": "bytes32"
            },
            {
              "internalType": "uint256",
              "name": "id",
              "type": "uint256"
            },
            {
              "internalType": "string",
              "name": "teamA",
              "type": "string"
            },
            {
              "internalType": "string",
              "name": "teamB",
              "type": "string"
            },
            {
              "internalType": "uint256",
              "name": "startsAt",
              "type": "uint256"
            },
            {
              "internalType": "uint256",
              "name": "endsAt",
              "type": "uint256"
            },
            {
              "internalType": "uint256",
              "name": "pricePerTicket",
              "type": "uint256"
            },
            {
              "internalType": "uint256",
              "name": "prizePerTicket",
              "type": "uint256"
            },
            {
              "internalType": "uint256",
              "name": "commissionPerTicket",
              "type": "uint256"
            },
            {
              "internalType": "uint256",
              "name": "injectedAmount",
              "type": "uint256"
            },
            {
              "internalType": "enum IMoneylineBets.Result",
              "name": "result",
              "type": "uint8"
            },
            {
              "internalType": "enum IMoneylineBets.Status",
              "name": "status",
              "type": "uint8"
            },
            {
              "internalType": "address[]",
              "name": "winChoices",
              "type": "address[]"
            },
            {
              "internalType": "uint256[]",
              "name": "winTicketCounts",
              "type": "uint256[]"
            },
            {
              "internalType": "address[]",
              "name": "loseChoices",
              "type": "address[]"
            },
            {
              "internalType": "uint256[]",
              "name": "loseTicketCounts",
              "type": "uint256[]"
            },
            {
              "internalType": "address[]",
              "name": "drawChoices",
              "type": "address[]"
            },
            {
              "internalType": "uint256[]",
              "name": "drawTicketCounts",
              "type": "uint256[]"
            },
            {
              "internalType": "uint256",
              "name": "winTotalTicketCount",
              "type": "uint256"
            },
            {
              "internalType": "uint256",
              "name": "drawTotalTicketCount",
              "type": "uint256"
            },
            {
              "internalType": "uint256",
              "name": "loseTotalTicketCount",
              "type": "uint256"
            },
            {
              "internalType": "uint256",
              "name": "winTotalSize",
              "type": "uint256"
            },
            {
              "internalType": "uint256",
              "name": "loseTotalSize",
              "type": "uint256"
            },
            {
              "internalType": "uint256",
              "name": "drawTotalSize",
              "type": "uint256"
            },
            {
              "internalType": "uint256",
              "name": "claimable",
              "type": "uint256"
            }
          ],
          "internalType": "struct IMoneylineBets.BetView[100]",
          "name": "",
          "type": "tuple[100]"
        }
      ],
      "stateMutability": "view",
      "type": "function"
    }
  ],
  "transactionHash": "0x3875d6672ac1330afadf956368552059bd6b282406905726dc76d9ebc3ec95fc",
  "args": [
    "0x48277469a140826B50E9B35983e7d6D70076D729"
  ],
  "numDeployments": 14,
  "solcInputHash": "8dd77a7b2f30cb42d4117aced1568a85",
  "bytecode": "0x60a06040523480156200001157600080fd5b5060405162002ea238038062002ea28339810160408190526200003491620000f4565b6200004160003362000053565b6001600160a01b031660805262000126565b6000828152602081815260408083206001600160a01b038516845290915290205460ff16620000f0576000828152602081815260408083206001600160a01b03851684529091529020805460ff19166001179055620000af3390565b6001600160a01b0316816001600160a01b0316837f2f8788117e7eff1d82e926ec794901d17c78024a50270940304540a733656f0d60405160405180910390a45b5050565b6000602082840312156200010757600080fd5b81516001600160a01b03811681146200011f57600080fd5b9392505050565b608051612d59620001496000396000818161029701526108720152612d596000f3fe60806040526004361061012a5760003560e01c806391d14854116100ab578063b0c11c8c1161006f578063b0c11c8c14610380578063b5fcb461146103a0578063d547741f146103d4578063d75808a4146103f4578063dbfb6f1c14610407578063f5b541a61461042757600080fd5b806391d14854146102d1578063a217fddf146102f1578063a596a62614610306578063a65b072514610333578063aac0e6a21461036057600080fd5b80633362a409116100f25780633362a4091461020f57806336568abe1461022f5780633dc296ca1461024f5780634df86c431461026557806361d027b31461028557600080fd5b806301ffc9a71461012f57806322af00fa14610164578063248a9ca31461019c5780632bf840fc146101da5780632f2ff15d146101ef575b600080fd5b34801561013b57600080fd5b5061014f61014a36600461228c565b610449565b60405190151581526020015b60405180910390f35b34801561017057600080fd5b5061018461017f3660046122b6565b610480565b60405161015b9c9b9a99989796959493929190612360565b3480156101a857600080fd5b506101cc6101b73660046122b6565b60009081526020819052604090206001015490565b60405190815260200161015b565b6101ed6101e8366004612402565b6105f3565b005b3480156101fb57600080fd5b506101ed61020a36600461244e565b6109b4565b34801561021b57600080fd5b506101ed61022a36600461248a565b6109de565b34801561023b57600080fd5b506101ed61024a36600461244e565b610c90565b34801561025b57600080fd5b506101cc60015481565b34801561027157600080fd5b506101ed6102803660046122b6565b610d0e565b34801561029157600080fd5b506102b97f000000000000000000000000000000000000000000000000000000000000000081565b6040516001600160a01b03909116815260200161015b565b3480156102dd57600080fd5b5061014f6102ec36600461244e565b610eac565b3480156102fd57600080fd5b506101cc600081565b34801561031257600080fd5b5061032661032136600461244e565b610ed5565b60405161015b91906126fd565b34801561033f57600080fd5b5061035361034e36600461244e565b611465565b60405161015b9190612710565b34801561036c57600080fd5b506101ed61037b3660046127aa565b6114c5565b34801561038c57600080fd5b506101ed61039b3660046127ec565b611760565b3480156103ac57600080fd5b506101cc7fa0b8bef85fcf39fcf38553f1845a1aff0453bf1e225f80cc00ec3e5cff9e656481565b3480156103e057600080fd5b506101ed6103ef36600461244e565b6119eb565b6101ed6104023660046122b6565b611a10565b34801561041357600080fd5b506101ed61042236600461282b565b611b0a565b34801561043357600080fd5b506101cc600080516020612d0483398151915281565b60006001600160e01b03198216637965db0b60e01b148061047a57506301ffc9a760e01b6001600160e01b03198316145b92915050565b6002602081905260009182526040909120805460018201549282018054919392916104aa90612897565b80601f01602080910402602001604051908101604052809291908181526020018280546104d690612897565b80156105235780601f106104f857610100808354040283529160200191610523565b820191906000526020600020905b81548152906001019060200180831161050657829003601f168201915b50505050509080600301805461053890612897565b80601f016020809104026020016040519081016040528092919081815260200182805461056490612897565b80156105b15780601f10610586576101008083540402835291602001916105b1565b820191906000526020600020905b81548152906001019060200180831161059457829003601f168201915b50505050600483015460058401546006850154600786015460088701546009880154600a90980154969794969395509193909260ff808216916101009004168c565b6000838152600260205260408120908360048111156106145761061461231f565b036106595760405162461bcd60e51b815260206004820152601060248201526f43616e6e6f74207069636b204e6f6e6560801b60448201526064015b60405180910390fd5b6001600a820154610100900460ff1660048111156106795761067961231f565b146106b15760405162461bcd60e51b81526020600482015260086024820152672737ba1037b832b760c11b6044820152606401610650565b428160040154111580156106c9575080600501544211155b61070e5760405162461bcd60e51b81526020600482015260166024820152752132ba3a34b733903832b934b7b21034b99037bb32b960511b6044820152606401610650565b3481600601548361071f91906128e7565b1461076c5760405162461bcd60e51b815260206004820152601a60248201527f57726f6e6720616d6f756e74206f6620657468657220706169640000000000006044820152606401610650565b80600b0160008460048111156107845761078461231f565b60048111156107955761079561231f565b81526020808201929092526040016000908120805460018101825590825291812090910180546001600160a01b03191633179055600c8201908460048111156107e0576107e061231f565b60048111156107f1576107f161231f565b8152602080820192909252604001600090812080546001810182559082529181209091018390558290600d8301908560048111156108315761083161231f565b60048111156108425761084261231f565b8152602001908152602001600020600082825461085f91906128fe565b90915550506008810154156109705760007f00000000000000000000000000000000000000000000000000000000000000006001600160a01b03168260080154846108aa91906128e7565b604051600081818185875af1925050503d80600081146108e6576040519150601f19603f3d011682016040523d82523d6000602084013e6108eb565b606091505b50509050806109345760405162461bcd60e51b81526020600482015260156024820152742330b4b632b21032ba3432b9103a3930b739b332b960591b6044820152606401610650565b600882015461094390846128e7565b60405133907f0c649579a042e5e10229ef122ece381c2b3ba1f0cb4337ca394673262d6edbe890600090a3505b818360048111156109835761098361231f565b60405133907f3d68d79a9de4cecfaa0379aaf807aaf2499d630a0eb3b78d9258ab4b3322d1b490600090a450505050565b6000828152602081905260409020600101546109cf81611e8a565b6109d98383611e97565b505050565b600080516020612d048339815191526109f681611e8a565b600086815260026020819052604090912090600a820154610100900460ff166004811115610a2657610a2661231f565b148015610a4b57506004600a82015460ff166004811115610a4957610a4961231f565b145b610aa15760405162461bcd60e51b815260206004820152602160248201527f416c72656164792066696e616c697a6564206f72206e6f742063616e63656c656044820152601960fa1b6064820152608401610650565b6000610aad85876128fe565b905081600b016000886004811115610ac757610ac761231f565b6004811115610ad857610ad861231f565b8152602081019190915260400160002054811115610b2d5781600b016000886004811115610b0857610b0861231f565b6004811115610b1957610b1961231f565b815260208101919091526040016000205490505b855b81811015610c335782600c016000896004811115610b4f57610b4f61231f565b6004811115610b6057610b6061231f565b81526020019081526020016000208181548110610b7f57610b7f612911565b90600052602060002001548360060154610b9991906128e7565b83600e01600085600b0160008c6004811115610bb757610bb761231f565b6004811115610bc857610bc861231f565b81526020019081526020016000208481548110610be757610be7612911565b60009182526020808320909101546001600160a01b0316835282019290925260400181208054909190610c1b9084906128fe565b90915550819050610c2b81612927565b915050610b2f565b508315610c4c57600a8201805461ff0019166103001790555b8086897f652626a3e83227c5562d477f5a4a4215bec3873912585fb2f2641b7c69dd079a8a604051610c7e9190612940565b60405180910390a45050505050505050565b6001600160a01b0381163314610d005760405162461bcd60e51b815260206004820152602f60248201527f416363657373436f6e74726f6c3a2063616e206f6e6c792072656e6f756e636560448201526e103937b632b9903337b91039b2b63360891b6064820152608401610650565b610d0a8282611f1b565b5050565b60008181526002602052604090206003600a820154610100900460ff166004811115610d3c57610d3c61231f565b14610d795760405162461bcd60e51b815260206004820152600d60248201526c139bdd08199a5b985b1a5e9959609a1b6044820152606401610650565b336000908152600e82016020526040902054610dca5760405162461bcd60e51b815260206004820152601060248201526f4e6f7468696e6720746f20636c61696d60801b6044820152606401610650565b336000818152600e8301602052604080822054905190929083908381818185875af1925050503d8060008114610e1c576040519150601f19603f3d011682016040523d82523d6000602084013e610e21565b606091505b5050905080610e6a5760405162461bcd60e51b81526020600482015260156024820152742330b4b632b21032ba3432b9103a3930b739b332b960591b6044820152606401610650565b336000818152600e85016020526040808220829055518492917f4382903e20a147c136bb058450a4653f3a6e2ea25a487ef9b8b6da41e573781a91a350505050565b6000918252602082815260408084206001600160a01b0393909316845291905290205460ff1690565b610edd61218e565b60006002600085815260200190815260200160002090506040518061032001604052808260000154815260200182600101548152602001826002018054610f2390612897565b80601f0160208091040260200160405190810160405280929190818152602001828054610f4f90612897565b8015610f9c5780601f10610f7157610100808354040283529160200191610f9c565b820191906000526020600020905b815481529060010190602001808311610f7f57829003601f168201915b50505050508152602001826003018054610fb590612897565b80601f0160208091040260200160405190810160405280929190818152602001828054610fe190612897565b801561102e5780601f106110035761010080835404028352916020019161102e565b820191906000526020600020905b81548152906001019060200180831161101157829003601f168201915b50505091835250506004808401546020830152600584015460408301526006840154606083015260078401546080830152600884015460a0830152600984015460c0830152600a84015460e09092019160ff16908111156110915761109161231f565b815260200182600a0160019054906101000a900460ff1660048111156110b9576110b961231f565b8152602001600b830160006001815260200190815260200160002080548060200260200160405190810160405280929190818152602001828054801561112857602002820191906000526020600020905b81546001600160a01b0316815260019091019060200180831161110a575b5050509183525050602001600c830160006001815260200190815260200160002080548060200260200160405190810160405280929190818152602001828054801561119357602002820191906000526020600020905b81548152602001906001019080831161117f575b5050509183525050602001600b830160006003815260200190815260200160002080548060200260200160405190810160405280929190818152602001828054801561120857602002820191906000526020600020905b81546001600160a01b031681526001909101906020018083116111ea575b5050509183525050602001600c830160006003815260200190815260200160002080548060200260200160405190810160405280929190818152602001828054801561127357602002820191906000526020600020905b81548152602001906001019080831161125f575b5050509183525050602001600b83016000600281526020019081526020016000208054806020026020016040519081016040528092919081815260200182805480156112e857602002820191906000526020600020905b81546001600160a01b031681526001909101906020018083116112ca575b5050509183525050602001600c830160006002815260200190815260200160002080548060200260200160405190810160405280929190818152602001828054801561135357602002820191906000526020600020905b81548152602001906001019080831161133f575b505050918352505060016000908152600d8401602081815260408084205482860152600384528282528084205481860152600284529190529020546060820152600883015460068401546080909201916113ad9190612953565b60016000908152600d850160205260409020546113ca91906128e7565b8152602001826008015483600601546113e39190612953565b60036000908152600d8501602052604090205461140091906128e7565b8152602001826008015483600601546114199190612953565b60026000908152600d8501602052604090205461143691906128e7565b81526001600160a01b0385166000908152600e9093016020908152604090932054920191909152905092915050565b61146d61225e565b61147561225e565b60005b60648110156114bd5761149461148e82876128fe565b85610ed5565b8282606481106114a6576114a6612911565b6020020152806114b581612927565b915050611478565b509392505050565b600080516020612d048339815191526114dd81611e8a565b60005b8281101561175a5760008484838181106114fc576114fc612911565b905060200281019061150e9190612966565b61151790612a52565b9050600060016000815461152a90612927565b918290555060008181526002602090815260409182902085820151925193945092611556929101612b0f565b604051602081830303815290604052805190602001206000141580156115a75750826040015160405160200161158c9190612b0f565b60405160208183030381529060405280519060200120600014155b8015611607575082604001516040516020016115c39190612b0f565b6040516020818303038152906040528051906020012083602001516040516020016115ee9190612b0f565b6040516020818303038152906040528051906020012014155b801561161a575082608001518360600151105b801561162d57508260c001518360a00151115b61166b5760405162461bcd60e51b815260206004820152600f60248201526e125b9d985b1a59081c995c5d595cdd608a1b6044820152606401610650565b825160405161167d9190602001612b0f565b60408051601f19818403018152919052805160209182012082556001820183905583015160028201906116b09082612b67565b50604083015160038201906116c59082612b67565b5060608301516004820181905560808401516005830181905560a08501516006840181905560c0860151600885015560006007850155600a8401805461ffff191661010017905560405190815290919084907f6c8f11fa05ad85e50b002f9796eebbfdab3221dc1fa0b08409a923c0bfe829e69060200160405180910390a4505050808061175290612927565b9150506114e0565b50505050565b600080516020612d0483398151915261177881611e8a565b600085815260026020819052604090912090600a820154610100900460ff1660048111156117a8576117a861231f565b146117e25760405162461bcd60e51b815260206004820152600a602482015269139bdd0818db1bdcd95960b21b6044820152606401610650565b60006117ee85876128fe565b600a830154909150600b83019060009060ff1660048111156118125761181261231f565b60048111156118235761182361231f565b815260208101919091526040016000205481111561188157600a820154600b83019060009060ff16600481111561185c5761185c61231f565b600481111561186d5761186d61231f565b815260208101919091526040016000205490505b855b8181101561199a576007830154600a840154600c85019060009060ff1660048111156118b1576118b161231f565b60048111156118c2576118c261231f565b815260200190815260200160002082815481106118e1576118e1612911565b90600052602060002001546118f691906128e7565b600a840154600e850190600090600b870190829060ff16600481111561191e5761191e61231f565b600481111561192f5761192f61231f565b8152602001908152602001600020848154811061194e5761194e612911565b60009182526020808320909101546001600160a01b03168352820192909252604001812080549091906119829084906128fe565b9091555081905061199281612927565b915050611883565b5083156119b357600a8201805461ff0019166103001790555b8086887fb3d45df0e9b4fba98cf142be6fa7f8c6506e1c4909d59ead4a95357503b7d83060405160405180910390a450505050505050565b600082815260208190526040902060010154611a0681611e8a565b6109d98383611f1b565b7fa0b8bef85fcf39fcf38553f1845a1aff0453bf1e225f80cc00ec3e5cff9e6564611a3a81611e8a565b60008281526002602052604090206001600a820154610100900460ff166004811115611a6857611a6861231f565b1480611a9157506002600a820154610100900460ff166004811115611a8f57611a8f61231f565b145b611ad25760405162461bcd60e51b8152602060048201526012602482015271139bdd081bdc195b881bdc8818db1bdcd95960721b6044820152606401610650565b346009820181905560405184907f773ea414ad54cdf17b53ae7dd297e25c5eb23ff5d114c5333dd344ac0763cbab90600090a3505050565b600080516020612d04833981519152611b2281611e8a565b838214611b685760405162461bcd60e51b8152602060048201526014602482015273092dcecc2d8d2c840d2dce0eae840d8cadccee8d60631b6044820152606401610650565b60005b84811015611e82576000868683818110611b8757611b87612911565b9050602002013590506000858584818110611ba457611ba4612911565b9050602002016020810190611bb99190612c27565b60008381526002602052604090209091506001600a820154610100900460ff166004811115611bea57611bea61231f565b14611c225760405162461bcd60e51b81526020600482015260086024820152672737ba1037b832b760c11b6044820152606401610650565b6000600a82015460ff166004811115611c3d57611c3d61231f565b14611c7d5760405162461bcd60e51b815260206004820152601060248201526f43616e6e6f74207069636b204e6f6e6560801b6044820152606401610650565b600a8101805483919060ff19166001836004811115611c9e57611c9e61231f565b0217905550600081600801548260060154611cb99190612953565b60026000908152600d84016020526040902054611cd691906128e7565b82600801548360060154611cea9190612953565b60036000908152600d85016020526040902054611d0791906128e7565b83600801548460060154611d1b9190612953565b60016000908152600d86016020526040902054611d3891906128e7565b8460090154611d4791906128fe565b611d5191906128fe565b611d5b91906128fe565b600a830154909150600b83019060009060ff166004811115611d7f57611d7f61231f565b6004811115611d9057611d9061231f565b815260208101919091526040016000205415801590611dc157506004836004811115611dbe57611dbe61231f565b14155b15611e1857600a820154600d83019060009060ff166004811115611de757611de761231f565b6004811115611df857611df861231f565b81526020019081526020016000205481611e129190612c42565b60078301555b600a8201805461ff0019166102001790556007820154836004811115611e4057611e4061231f565b60405186907fcf39dd076fd883ccbcfb18f509f1ec4c1e88685a02cfda542eb16949fa3dd36190600090a4505050508080611e7a90612927565b915050611b6b565b505050505050565b611e948133611f80565b50565b611ea18282610eac565b610d0a576000828152602081815260408083206001600160a01b03851684529091529020805460ff19166001179055611ed73390565b6001600160a01b0316816001600160a01b0316837f2f8788117e7eff1d82e926ec794901d17c78024a50270940304540a733656f0d60405160405180910390a45050565b611f258282610eac565b15610d0a576000828152602081815260408083206001600160a01b0385168085529252808320805460ff1916905551339285917ff6391f5c32d9c69d2a47ea670b442974b53935d1edc7fd64eb21e047a839171b9190a45050565b611f8a8282610eac565b610d0a57611f9781611fd9565b611fa2836020611feb565b604051602001611fb3929190612c64565b60408051601f198184030181529082905262461bcd60e51b825261065091600401612cd9565b606061047a6001600160a01b03831660145b60606000611ffa8360026128e7565b6120059060026128fe565b67ffffffffffffffff81111561201d5761201d612986565b6040519080825280601f01601f191660200182016040528015612047576020820181803683370190505b509050600360fc1b8160008151811061206257612062612911565b60200101906001600160f81b031916908160001a905350600f60fb1b8160018151811061209157612091612911565b60200101906001600160f81b031916908160001a90535060006120b58460026128e7565b6120c09060016128fe565b90505b6001811115612138576f181899199a1a9b1b9c1cb0b131b232b360811b85600f16601081106120f4576120f4612911565b1a60f81b82828151811061210a5761210a612911565b60200101906001600160f81b031916908160001a90535060049490941c9361213181612cec565b90506120c3565b5083156121875760405162461bcd60e51b815260206004820181905260248201527f537472696e67733a20686578206c656e67746820696e73756666696369656e746044820152606401610650565b9392505050565b60405180610320016040528060008019168152602001600081526020016060815260200160608152602001600081526020016000815260200160008152602001600081526020016000815260200160008152602001600060048111156121f6576121f661231f565b815260200160008152602001606081526020016060815260200160608152602001606081526020016060815260200160608152602001600081526020016000815260200160008152602001600081526020016000815260200160008152602001600081525090565b60405180610c8001604052806064905b61227661218e565b81526020019060019003908161226e5790505090565b60006020828403121561229e57600080fd5b81356001600160e01b03198116811461218757600080fd5b6000602082840312156122c857600080fd5b5035919050565b60005b838110156122ea5781810151838201526020016122d2565b50506000910152565b6000815180845261230b8160208601602086016122cf565b601f01601f19169290920160200192915050565b634e487b7160e01b600052602160045260246000fd5b60058110611e9457634e487b7160e01b600052602160045260246000fd5b61235c81612335565b9052565b60006101808e83528d60208401528060408401526123808184018e6122f3565b90508281036060840152612394818d6122f3565b9150508960808301528860a08301528760c08301528660e083015285610100830152846101208301526123c684612335565b836101408301526123d683612335565b826101608301529d9c50505050505050505050505050565b8035600581106123fd57600080fd5b919050565b60008060006060848603121561241757600080fd5b83359250612427602085016123ee565b9150604084013590509250925092565b80356001600160a01b03811681146123fd57600080fd5b6000806040838503121561246157600080fd5b8235915061247160208401612437565b90509250929050565b803580151581146123fd57600080fd5b600080600080600060a086880312156124a257600080fd5b853594506124b2602087016123ee565b935060408601359250606086013591506124ce6080870161247a565b90509295509295909350565b600081518084526020808501945080840160005b838110156125135781516001600160a01b0316875295820195908201906001016124ee565b509495945050505050565b600081518084526020808501945080840160005b8381101561251357815187529582019590820190600101612532565b600061032082518452602083015160208501526040830151816040860152612578828601826122f3565b9150506060830151848203606086015261259282826122f3565b9150506080830151608085015260a083015160a085015260c083015160c085015260e083015160e0850152610100808401518186015250610120808401518186015250610140808401516125e882870182612353565b5050610160808401516125fd82870182612353565b5050610180808401518583038287015261261783826124da565b925050506101a08084015185830382870152612633838261251e565b925050506101c0808401518583038287015261264f83826124da565b925050506101e0808401518583038287015261266b838261251e565b92505050610200808401518583038287015261268783826124da565b9250505061022080840151858303828701526126a3838261251e565b6102408681015190880152610260808701519088015261028080870151908801526102a080870151908801526102c080870151908801526102e0808701519088015261030095860151959096019490945250929392505050565b602081526000612187602083018461254e565b6020808252600090610ca0830183820185845b606481101561275257601f1987850301835261274084835161254e565b93509184019190840190600101612723565b50919695505050505050565b60008083601f84011261277057600080fd5b50813567ffffffffffffffff81111561278857600080fd5b6020830191508360208260051b85010111156127a357600080fd5b9250929050565b600080602083850312156127bd57600080fd5b823567ffffffffffffffff8111156127d457600080fd5b6127e08582860161275e565b90969095509350505050565b6000806000806080858703121561280257600080fd5b8435935060208501359250604085013591506128206060860161247a565b905092959194509250565b6000806000806040858703121561284157600080fd5b843567ffffffffffffffff8082111561285957600080fd5b6128658883890161275e565b9096509450602087013591508082111561287e57600080fd5b5061288b8782880161275e565b95989497509550505050565b600181811c908216806128ab57607f821691505b6020821081036128cb57634e487b7160e01b600052602260045260246000fd5b50919050565b634e487b7160e01b600052601160045260246000fd5b808202811582820484141761047a5761047a6128d1565b8082018082111561047a5761047a6128d1565b634e487b7160e01b600052603260045260246000fd5b600060018201612939576129396128d1565b5060010190565b6020810161294d83612335565b91905290565b8181038181111561047a5761047a6128d1565b6000823560de1983360301811261297c57600080fd5b9190910192915050565b634e487b7160e01b600052604160045260246000fd5b60405160e0810167ffffffffffffffff811182821017156129bf576129bf612986565b60405290565b600082601f8301126129d657600080fd5b813567ffffffffffffffff808211156129f1576129f1612986565b604051601f8301601f19908116603f01168101908282118183101715612a1957612a19612986565b81604052838152866020858801011115612a3257600080fd5b836020870160208301376000602085830101528094505050505092915050565b600060e08236031215612a6457600080fd5b612a6c61299c565b823567ffffffffffffffff80821115612a8457600080fd5b612a90368387016129c5565b83526020850135915080821115612aa657600080fd5b612ab2368387016129c5565b60208401526040850135915080821115612acb57600080fd5b50612ad8368286016129c5565b604083015250606083013560608201526080830135608082015260a083013560a082015260c083013560c082015280915050919050565b6000825161297c8184602087016122cf565b601f8211156109d957600081815260208120601f850160051c81016020861015612b485750805b601f850160051c820191505b81811015611e8257828155600101612b54565b815167ffffffffffffffff811115612b8157612b81612986565b612b9581612b8f8454612897565b84612b21565b602080601f831160018114612bca5760008415612bb25750858301515b600019600386901b1c1916600185901b178555611e82565b600085815260208120601f198616915b82811015612bf957888601518255948401946001909101908401612bda565b5085821015612c175787850151600019600388901b60f8161c191681555b5050505050600190811b01905550565b600060208284031215612c3957600080fd5b612187826123ee565b600082612c5f57634e487b7160e01b600052601260045260246000fd5b500490565b7f416363657373436f6e74726f6c3a206163636f756e7420000000000000000000815260008351612c9c8160178501602088016122cf565b7001034b99036b4b9b9b4b733903937b6329607d1b6017918401918201528351612ccd8160288401602088016122cf565b01602801949350505050565b60208152600061218760208301846122f3565b600081612cfb57612cfb6128d1565b50600019019056fe97667070c54ef182b0f5858b034beac1b6f3089aa2d3188bb1e8929f4fa9b929a26469706673582212207c648c302ac6944b10f7b4a9a7d879c8d575c6bdf847ec96acbae6f7d713a9b364736f6c63430008110033",
  "devdoc": {
    "kind": "dev",
    "methods": {
      "getRoleAdmin(bytes32)": {
        "details": "Returns the admin role that controls `role`. See {grantRole} and {revokeRole}. To change a role's admin, use {_setRoleAdmin}."
      },
      "grantRole(bytes32,address)": {
        "details": "Grants `role` to `account`. If `account` had not been already granted `role`, emits a {RoleGranted} event. Requirements: - the caller must have ``role``'s admin role. May emit a {RoleGranted} event."
      },
      "hasRole(bytes32,address)": {
        "details": "Returns `true` if `account` has been granted `role`."
      },
      "renounceRole(bytes32,address)": {
        "details": "Revokes `role` from the calling account. Roles are often managed via {grantRole} and {revokeRole}: this function's purpose is to provide a mechanism for accounts to lose their privileges if they are compromised (such as when a trusted device is misplaced). If the calling account had been revoked `role`, emits a {RoleRevoked} event. Requirements: - the caller must be `account`. May emit a {RoleRevoked} event."
      },
      "revokeRole(bytes32,address)": {
        "details": "Revokes `role` from `account`. If `account` had been granted `role`, emits a {RoleRevoked} event. Requirements: - the caller must have ``role``'s admin role. May emit a {RoleRevoked} event."
      },
      "supportsInterface(bytes4)": {
        "details": "See {IERC165-supportsInterface}."
      }
    },
    "version": 1
  },
  "userdoc": {
    "kind": "user",
    "methods": {},
    "version": 1
  },
  "storageLayout": {
    "storage": [
      {
        "astId": 24,
        "contract": "contracts/MoneylineBets/MoneylineBets.sol:MoneylineBets",
        "label": "_roles",
        "offset": 0,
        "slot": "0",
        "type": "t_mapping(t_bytes32,t_struct(RoleData)19_storage)"
      },
      {
        "astId": 1719,
        "contract": "contracts/MoneylineBets/MoneylineBets.sol:MoneylineBets",
        "label": "latestBetId",
        "offset": 0,
        "slot": "1",
        "type": "t_uint256"
      },
      {
        "astId": 1724,
        "contract": "contracts/MoneylineBets/MoneylineBets.sol:MoneylineBets",
        "label": "bets",
        "offset": 0,
        "slot": "2",
        "type": "t_mapping(t_uint256,t_struct(Bet)1548_storage)"
      }
    ],
    "types": {
      "t_address": {
        "encoding": "inplace",
        "label": "address",
        "numberOfBytes": "20"
      },
      "t_array(t_address)dyn_storage": {
        "base": "t_address",
        "encoding": "dynamic_array",
        "label": "address[]",
        "numberOfBytes": "32"
      },
      "t_array(t_uint256)dyn_storage": {
        "base": "t_uint256",
        "encoding": "dynamic_array",
        "label": "uint256[]",
        "numberOfBytes": "32"
      },
      "t_bool": {
        "encoding": "inplace",
        "label": "bool",
        "numberOfBytes": "1"
      },
      "t_bytes32": {
        "encoding": "inplace",
        "label": "bytes32",
        "numberOfBytes": "32"
      },
      "t_enum(Result)1494": {
        "encoding": "inplace",
        "label": "enum IMoneylineBets.Result",
        "numberOfBytes": "1"
      },
      "t_enum(Status)1500": {
        "encoding": "inplace",
        "label": "enum IMoneylineBets.Status",
        "numberOfBytes": "1"
      },
      "t_mapping(t_address,t_bool)": {
        "encoding": "mapping",
        "key": "t_address",
        "label": "mapping(address => bool)",
        "numberOfBytes": "32",
        "value": "t_bool"
      },
      "t_mapping(t_address,t_uint256)": {
        "encoding": "mapping",
        "key": "t_address",
        "label": "mapping(address => uint256)",
        "numberOfBytes": "32",
        "value": "t_uint256"
      },
      "t_mapping(t_bytes32,t_struct(RoleData)19_storage)": {
        "encoding": "mapping",
        "key": "t_bytes32",
        "label": "mapping(bytes32 => struct AccessControl.RoleData)",
        "numberOfBytes": "32",
        "value": "t_struct(RoleData)19_storage"
      },
      "t_mapping(t_enum(Result)1494,t_array(t_address)dyn_storage)": {
        "encoding": "mapping",
        "key": "t_enum(Result)1494",
        "label": "mapping(enum IMoneylineBets.Result => address[])",
        "numberOfBytes": "32",
        "value": "t_array(t_address)dyn_storage"
      },
      "t_mapping(t_enum(Result)1494,t_array(t_uint256)dyn_storage)": {
        "encoding": "mapping",
        "key": "t_enum(Result)1494",
        "label": "mapping(enum IMoneylineBets.Result => uint256[])",
        "numberOfBytes": "32",
        "value": "t_array(t_uint256)dyn_storage"
      },
      "t_mapping(t_enum(Result)1494,t_uint256)": {
        "encoding": "mapping",
        "key": "t_enum(Result)1494",
        "label": "mapping(enum IMoneylineBets.Result => uint256)",
        "numberOfBytes": "32",
        "value": "t_uint256"
      },
      "t_mapping(t_uint256,t_struct(Bet)1548_storage)": {
        "encoding": "mapping",
        "key": "t_uint256",
        "label": "mapping(uint256 => struct IMoneylineBets.Bet)",
        "numberOfBytes": "32",
        "value": "t_struct(Bet)1548_storage"
      },
      "t_string_storage": {
        "encoding": "bytes",
        "label": "string",
        "numberOfBytes": "32"
      },
      "t_struct(Bet)1548_storage": {
        "encoding": "inplace",
        "label": "struct IMoneylineBets.Bet",
        "members": [
          {
            "astId": 1502,
            "contract": "contracts/MoneylineBets/MoneylineBets.sol:MoneylineBets",
            "label": "code",
            "offset": 0,
            "slot": "0",
            "type": "t_bytes32"
          },
          {
            "astId": 1504,
            "contract": "contracts/MoneylineBets/MoneylineBets.sol:MoneylineBets",
            "label": "id",
            "offset": 0,
            "slot": "1",
            "type": "t_uint256"
          },
          {
            "astId": 1506,
            "contract": "contracts/MoneylineBets/MoneylineBets.sol:MoneylineBets",
            "label": "teamA",
            "offset": 0,
            "slot": "2",
            "type": "t_string_storage"
          },
          {
            "astId": 1508,
            "contract": "contracts/MoneylineBets/MoneylineBets.sol:MoneylineBets",
            "label": "teamB",
            "offset": 0,
            "slot": "3",
            "type": "t_string_storage"
          },
          {
            "astId": 1510,
            "contract": "contracts/MoneylineBets/MoneylineBets.sol:MoneylineBets",
            "label": "startsAt",
            "offset": 0,
            "slot": "4",
            "type": "t_uint256"
          },
          {
            "astId": 1512,
            "contract": "contracts/MoneylineBets/MoneylineBets.sol:MoneylineBets",
            "label": "endsAt",
            "offset": 0,
            "slot": "5",
            "type": "t_uint256"
          },
          {
            "astId": 1514,
            "contract": "contracts/MoneylineBets/MoneylineBets.sol:MoneylineBets",
            "label": "pricePerTicket",
            "offset": 0,
            "slot": "6",
            "type": "t_uint256"
          },
          {
            "astId": 1516,
            "contract": "contracts/MoneylineBets/MoneylineBets.sol:MoneylineBets",
            "label": "prizePerTicket",
            "offset": 0,
            "slot": "7",
            "type": "t_uint256"
          },
          {
            "astId": 1518,
            "contract": "contracts/MoneylineBets/MoneylineBets.sol:MoneylineBets",
            "label": "commissionPerTicket",
            "offset": 0,
            "slot": "8",
            "type": "t_uint256"
          },
          {
            "astId": 1520,
            "contract": "contracts/MoneylineBets/MoneylineBets.sol:MoneylineBets",
            "label": "injectedAmount",
            "offset": 0,
            "slot": "9",
            "type": "t_uint256"
          },
          {
            "astId": 1523,
            "contract": "contracts/MoneylineBets/MoneylineBets.sol:MoneylineBets",
            "label": "result",
            "offset": 0,
            "slot": "10",
            "type": "t_enum(Result)1494"
          },
          {
            "astId": 1526,
            "contract": "contracts/MoneylineBets/MoneylineBets.sol:MoneylineBets",
            "label": "status",
            "offset": 1,
            "slot": "10",
            "type": "t_enum(Status)1500"
          },
          {
            "astId": 1532,
            "contract": "contracts/MoneylineBets/MoneylineBets.sol:MoneylineBets",
            "label": "choices",
            "offset": 0,
            "slot": "11",
            "type": "t_mapping(t_enum(Result)1494,t_array(t_address)dyn_storage)"
          },
          {
            "astId": 1538,
            "contract": "contracts/MoneylineBets/MoneylineBets.sol:MoneylineBets",
            "label": "ticketCounts",
            "offset": 0,
            "slot": "12",
            "type": "t_mapping(t_enum(Result)1494,t_array(t_uint256)dyn_storage)"
          },
          {
            "astId": 1543,
            "contract": "contracts/MoneylineBets/MoneylineBets.sol:MoneylineBets",
            "label": "totalTicketCount",
            "offset": 0,
            "slot": "13",
            "type": "t_mapping(t_enum(Result)1494,t_uint256)"
          },
          {
            "astId": 1547,
            "contract": "contracts/MoneylineBets/MoneylineBets.sol:MoneylineBets",
            "label": "claimable",
            "offset": 0,
            "slot": "14",
            "type": "t_mapping(t_address,t_uint256)"
          }
        ],
        "numberOfBytes": "480"
      },
      "t_struct(RoleData)19_storage": {
        "encoding": "inplace",
        "label": "struct AccessControl.RoleData",
        "members": [
          {
            "astId": 16,
            "contract": "contracts/MoneylineBets/MoneylineBets.sol:MoneylineBets",
            "label": "members",
            "offset": 0,
            "slot": "0",
            "type": "t_mapping(t_address,t_bool)"
          },
          {
            "astId": 18,
            "contract": "contracts/MoneylineBets/MoneylineBets.sol:MoneylineBets",
            "label": "adminRole",
            "offset": 0,
            "slot": "1",
            "type": "t_bytes32"
          }
        ],
        "numberOfBytes": "64"
      },
      "t_uint256": {
        "encoding": "inplace",
        "label": "uint256",
        "numberOfBytes": "32"
      }
    }
  }
}