{
  "address": "0xf87B502De54d49838fecAf9eD0dDf2F3EbddCC58",
  "abi": [
    {
      "inputs": [
        {
          "internalType": "address payable",
          "name": "_treasury",
          "type": "address"
        }
      ],
      "stateMutability": "nonpayable",
      "type": "constructor"
    },
    {
      "anonymous": false,
      "inputs": [
        {
          "indexed": true,
          "internalType": "address",
          "name": "from",
          "type": "address"
        },
        {
          "indexed": true,
          "internalType": "uint256",
          "name": "amount",
          "type": "uint256"
        }
      ],
      "name": "ClaimBet",
      "type": "event"
    },
    {
      "anonymous": false,
      "inputs": [
        {
          "indexed": true,
          "internalType": "uint256",
          "name": "id",
          "type": "uint256"
        },
        {
          "indexed": true,
          "internalType": "enum IMoneylineBets.Result",
          "name": "result",
          "type": "uint8"
        },
        {
          "indexed": true,
          "internalType": "uint256",
          "name": "totalPrize",
          "type": "uint256"
        }
      ],
      "name": "CloseBet",
      "type": "event"
    },
    {
      "anonymous": false,
      "inputs": [
        {
          "indexed": true,
          "internalType": "address",
          "name": "from",
          "type": "address"
        },
        {
          "indexed": true,
          "internalType": "uint256",
          "name": "commissionAmount",
          "type": "uint256"
        }
      ],
      "name": "CommissionPayment",
      "type": "event"
    },
    {
      "anonymous": false,
      "inputs": [
        {
          "indexed": true,
          "internalType": "uint256",
          "name": "id",
          "type": "uint256"
        },
        {
          "indexed": true,
          "internalType": "uint256",
          "name": "fromIdx",
          "type": "uint256"
        },
        {
          "indexed": true,
          "internalType": "uint256",
          "name": "toIdx",
          "type": "uint256"
        }
      ],
      "name": "FinalizeBet",
      "type": "event"
    },
    {
      "anonymous": false,
      "inputs": [
        {
          "indexed": true,
          "internalType": "uint256",
          "name": "id",
          "type": "uint256"
        },
        {
          "indexed": true,
          "internalType": "uint256",
          "name": "amount",
          "type": "uint256"
        }
      ],
      "name": "InjectBet",
      "type": "event"
    },
    {
      "anonymous": false,
      "inputs": [
        {
          "indexed": true,
          "internalType": "uint256",
          "name": "id",
          "type": "uint256"
        },
        {
          "indexed": true,
          "internalType": "uint256",
          "name": "fromIdx",
          "type": "uint256"
        },
        {
          "indexed": true,
          "internalType": "uint256",
          "name": "toIdx",
          "type": "uint256"
        }
      ],
      "name": "InvalidateBet",
      "type": "event"
    },
    {
      "anonymous": false,
      "inputs": [
        {
          "indexed": true,
          "internalType": "address",
          "name": "from",
          "type": "address"
        },
        {
          "indexed": true,
          "internalType": "enum IMoneylineBets.Result",
          "name": "choice",
          "type": "uint8"
        },
        {
          "indexed": true,
          "internalType": "uint256",
          "name": "ticketCount",
          "type": "uint256"
        }
      ],
      "name": "MakeBet",
      "type": "event"
    },
    {
      "anonymous": false,
      "inputs": [
        {
          "indexed": true,
          "internalType": "uint256",
          "name": "id",
          "type": "uint256"
        },
        {
          "indexed": true,
          "internalType": "uint256",
          "name": "startsAt",
          "type": "uint256"
        },
        {
          "indexed": true,
          "internalType": "uint256",
          "name": "endsAt",
          "type": "uint256"
        },
        {
          "indexed": false,
          "internalType": "uint256",
          "name": "pricePerTicket",
          "type": "uint256"
        }
      ],
      "name": "OpenBet",
      "type": "event"
    },
    {
      "anonymous": false,
      "inputs": [
        {
          "indexed": true,
          "internalType": "bytes32",
          "name": "role",
          "type": "bytes32"
        },
        {
          "indexed": true,
          "internalType": "bytes32",
          "name": "previousAdminRole",
          "type": "bytes32"
        },
        {
          "indexed": true,
          "internalType": "bytes32",
          "name": "newAdminRole",
          "type": "bytes32"
        }
      ],
      "name": "RoleAdminChanged",
      "type": "event"
    },
    {
      "anonymous": false,
      "inputs": [
        {
          "indexed": true,
          "internalType": "bytes32",
          "name": "role",
          "type": "bytes32"
        },
        {
          "indexed": true,
          "internalType": "address",
          "name": "account",
          "type": "address"
        },
        {
          "indexed": true,
          "internalType": "address",
          "name": "sender",
          "type": "address"
        }
      ],
      "name": "RoleGranted",
      "type": "event"
    },
    {
      "anonymous": false,
      "inputs": [
        {
          "indexed": true,
          "internalType": "bytes32",
          "name": "role",
          "type": "bytes32"
        },
        {
          "indexed": true,
          "internalType": "address",
          "name": "account",
          "type": "address"
        },
        {
          "indexed": true,
          "internalType": "address",
          "name": "sender",
          "type": "address"
        }
      ],
      "name": "RoleRevoked",
      "type": "event"
    },
    {
      "inputs": [],
      "name": "DEFAULT_ADMIN_ROLE",
      "outputs": [
        {
          "internalType": "bytes32",
          "name": "",
          "type": "bytes32"
        }
      ],
      "stateMutability": "view",
      "type": "function"
    },
    {
      "inputs": [],
      "name": "INJECTOR_ROLE",
      "outputs": [
        {
          "internalType": "bytes32",
          "name": "",
          "type": "bytes32"
        }
      ],
      "stateMutability": "view",
      "type": "function"
    },
    {
      "inputs": [],
      "name": "OPERATOR_ROLE",
      "outputs": [
        {
          "internalType": "bytes32",
          "name": "",
          "type": "bytes32"
        }
      ],
      "stateMutability": "view",
      "type": "function"
    },
    {
      "inputs": [
        {
          "internalType": "uint256",
          "name": "",
          "type": "uint256"
        }
      ],
      "name": "bets",
      "outputs": [
        {
          "internalType": "bytes32",
          "name": "code",
          "type": "bytes32"
        },
        {
          "internalType": "uint256",
          "name": "id",
          "type": "uint256"
        },
        {
          "internalType": "string",
          "name": "teamA",
          "type": "string"
        },
        {
          "internalType": "string",
          "name": "teamB",
          "type": "string"
        },
        {
          "internalType": "uint256",
          "name": "startsAt",
          "type": "uint256"
        },
        {
          "internalType": "uint256",
          "name": "endsAt",
          "type": "uint256"
        },
        {
          "internalType": "uint256",
          "name": "pricePerTicket",
          "type": "uint256"
        },
        {
          "internalType": "uint256",
          "name": "prizePerTicket",
          "type": "uint256"
        },
        {
          "internalType": "uint256",
          "name": "commissionPerTicket",
          "type": "uint256"
        },
        {
          "internalType": "uint256",
          "name": "injectedAmount",
          "type": "uint256"
        },
        {
          "internalType": "enum IMoneylineBets.Result",
          "name": "result",
          "type": "uint8"
        },
        {
          "internalType": "enum IMoneylineBets.Status",
          "name": "status",
          "type": "uint8"
        }
      ],
      "stateMutability": "view",
      "type": "function"
    },
    {
      "inputs": [
        {
          "internalType": "uint256",
          "name": "id",
          "type": "uint256"
        }
      ],
      "name": "claimBet",
      "outputs": [],
      "stateMutability": "nonpayable",
      "type": "function"
    },
    {
      "inputs": [
        {
          "internalType": "uint256[]",
          "name": "ids",
          "type": "uint256[]"
        },
        {
          "internalType": "enum IMoneylineBets.Result[]",
          "name": "results",
          "type": "uint8[]"
        }
      ],
      "name": "closeBets",
      "outputs": [],
      "stateMutability": "nonpayable",
      "type": "function"
    },
    {
      "inputs": [
        {
          "internalType": "uint256",
          "name": "id",
          "type": "uint256"
        },
        {
          "internalType": "uint256",
          "name": "fromIdx",
          "type": "uint256"
        },
        {
          "internalType": "uint256",
          "name": "limit",
          "type": "uint256"
        },
        {
          "internalType": "bool",
          "name": "isLast",
          "type": "bool"
        }
      ],
      "name": "finalizeBet",
      "outputs": [],
      "stateMutability": "nonpayable",
      "type": "function"
    },
    {
      "inputs": [
        {
          "internalType": "bytes32",
          "name": "role",
          "type": "bytes32"
        }
      ],
      "name": "getRoleAdmin",
      "outputs": [
        {
          "internalType": "bytes32",
          "name": "",
          "type": "bytes32"
        }
      ],
      "stateMutability": "view",
      "type": "function"
    },
    {
      "inputs": [
        {
          "internalType": "bytes32",
          "name": "role",
          "type": "bytes32"
        },
        {
          "internalType": "address",
          "name": "account",
          "type": "address"
        }
      ],
      "name": "grantRole",
      "outputs": [],
      "stateMutability": "nonpayable",
      "type": "function"
    },
    {
      "inputs": [
        {
          "internalType": "bytes32",
          "name": "role",
          "type": "bytes32"
        },
        {
          "internalType": "address",
          "name": "account",
          "type": "address"
        }
      ],
      "name": "hasRole",
      "outputs": [
        {
          "internalType": "bool",
          "name": "",
          "type": "bool"
        }
      ],
      "stateMutability": "view",
      "type": "function"
    },
    {
      "inputs": [
        {
          "internalType": "uint256",
          "name": "id",
          "type": "uint256"
        }
      ],
      "name": "injectBet",
      "outputs": [],
      "stateMutability": "payable",
      "type": "function"
    },
    {
      "inputs": [
        {
          "internalType": "uint256",
          "name": "id",
          "type": "uint256"
        },
        {
          "internalType": "enum IMoneylineBets.Result",
          "name": "choice",
          "type": "uint8"
        },
        {
          "internalType": "uint256",
          "name": "fromIdx",
          "type": "uint256"
        },
        {
          "internalType": "uint256",
          "name": "limit",
          "type": "uint256"
        },
        {
          "internalType": "bool",
          "name": "isLast",
          "type": "bool"
        }
      ],
      "name": "invalidateBet",
      "outputs": [],
      "stateMutability": "nonpayable",
      "type": "function"
    },
    {
      "inputs": [],
      "name": "latestBetId",
      "outputs": [
        {
          "internalType": "uint256",
          "name": "",
          "type": "uint256"
        }
      ],
      "stateMutability": "view",
      "type": "function"
    },
    {
      "inputs": [
        {
          "internalType": "uint256",
          "name": "id",
          "type": "uint256"
        },
        {
          "internalType": "enum IMoneylineBets.Result",
          "name": "choice",
          "type": "uint8"
        },
        {
          "internalType": "uint256",
          "name": "ticketCount",
          "type": "uint256"
        }
      ],
      "name": "makeBet",
      "outputs": [],
      "stateMutability": "payable",
      "type": "function"
    },
    {
      "inputs": [
        {
          "components": [
            {
              "internalType": "string",
              "name": "code",
              "type": "string"
            },
            {
              "internalType": "string",
              "name": "teamA",
              "type": "string"
            },
            {
              "internalType": "string",
              "name": "teamB",
              "type": "string"
            },
            {
              "internalType": "uint256",
              "name": "startsAt",
              "type": "uint256"
            },
            {
              "internalType": "uint256",
              "name": "endsAt",
              "type": "uint256"
            },
            {
              "internalType": "uint256",
              "name": "pricePerTicket",
              "type": "uint256"
            },
            {
              "internalType": "uint256",
              "name": "commissionPerTicket",
              "type": "uint256"
            }
          ],
          "internalType": "struct IMoneylineBets.OpenBetRequest[]",
          "name": "requests",
          "type": "tuple[]"
        }
      ],
      "name": "openBets",
      "outputs": [],
      "stateMutability": "nonpayable",
      "type": "function"
    },
    {
      "inputs": [
        {
          "internalType": "bytes32",
          "name": "role",
          "type": "bytes32"
        },
        {
          "internalType": "address",
          "name": "account",
          "type": "address"
        }
      ],
      "name": "renounceRole",
      "outputs": [],
      "stateMutability": "nonpayable",
      "type": "function"
    },
    {
      "inputs": [
        {
          "internalType": "bytes32",
          "name": "role",
          "type": "bytes32"
        },
        {
          "internalType": "address",
          "name": "account",
          "type": "address"
        }
      ],
      "name": "revokeRole",
      "outputs": [],
      "stateMutability": "nonpayable",
      "type": "function"
    },
    {
      "inputs": [
        {
          "internalType": "bytes4",
          "name": "interfaceId",
          "type": "bytes4"
        }
      ],
      "name": "supportsInterface",
      "outputs": [
        {
          "internalType": "bool",
          "name": "",
          "type": "bool"
        }
      ],
      "stateMutability": "view",
      "type": "function"
    },
    {
      "inputs": [],
      "name": "treasury",
      "outputs": [
        {
          "internalType": "address payable",
          "name": "",
          "type": "address"
        }
      ],
      "stateMutability": "view",
      "type": "function"
    },
    {
      "inputs": [
        {
          "internalType": "uint256",
          "name": "fromId",
          "type": "uint256"
        },
        {
          "internalType": "address",
          "name": "viewer",
          "type": "address"
        }
      ],
      "name": "viewBets",
      "outputs": [
        {
          "components": [
            {
              "internalType": "bytes32",
              "name": "code",
              "type": "bytes32"
            },
            {
              "internalType": "uint256",
              "name": "id",
              "type": "uint256"
            },
            {
              "internalType": "string",
              "name": "teamA",
              "type": "string"
            },
            {
              "internalType": "string",
              "name": "teamB",
              "type": "string"
            },
            {
              "internalType": "uint256",
              "name": "startsAt",
              "type": "uint256"
            },
            {
              "internalType": "uint256",
              "name": "endsAt",
              "type": "uint256"
            },
            {
              "internalType": "uint256",
              "name": "pricePerTicket",
              "type": "uint256"
            },
            {
              "internalType": "uint256",
              "name": "prizePerTicket",
              "type": "uint256"
            },
            {
              "internalType": "uint256",
              "name": "commissionPerTicket",
              "type": "uint256"
            },
            {
              "internalType": "uint256",
              "name": "injectedAmount",
              "type": "uint256"
            },
            {
              "internalType": "enum IMoneylineBets.Result",
              "name": "result",
              "type": "uint8"
            },
            {
              "internalType": "enum IMoneylineBets.Status",
              "name": "status",
              "type": "uint8"
            },
            {
              "internalType": "address[]",
              "name": "winChoices",
              "type": "address[]"
            },
            {
              "internalType": "uint256[]",
              "name": "winCounts",
              "type": "uint256[]"
            },
            {
              "internalType": "address[]",
              "name": "loseChoices",
              "type": "address[]"
            },
            {
              "internalType": "uint256[]",
              "name": "loseCounts",
              "type": "uint256[]"
            },
            {
              "internalType": "address[]",
              "name": "drawChoices",
              "type": "address[]"
            },
            {
              "internalType": "uint256[]",
              "name": "drawCounts",
              "type": "uint256[]"
            },
            {
              "internalType": "uint256",
              "name": "winAccumulated",
              "type": "uint256"
            },
            {
              "internalType": "uint256",
              "name": "loseAccumulated",
              "type": "uint256"
            },
            {
              "internalType": "uint256",
              "name": "drawAccumulated",
              "type": "uint256"
            },
            {
              "internalType": "uint256",
              "name": "claimable",
              "type": "uint256"
            }
          ],
          "internalType": "struct IMoneylineBets.BetView[100]",
          "name": "",
          "type": "tuple[100]"
        }
      ],
      "stateMutability": "view",
      "type": "function"
    }
  ],
  "transactionHash": "0xe427ad205a878bdb2ec569c7e5a9a70358c7b4321bdf8ea5993ccaf1db36a6ec",
  "args": [
    "0x48277469a140826B50E9B35983e7d6D70076D729"
  ],
  "numDeployments": 13,
  "solcInputHash": "9c9ed5e3cb07c3211a089aa19a8c98a6",
  "bytecode": "0x60a06040523480156200001157600080fd5b5060405162002c3e38038062002c3e8339810160408190526200003491620000f4565b6200004160003362000053565b6001600160a01b031660805262000126565b6000828152602081815260408083206001600160a01b038516845290915290205460ff16620000f0576000828152602081815260408083206001600160a01b03851684529091529020805460ff19166001179055620000af3390565b6001600160a01b0316816001600160a01b0316837f2f8788117e7eff1d82e926ec794901d17c78024a50270940304540a733656f0d60405160405180910390a45b5050565b6000602082840312156200010757600080fd5b81516001600160a01b03811681146200011f57600080fd5b9392505050565b608051612afc62000142600039600061028c0152612afc6000f3fe60806040526004361061011f5760003560e01c806391d14854116100a0578063b5fcb46111610064578063b5fcb46114610368578063d547741f1461039c578063d75808a4146103bc578063dbfb6f1c146103cf578063f5b541a6146103ef57600080fd5b806391d14854146102c6578063a217fddf146102e6578063a65b0725146102fb578063aac0e6a214610328578063b0c11c8c1461034857600080fd5b80633362a409116100e75780633362a4091461020457806336568abe146102245780633dc296ca146102445780634df86c431461025a57806361d027b31461027a57600080fd5b806301ffc9a71461012457806322af00fa14610159578063248a9ca3146101915780632bf840fc146101cf5780632f2ff15d146101e4575b600080fd5b34801561013057600080fd5b5061014461013f366004612088565b610411565b60405190151581526020015b60405180910390f35b34801561016557600080fd5b506101796101743660046120b2565b610448565b6040516101509c9b9a9998979695949392919061215c565b34801561019d57600080fd5b506101c16101ac3660046120b2565b60009081526020819052604090206001015490565b604051908152602001610150565b6101e26101dd3660046121fe565b6105bb565b005b3480156101f057600080fd5b506101e26101ff36600461224a565b61091d565b34801561021057600080fd5b506101e261021f366004612286565b610947565b34801561023057600080fd5b506101e261023f36600461224a565b610bee565b34801561025057600080fd5b506101c160015481565b34801561026657600080fd5b506101e26102753660046120b2565b610c6c565b34801561028657600080fd5b506102ae7f000000000000000000000000000000000000000000000000000000000000000081565b6040516001600160a01b039091168152602001610150565b3480156102d257600080fd5b506101446102e136600461224a565b610e0a565b3480156102f257600080fd5b506101c1600081565b34801561030757600080fd5b5061031b61031636600461224a565b610e33565b604051610150919061234a565b34801561033457600080fd5b506101e2610343366004612560565b61135b565b34801561035457600080fd5b506101e26103633660046125a2565b6115e3565b34801561037457600080fd5b506101c17fa0b8bef85fcf39fcf38553f1845a1aff0453bf1e225f80cc00ec3e5cff9e656481565b3480156103a857600080fd5b506101e26103b736600461224a565b61186e565b6101e26103ca3660046120b2565b611893565b3480156103db57600080fd5b506101e26103ea3660046125e1565b61198d565b3480156103fb57600080fd5b506101c1600080516020612aa783398151915281565b60006001600160e01b03198216637965db0b60e01b148061044257506301ffc9a760e01b6001600160e01b03198316145b92915050565b6002602081905260009182526040909120805460018201549282018054919392916104729061264d565b80601f016020809104026020016040519081016040528092919081815260200182805461049e9061264d565b80156104eb5780601f106104c0576101008083540402835291602001916104eb565b820191906000526020600020905b8154815290600101906020018083116104ce57829003601f168201915b5050505050908060030180546105009061264d565b80601f016020809104026020016040519081016040528092919081815260200182805461052c9061264d565b80156105795780601f1061054e57610100808354040283529160200191610579565b820191906000526020600020905b81548152906001019060200180831161055c57829003601f168201915b50505050600483015460058401546006850154600786015460088701546009880154600a90980154969794969395509193909260ff808216916101009004168c565b6000838152600260205260408120908360048111156105dc576105dc61211b565b036106215760405162461bcd60e51b815260206004820152601060248201526f43616e6e6f74207069636b204e6f6e6560801b60448201526064015b60405180910390fd5b6001600a820154610100900460ff1660048111156106415761064161211b565b146106795760405162461bcd60e51b81526020600482015260086024820152672737ba1037b832b760c11b6044820152606401610618565b42816004015411158015610691575080600501544211155b6106d65760405162461bcd60e51b81526020600482015260166024820152752132ba3a34b733903832b934b7b21034b99037bb32b960511b6044820152606401610618565b348160060154836106e7919061269d565b146107345760405162461bcd60e51b815260206004820152601a60248201527f57726f6e6720616d6f756e74206f6620657468657220706169640000000000006044820152606401610618565b80600b01600084600481111561074c5761074c61211b565b600481111561075d5761075d61211b565b81526020808201929092526040016000908120805460018101825590825291812090910180546001600160a01b03191633179055600c8201908460048111156107a8576107a861211b565b60048111156107b9576107b961211b565b81526020808201929092526040016000908120805460018101825590825291902001829055600881015460068201546107f291906126b4565b6107fc908361269d565b81600e0160008560048111156108145761081461211b565b60048111156108255761082561211b565b8152602001908152602001600020600082825461084291906126c7565b90915550829050600d820160008560048111156108615761086161211b565b60048111156108725761087261211b565b8152602001908152602001600020600082825461088f91906126c7565b90915550506008810154156108d95760088101546108ad908361269d565b60405133907f0c649579a042e5e10229ef122ece381c2b3ba1f0cb4337ca394673262d6edbe890600090a35b818360048111156108ec576108ec61211b565b60405133907f3d68d79a9de4cecfaa0379aaf807aaf2499d630a0eb3b78d9258ab4b3322d1b490600090a450505050565b60008281526020819052604090206001015461093881611c9b565b6109428383611ca8565b505050565b600080516020612aa783398151915261095f81611c9b565b600086815260026020819052604090912090600a820154610100900460ff16600481111561098f5761098f61211b565b1480156109b457506004600a82015460ff1660048111156109b2576109b261211b565b145b610a0a5760405162461bcd60e51b815260206004820152602160248201527f416c72656164792066696e616c697a6564206f72206e6f742063616e63656c656044820152601960fa1b6064820152608401610618565b6000610a1685876126c7565b905081600b016000886004811115610a3057610a3061211b565b6004811115610a4157610a4161211b565b8152602081019190915260400160002054811115610a965781600b016000886004811115610a7157610a7161211b565b6004811115610a8257610a8261211b565b815260208101919091526040016000205490505b855b81811015610b9c5782600c016000896004811115610ab857610ab861211b565b6004811115610ac957610ac961211b565b81526020019081526020016000208181548110610ae857610ae86126da565b90600052602060002001548360060154610b02919061269d565b83600f01600085600b0160008c6004811115610b2057610b2061211b565b6004811115610b3157610b3161211b565b81526020019081526020016000208481548110610b5057610b506126da565b60009182526020808320909101546001600160a01b0316835282019290925260400181208054909190610b849084906126c7565b90915550819050610b94816126f0565b915050610a98565b508315610bb557600a8201805461ff0019166103001790555b8086897f4cb7d1bc283813223ea6d081fe058f1d24fec80a7e630d60bb67d18e8cb38ec260405160405180910390a45050505050505050565b6001600160a01b0381163314610c5e5760405162461bcd60e51b815260206004820152602f60248201527f416363657373436f6e74726f6c3a2063616e206f6e6c792072656e6f756e636560448201526e103937b632b9903337b91039b2b63360891b6064820152608401610618565b610c688282611d2c565b5050565b60008181526002602052604090206003600a820154610100900460ff166004811115610c9a57610c9a61211b565b14610cd75760405162461bcd60e51b815260206004820152600d60248201526c139bdd08199a5b985b1a5e9959609a1b6044820152606401610618565b336000908152600f82016020526040902054610d285760405162461bcd60e51b815260206004820152601060248201526f4e6f7468696e6720746f20636c61696d60801b6044820152606401610618565b336000818152600f8301602052604080822054905190929083908381818185875af1925050503d8060008114610d7a576040519150601f19603f3d011682016040523d82523d6000602084013e610d7f565b606091505b5050905080610dc85760405162461bcd60e51b81526020600482015260156024820152742330b4b632b21032ba3432b9103a3930b739b332b960591b6044820152606401610618565b336000818152600f85016020526040808220829055518492917f4382903e20a147c136bb058450a4653f3a6e2ea25a487ef9b8b6da41e573781a91a350505050565b6000918252602082815260408084206001600160a01b0393909316845291905290205460ff1690565b610e3b611f9f565b610e43611f9f565b60005b6064811015611353576000600281610e5e84896126c7565b81526020019081526020016000209050604051806102c001604052808260000154815260200182600101548152602001826002018054610e9d9061264d565b80601f0160208091040260200160405190810160405280929190818152602001828054610ec99061264d565b8015610f165780601f10610eeb57610100808354040283529160200191610f16565b820191906000526020600020905b815481529060010190602001808311610ef957829003601f168201915b50505050508152602001826003018054610f2f9061264d565b80601f0160208091040260200160405190810160405280929190818152602001828054610f5b9061264d565b8015610fa85780601f10610f7d57610100808354040283529160200191610fa8565b820191906000526020600020905b815481529060010190602001808311610f8b57829003601f168201915b50505091835250506004808401546020830152600584015460408301526006840154606083015260078401546080830152600884015460a0830152600984015460c0830152600a84015460e09092019160ff169081111561100b5761100b61211b565b815260200182600a0160019054906101000a900460ff1660048111156110335761103361211b565b8152602001600b83016000600181526020019081526020016000208054806020026020016040519081016040528092919081815260200182805480156110a257602002820191906000526020600020905b81546001600160a01b03168152600190910190602001808311611084575b5050509183525050602001600c830160006001815260200190815260200160002080548060200260200160405190810160405280929190818152602001828054801561110d57602002820191906000526020600020905b8154815260200190600101908083116110f9575b5050509183525050602001600b830160006003815260200190815260200160002080548060200260200160405190810160405280929190818152602001828054801561118257602002820191906000526020600020905b81546001600160a01b03168152600190910190602001808311611164575b5050509183525050602001600c83016000600381526020019081526020016000208054806020026020016040519081016040528092919081815260200182805480156111ed57602002820191906000526020600020905b8154815260200190600101908083116111d9575b5050509183525050602001600b830160006002815260200190815260200160002080548060200260200160405190810160405280929190818152602001828054801561126257602002820191906000526020600020905b81546001600160a01b03168152600190910190602001808311611244575b5050509183525050602001600c83016000600281526020019081526020016000208054806020026020016040519081016040528092919081815260200182805480156112cd57602002820191906000526020600020905b8154815260200190600101908083116112b9575b505050918352505060016000908152600e8401602081815260408084205482860152600384528282528084205481860152600284529181528183205460608501526001600160a01b038a168352600f8601905290205460809091015283836064811061133b5761133b6126da565b6020020152508061134b816126f0565b915050610e46565b509392505050565b600080516020612aa783398151915261137381611c9b565b60005b828110156115dd576000848483818110611392576113926126da565b90506020028101906113a49190612709565b6113ad906127f5565b905060006001600081546113c0906126f0565b9182905550600081815260026020908152604091829020858201519251939450926113ec9291016128b2565b6040516020818303038152906040528051906020012060001415801561143d5750826040015160405160200161142291906128b2565b60405160208183030381529060405280519060200120600014155b801561149d5750826040015160405160200161145991906128b2565b60405160208183030381529060405280519060200120836020015160405160200161148491906128b2565b6040516020818303038152906040528051906020012014155b80156114b0575082608001518360600151105b6114ee5760405162461bcd60e51b815260206004820152600f60248201526e125b9d985b1a59081c995c5d595cdd608a1b6044820152606401610618565b825160405161150091906020016128b2565b60408051601f1981840301815291905280516020918201208255600182018390558301516002820190611533908261290a565b5060408301516003820190611548908261290a565b5060608301516004820181905560808401516005830181905560a08501516006840181905560c0860151600885015560006007850155600a8401805461ffff191661010017905560405190815290919084907f6c8f11fa05ad85e50b002f9796eebbfdab3221dc1fa0b08409a923c0bfe829e69060200160405180910390a450505080806115d5906126f0565b915050611376565b50505050565b600080516020612aa78339815191526115fb81611c9b565b600085815260026020819052604090912090600a820154610100900460ff16600481111561162b5761162b61211b565b146116655760405162461bcd60e51b815260206004820152600a602482015269139bdd0818db1bdcd95960b21b6044820152606401610618565b600061167185876126c7565b600a830154909150600b83019060009060ff1660048111156116955761169561211b565b60048111156116a6576116a661211b565b815260208101919091526040016000205481111561170457600a820154600b83019060009060ff1660048111156116df576116df61211b565b60048111156116f0576116f061211b565b815260208101919091526040016000205490505b855b8181101561181d576007830154600a840154600c85019060009060ff1660048111156117345761173461211b565b60048111156117455761174561211b565b81526020019081526020016000208281548110611764576117646126da565b9060005260206000200154611779919061269d565b600a840154600f850190600090600b870190829060ff1660048111156117a1576117a161211b565b60048111156117b2576117b261211b565b815260200190815260200160002084815481106117d1576117d16126da565b60009182526020808320909101546001600160a01b03168352820192909252604001812080549091906118059084906126c7565b90915550819050611815816126f0565b915050611706565b50831561183657600a8201805461ff0019166103001790555b8086887fb3d45df0e9b4fba98cf142be6fa7f8c6506e1c4909d59ead4a95357503b7d83060405160405180910390a450505050505050565b60008281526020819052604090206001015461188981611c9b565b6109428383611d2c565b7fa0b8bef85fcf39fcf38553f1845a1aff0453bf1e225f80cc00ec3e5cff9e65646118bd81611c9b565b60008281526002602052604090206001600a820154610100900460ff1660048111156118eb576118eb61211b565b148061191457506002600a820154610100900460ff1660048111156119125761191261211b565b145b6119555760405162461bcd60e51b8152602060048201526012602482015271139bdd081bdc195b881bdc8818db1bdcd95960721b6044820152606401610618565b346009820181905560405184907f773ea414ad54cdf17b53ae7dd297e25c5eb23ff5d114c5333dd344ac0763cbab90600090a3505050565b600080516020612aa78339815191526119a581611c9b565b8382146119eb5760405162461bcd60e51b8152602060048201526014602482015273092dcecc2d8d2c840d2dce0eae840d8cadccee8d60631b6044820152606401610618565b60005b84811015611c93576000868683818110611a0a57611a0a6126da565b9050602002013590506000858584818110611a2757611a276126da565b9050602002016020810190611a3c91906129ca565b60008381526002602052604090209091506001600a820154610100900460ff166004811115611a6d57611a6d61211b565b14611aa55760405162461bcd60e51b81526020600482015260086024820152672737ba1037b832b760c11b6044820152606401610618565b6000600a82015460ff166004811115611ac057611ac061211b565b14611b005760405162461bcd60e51b815260206004820152601060248201526f43616e6e6f74207069636b204e6f6e6560801b6044820152606401610618565b600a8101805483919060ff19166001836004811115611b2157611b2161211b565b021790555060036000908152600e8201602052604080822054600283528183205460018452918320546009850154919291611b5c91906126c7565b611b6691906126c7565b611b7091906126c7565b600a830154909150600b83019060009060ff166004811115611b9457611b9461211b565b6004811115611ba557611ba561211b565b815260208101919091526040016000205415801590611bd657506004836004811115611bd357611bd361211b565b14155b15611c2d57600a820154600d83019060009060ff166004811115611bfc57611bfc61211b565b6004811115611c0d57611c0d61211b565b81526020019081526020016000205481611c2791906129e5565b60078301555b600a8201805461ff00191661020017905580836004811115611c5157611c5161211b565b60405186907fcf39dd076fd883ccbcfb18f509f1ec4c1e88685a02cfda542eb16949fa3dd36190600090a4505050508080611c8b906126f0565b9150506119ee565b505050505050565b611ca58133611d91565b50565b611cb28282610e0a565b610c68576000828152602081815260408083206001600160a01b03851684529091529020805460ff19166001179055611ce83390565b6001600160a01b0316816001600160a01b0316837f2f8788117e7eff1d82e926ec794901d17c78024a50270940304540a733656f0d60405160405180910390a45050565b611d368282610e0a565b15610c68576000828152602081815260408083206001600160a01b0385168085529252808320805460ff1916905551339285917ff6391f5c32d9c69d2a47ea670b442974b53935d1edc7fd64eb21e047a839171b9190a45050565b611d9b8282610e0a565b610c6857611da881611dea565b611db3836020611dfc565b604051602001611dc4929190612a07565b60408051601f198184030181529082905262461bcd60e51b825261061891600401612a7c565b60606104426001600160a01b03831660145b60606000611e0b83600261269d565b611e169060026126c7565b67ffffffffffffffff811115611e2e57611e2e612729565b6040519080825280601f01601f191660200182016040528015611e58576020820181803683370190505b509050600360fc1b81600081518110611e7357611e736126da565b60200101906001600160f81b031916908160001a905350600f60fb1b81600181518110611ea257611ea26126da565b60200101906001600160f81b031916908160001a9053506000611ec684600261269d565b611ed19060016126c7565b90505b6001811115611f49576f181899199a1a9b1b9c1cb0b131b232b360811b85600f1660108110611f0557611f056126da565b1a60f81b828281518110611f1b57611f1b6126da565b60200101906001600160f81b031916908160001a90535060049490941c93611f4281612a8f565b9050611ed4565b508315611f985760405162461bcd60e51b815260206004820181905260248201527f537472696e67733a20686578206c656e67746820696e73756666696369656e746044820152606401610618565b9392505050565b60405180610c8001604052806064905b611fb7611fcd565b815260200190600190039081611faf5790505090565b604051806102c0016040528060008019168152602001600081526020016060815260200160608152602001600081526020016000815260200160008152602001600081526020016000815260200160008152602001600060048111156120355761203561211b565b815260200160008152602001606081526020016060815260200160608152602001606081526020016060815260200160608152602001600081526020016000815260200160008152602001600081525090565b60006020828403121561209a57600080fd5b81356001600160e01b031981168114611f9857600080fd5b6000602082840312156120c457600080fd5b5035919050565b60005b838110156120e65781810151838201526020016120ce565b50506000910152565b600081518084526121078160208601602086016120cb565b601f01601f19169290920160200192915050565b634e487b7160e01b600052602160045260246000fd5b60058110611ca557634e487b7160e01b600052602160045260246000fd5b61215881612131565b9052565b60006101808e83528d602084015280604084015261217c8184018e6120ef565b90508281036060840152612190818d6120ef565b9150508960808301528860a08301528760c08301528660e083015285610100830152846101208301526121c284612131565b836101408301526121d283612131565b826101608301529d9c50505050505050505050505050565b8035600581106121f957600080fd5b919050565b60008060006060848603121561221357600080fd5b83359250612223602085016121ea565b9150604084013590509250925092565b80356001600160a01b03811681146121f957600080fd5b6000806040838503121561225d57600080fd5b8235915061226d60208401612233565b90509250929050565b803580151581146121f957600080fd5b600080600080600060a0868803121561229e57600080fd5b853594506122ae602087016121ea565b935060408601359250606086013591506122ca60808701612276565b90509295509295909350565b600081518084526020808501945080840160005b8381101561230f5781516001600160a01b0316875295820195908201906001016122ea565b509495945050505050565b600081518084526020808501945080840160005b8381101561230f5781518752958201959082019060010161232e565b6020808252600090610ca0830183820185845b606481101561250857601f1987850301835281516102c08151865286820151878701526040808301518282890152612397838901826120ef565b92505050606080830151878303828901526123b283826120ef565b608085810151908a015260a080860151908a015260c080860151908a015260e080860151908a015261010080860151908a015261012080860151908a0152610140808601519194509250905061240a8289018261214f565b50506101608083015161241f8289018261214f565b5050610180808301518783038289015261243983826122d6565b925050506101a08083015187830382890152612455838261231a565b925050506101c0808301518783038289015261247183826122d6565b925050506101e0808301518783038289015261248d838261231a565b9250505061020080830151878303828901526124a983826122d6565b9250505061022080830151878303828901526124c5838261231a565b61024085810151908a015261026080860151908a015261028080860151908a01526102a0948501519490980193909352505050918401919084019060010161235d565b50919695505050505050565b60008083601f84011261252657600080fd5b50813567ffffffffffffffff81111561253e57600080fd5b6020830191508360208260051b850101111561255957600080fd5b9250929050565b6000806020838503121561257357600080fd5b823567ffffffffffffffff81111561258a57600080fd5b61259685828601612514565b90969095509350505050565b600080600080608085870312156125b857600080fd5b8435935060208501359250604085013591506125d660608601612276565b905092959194509250565b600080600080604085870312156125f757600080fd5b843567ffffffffffffffff8082111561260f57600080fd5b61261b88838901612514565b9096509450602087013591508082111561263457600080fd5b5061264187828801612514565b95989497509550505050565b600181811c9082168061266157607f821691505b60208210810361268157634e487b7160e01b600052602260045260246000fd5b50919050565b634e487b7160e01b600052601160045260246000fd5b808202811582820484141761044257610442612687565b8181038181111561044257610442612687565b8082018082111561044257610442612687565b634e487b7160e01b600052603260045260246000fd5b60006001820161270257612702612687565b5060010190565b6000823560de1983360301811261271f57600080fd5b9190910192915050565b634e487b7160e01b600052604160045260246000fd5b60405160e0810167ffffffffffffffff8111828210171561276257612762612729565b60405290565b600082601f83011261277957600080fd5b813567ffffffffffffffff8082111561279457612794612729565b604051601f8301601f19908116603f011681019082821181831017156127bc576127bc612729565b816040528381528660208588010111156127d557600080fd5b836020870160208301376000602085830101528094505050505092915050565b600060e0823603121561280757600080fd5b61280f61273f565b823567ffffffffffffffff8082111561282757600080fd5b61283336838701612768565b8352602085013591508082111561284957600080fd5b61285536838701612768565b6020840152604085013591508082111561286e57600080fd5b5061287b36828601612768565b604083015250606083013560608201526080830135608082015260a083013560a082015260c083013560c082015280915050919050565b6000825161271f8184602087016120cb565b601f82111561094257600081815260208120601f850160051c810160208610156128eb5750805b601f850160051c820191505b81811015611c93578281556001016128f7565b815167ffffffffffffffff81111561292457612924612729565b61293881612932845461264d565b846128c4565b602080601f83116001811461296d57600084156129555750858301515b600019600386901b1c1916600185901b178555611c93565b600085815260208120601f198616915b8281101561299c5788860151825594840194600190910190840161297d565b50858210156129ba5787850151600019600388901b60f8161c191681555b5050505050600190811b01905550565b6000602082840312156129dc57600080fd5b611f98826121ea565b600082612a0257634e487b7160e01b600052601260045260246000fd5b500490565b7f416363657373436f6e74726f6c3a206163636f756e7420000000000000000000815260008351612a3f8160178501602088016120cb565b7001034b99036b4b9b9b4b733903937b6329607d1b6017918401918201528351612a708160288401602088016120cb565b01602801949350505050565b602081526000611f9860208301846120ef565b600081612a9e57612a9e612687565b50600019019056fe97667070c54ef182b0f5858b034beac1b6f3089aa2d3188bb1e8929f4fa9b929a26469706673582212204ced15c6e3a9c79bd1df42576851d662414933729a9f8cd6b8fd32b9890dccdb64736f6c63430008110033",
  "devdoc": {
    "kind": "dev",
    "methods": {
      "getRoleAdmin(bytes32)": {
        "details": "Returns the admin role that controls `role`. See {grantRole} and {revokeRole}. To change a role's admin, use {_setRoleAdmin}."
      },
      "grantRole(bytes32,address)": {
        "details": "Grants `role` to `account`. If `account` had not been already granted `role`, emits a {RoleGranted} event. Requirements: - the caller must have ``role``'s admin role. May emit a {RoleGranted} event."
      },
      "hasRole(bytes32,address)": {
        "details": "Returns `true` if `account` has been granted `role`."
      },
      "renounceRole(bytes32,address)": {
        "details": "Revokes `role` from the calling account. Roles are often managed via {grantRole} and {revokeRole}: this function's purpose is to provide a mechanism for accounts to lose their privileges if they are compromised (such as when a trusted device is misplaced). If the calling account had been revoked `role`, emits a {RoleRevoked} event. Requirements: - the caller must be `account`. May emit a {RoleRevoked} event."
      },
      "revokeRole(bytes32,address)": {
        "details": "Revokes `role` from `account`. If `account` had been granted `role`, emits a {RoleRevoked} event. Requirements: - the caller must have ``role``'s admin role. May emit a {RoleRevoked} event."
      },
      "supportsInterface(bytes4)": {
        "details": "See {IERC165-supportsInterface}."
      }
    },
    "version": 1
  },
  "userdoc": {
    "kind": "user",
    "methods": {},
    "version": 1
  },
  "storageLayout": {
    "storage": [
      {
        "astId": 24,
        "contract": "contracts/MoneylineBets/MoneylineBets.sol:MoneylineBets",
        "label": "_roles",
        "offset": 0,
        "slot": "0",
        "type": "t_mapping(t_bytes32,t_struct(RoleData)19_storage)"
      },
      {
        "astId": 1718,
        "contract": "contracts/MoneylineBets/MoneylineBets.sol:MoneylineBets",
        "label": "latestBetId",
        "offset": 0,
        "slot": "1",
        "type": "t_uint256"
      },
      {
        "astId": 1723,
        "contract": "contracts/MoneylineBets/MoneylineBets.sol:MoneylineBets",
        "label": "bets",
        "offset": 0,
        "slot": "2",
        "type": "t_mapping(t_uint256,t_struct(Bet)1553_storage)"
      }
    ],
    "types": {
      "t_address": {
        "encoding": "inplace",
        "label": "address",
        "numberOfBytes": "20"
      },
      "t_array(t_address)dyn_storage": {
        "base": "t_address",
        "encoding": "dynamic_array",
        "label": "address[]",
        "numberOfBytes": "32"
      },
      "t_array(t_uint256)dyn_storage": {
        "base": "t_uint256",
        "encoding": "dynamic_array",
        "label": "uint256[]",
        "numberOfBytes": "32"
      },
      "t_bool": {
        "encoding": "inplace",
        "label": "bool",
        "numberOfBytes": "1"
      },
      "t_bytes32": {
        "encoding": "inplace",
        "label": "bytes32",
        "numberOfBytes": "32"
      },
      "t_enum(Result)1494": {
        "encoding": "inplace",
        "label": "enum IMoneylineBets.Result",
        "numberOfBytes": "1"
      },
      "t_enum(Status)1500": {
        "encoding": "inplace",
        "label": "enum IMoneylineBets.Status",
        "numberOfBytes": "1"
      },
      "t_mapping(t_address,t_bool)": {
        "encoding": "mapping",
        "key": "t_address",
        "label": "mapping(address => bool)",
        "numberOfBytes": "32",
        "value": "t_bool"
      },
      "t_mapping(t_address,t_uint256)": {
        "encoding": "mapping",
        "key": "t_address",
        "label": "mapping(address => uint256)",
        "numberOfBytes": "32",
        "value": "t_uint256"
      },
      "t_mapping(t_bytes32,t_struct(RoleData)19_storage)": {
        "encoding": "mapping",
        "key": "t_bytes32",
        "label": "mapping(bytes32 => struct AccessControl.RoleData)",
        "numberOfBytes": "32",
        "value": "t_struct(RoleData)19_storage"
      },
      "t_mapping(t_enum(Result)1494,t_array(t_address)dyn_storage)": {
        "encoding": "mapping",
        "key": "t_enum(Result)1494",
        "label": "mapping(enum IMoneylineBets.Result => address[])",
        "numberOfBytes": "32",
        "value": "t_array(t_address)dyn_storage"
      },
      "t_mapping(t_enum(Result)1494,t_array(t_uint256)dyn_storage)": {
        "encoding": "mapping",
        "key": "t_enum(Result)1494",
        "label": "mapping(enum IMoneylineBets.Result => uint256[])",
        "numberOfBytes": "32",
        "value": "t_array(t_uint256)dyn_storage"
      },
      "t_mapping(t_enum(Result)1494,t_uint256)": {
        "encoding": "mapping",
        "key": "t_enum(Result)1494",
        "label": "mapping(enum IMoneylineBets.Result => uint256)",
        "numberOfBytes": "32",
        "value": "t_uint256"
      },
      "t_mapping(t_uint256,t_struct(Bet)1553_storage)": {
        "encoding": "mapping",
        "key": "t_uint256",
        "label": "mapping(uint256 => struct IMoneylineBets.Bet)",
        "numberOfBytes": "32",
        "value": "t_struct(Bet)1553_storage"
      },
      "t_string_storage": {
        "encoding": "bytes",
        "label": "string",
        "numberOfBytes": "32"
      },
      "t_struct(Bet)1553_storage": {
        "encoding": "inplace",
        "label": "struct IMoneylineBets.Bet",
        "members": [
          {
            "astId": 1502,
            "contract": "contracts/MoneylineBets/MoneylineBets.sol:MoneylineBets",
            "label": "code",
            "offset": 0,
            "slot": "0",
            "type": "t_bytes32"
          },
          {
            "astId": 1504,
            "contract": "contracts/MoneylineBets/MoneylineBets.sol:MoneylineBets",
            "label": "id",
            "offset": 0,
            "slot": "1",
            "type": "t_uint256"
          },
          {
            "astId": 1506,
            "contract": "contracts/MoneylineBets/MoneylineBets.sol:MoneylineBets",
            "label": "teamA",
            "offset": 0,
            "slot": "2",
            "type": "t_string_storage"
          },
          {
            "astId": 1508,
            "contract": "contracts/MoneylineBets/MoneylineBets.sol:MoneylineBets",
            "label": "teamB",
            "offset": 0,
            "slot": "3",
            "type": "t_string_storage"
          },
          {
            "astId": 1510,
            "contract": "contracts/MoneylineBets/MoneylineBets.sol:MoneylineBets",
            "label": "startsAt",
            "offset": 0,
            "slot": "4",
            "type": "t_uint256"
          },
          {
            "astId": 1512,
            "contract": "contracts/MoneylineBets/MoneylineBets.sol:MoneylineBets",
            "label": "endsAt",
            "offset": 0,
            "slot": "5",
            "type": "t_uint256"
          },
          {
            "astId": 1514,
            "contract": "contracts/MoneylineBets/MoneylineBets.sol:MoneylineBets",
            "label": "pricePerTicket",
            "offset": 0,
            "slot": "6",
            "type": "t_uint256"
          },
          {
            "astId": 1516,
            "contract": "contracts/MoneylineBets/MoneylineBets.sol:MoneylineBets",
            "label": "prizePerTicket",
            "offset": 0,
            "slot": "7",
            "type": "t_uint256"
          },
          {
            "astId": 1518,
            "contract": "contracts/MoneylineBets/MoneylineBets.sol:MoneylineBets",
            "label": "commissionPerTicket",
            "offset": 0,
            "slot": "8",
            "type": "t_uint256"
          },
          {
            "astId": 1520,
            "contract": "contracts/MoneylineBets/MoneylineBets.sol:MoneylineBets",
            "label": "injectedAmount",
            "offset": 0,
            "slot": "9",
            "type": "t_uint256"
          },
          {
            "astId": 1523,
            "contract": "contracts/MoneylineBets/MoneylineBets.sol:MoneylineBets",
            "label": "result",
            "offset": 0,
            "slot": "10",
            "type": "t_enum(Result)1494"
          },
          {
            "astId": 1526,
            "contract": "contracts/MoneylineBets/MoneylineBets.sol:MoneylineBets",
            "label": "status",
            "offset": 1,
            "slot": "10",
            "type": "t_enum(Status)1500"
          },
          {
            "astId": 1532,
            "contract": "contracts/MoneylineBets/MoneylineBets.sol:MoneylineBets",
            "label": "choices",
            "offset": 0,
            "slot": "11",
            "type": "t_mapping(t_enum(Result)1494,t_array(t_address)dyn_storage)"
          },
          {
            "astId": 1538,
            "contract": "contracts/MoneylineBets/MoneylineBets.sol:MoneylineBets",
            "label": "counts",
            "offset": 0,
            "slot": "12",
            "type": "t_mapping(t_enum(Result)1494,t_array(t_uint256)dyn_storage)"
          },
          {
            "astId": 1543,
            "contract": "contracts/MoneylineBets/MoneylineBets.sol:MoneylineBets",
            "label": "totalCount",
            "offset": 0,
            "slot": "13",
            "type": "t_mapping(t_enum(Result)1494,t_uint256)"
          },
          {
            "astId": 1548,
            "contract": "contracts/MoneylineBets/MoneylineBets.sol:MoneylineBets",
            "label": "accumulated",
            "offset": 0,
            "slot": "14",
            "type": "t_mapping(t_enum(Result)1494,t_uint256)"
          },
          {
            "astId": 1552,
            "contract": "contracts/MoneylineBets/MoneylineBets.sol:MoneylineBets",
            "label": "claimable",
            "offset": 0,
            "slot": "15",
            "type": "t_mapping(t_address,t_uint256)"
          }
        ],
        "numberOfBytes": "512"
      },
      "t_struct(RoleData)19_storage": {
        "encoding": "inplace",
        "label": "struct AccessControl.RoleData",
        "members": [
          {
            "astId": 16,
            "contract": "contracts/MoneylineBets/MoneylineBets.sol:MoneylineBets",
            "label": "members",
            "offset": 0,
            "slot": "0",
            "type": "t_mapping(t_address,t_bool)"
          },
          {
            "astId": 18,
            "contract": "contracts/MoneylineBets/MoneylineBets.sol:MoneylineBets",
            "label": "adminRole",
            "offset": 0,
            "slot": "1",
            "type": "t_bytes32"
          }
        ],
        "numberOfBytes": "64"
      },
      "t_uint256": {
        "encoding": "inplace",
        "label": "uint256",
        "numberOfBytes": "32"
      }
    }
  }
}